{
  "contractName": "ChengToken",
  "abi": [
    {
      "inputs": [],
      "stateMutability": "nonpayable",
      "type": "constructor"
    },
    {
      "anonymous": false,
      "inputs": [
        {
          "indexed": true,
          "internalType": "address",
          "name": "owner",
          "type": "address"
        },
        {
          "indexed": true,
          "internalType": "address",
          "name": "spender",
          "type": "address"
        },
        {
          "indexed": false,
          "internalType": "uint256",
          "name": "value",
          "type": "uint256"
        }
      ],
      "name": "Approval",
      "type": "event"
    },
    {
      "anonymous": false,
      "inputs": [
        {
          "indexed": false,
          "internalType": "uint256",
          "name": "amountREWARD",
          "type": "uint256"
        },
        {
          "indexed": false,
          "internalType": "uint256",
          "name": "amountLIQ",
          "type": "uint256"
        }
      ],
      "name": "AutoLiquify",
      "type": "event"
    },
    {
      "anonymous": false,
      "inputs": [
        {
          "indexed": false,
          "internalType": "uint256",
          "name": "duration",
          "type": "uint256"
        }
      ],
      "name": "BuybackMultiplierActive",
      "type": "event"
    },
    {
      "anonymous": false,
      "inputs": [
        {
          "indexed": true,
          "internalType": "address",
          "name": "previousOwner",
          "type": "address"
        },
        {
          "indexed": true,
          "internalType": "address",
          "name": "newOwner",
          "type": "address"
        }
      ],
      "name": "OwnershipTransferred",
      "type": "event"
    },
    {
      "anonymous": false,
      "inputs": [
        {
          "indexed": false,
          "internalType": "bool",
          "name": "enabled",
          "type": "bool"
        }
      ],
      "name": "TradingEnabled",
      "type": "event"
    },
    {
      "anonymous": false,
      "inputs": [
        {
          "indexed": true,
          "internalType": "address",
          "name": "from",
          "type": "address"
        },
        {
          "indexed": true,
          "internalType": "address",
          "name": "to",
          "type": "address"
        },
        {
          "indexed": false,
          "internalType": "uint256",
          "name": "value",
          "type": "uint256"
        }
      ],
      "name": "Transfer",
      "type": "event"
    },
    {
      "inputs": [],
      "name": "_maxTxAmount",
      "outputs": [
        {
          "internalType": "uint256",
          "name": "",
          "type": "uint256"
        }
      ],
      "stateMutability": "view",
      "type": "function"
    },
    {
      "inputs": [],
      "name": "_maxWalletToken",
      "outputs": [
        {
          "internalType": "uint256",
          "name": "",
          "type": "uint256"
        }
      ],
      "stateMutability": "view",
      "type": "function"
    },
    {
      "inputs": [],
      "name": "_tTradeCycle",
      "outputs": [
        {
          "internalType": "uint256",
          "name": "",
          "type": "uint256"
        }
      ],
      "stateMutability": "view",
      "type": "function"
    },
    {
      "inputs": [],
      "name": "autoBuybackEnabled",
      "outputs": [
        {
          "internalType": "bool",
          "name": "",
          "type": "bool"
        }
      ],
      "stateMutability": "view",
      "type": "function"
    },
    {
      "inputs": [],
      "name": "autoLiquidityReceiver",
      "outputs": [
        {
          "internalType": "address",
          "name": "",
          "type": "address"
        }
      ],
      "stateMutability": "view",
      "type": "function"
    },
    {
      "inputs": [],
      "name": "buyCooldownEnabled",
      "outputs": [
        {
          "internalType": "bool",
          "name": "",
          "type": "bool"
        }
      ],
      "stateMutability": "view",
      "type": "function"
    },
    {
      "inputs": [],
      "name": "cooldownTimerInterval",
      "outputs": [
        {
          "internalType": "uint8",
          "name": "",
          "type": "uint8"
        }
      ],
      "stateMutability": "view",
      "type": "function"
    },
    {
      "inputs": [],
      "name": "distributor",
      "outputs": [
        {
          "internalType": "contract DividendDistributor",
          "name": "",
          "type": "address"
        }
      ],
      "stateMutability": "view",
      "type": "function"
    },
    {
      "inputs": [],
      "name": "launchedAt",
      "outputs": [
        {
          "internalType": "uint256",
          "name": "",
          "type": "uint256"
        }
      ],
      "stateMutability": "view",
      "type": "function"
    },
    {
      "inputs": [],
      "name": "marketingFeeReceiver",
      "outputs": [
        {
          "internalType": "address",
          "name": "",
          "type": "address"
        }
      ],
      "stateMutability": "view",
      "type": "function"
    },
    {
      "inputs": [],
      "name": "owner",
      "outputs": [
        {
          "internalType": "address",
          "name": "",
          "type": "address"
        }
      ],
      "stateMutability": "view",
      "type": "function"
    },
    {
      "inputs": [],
      "name": "pair",
      "outputs": [
        {
          "internalType": "address",
          "name": "",
          "type": "address"
        }
      ],
      "stateMutability": "view",
      "type": "function"
    },
    {
      "inputs": [],
      "name": "renounceOwnership",
      "outputs": [],
      "stateMutability": "nonpayable",
      "type": "function"
    },
    {
      "inputs": [],
      "name": "router",
      "outputs": [
        {
          "internalType": "contract IChengRouter",
          "name": "",
          "type": "address"
        }
      ],
      "stateMutability": "view",
      "type": "function"
    },
    {
      "inputs": [],
      "name": "swapEnabled",
      "outputs": [
        {
          "internalType": "bool",
          "name": "",
          "type": "bool"
        }
      ],
      "stateMutability": "view",
      "type": "function"
    },
    {
      "inputs": [],
      "name": "swapThreshold",
      "outputs": [
        {
          "internalType": "uint256",
          "name": "",
          "type": "uint256"
        }
      ],
      "stateMutability": "view",
      "type": "function"
    },
    {
      "inputs": [],
      "name": "totalFee",
      "outputs": [
        {
          "internalType": "uint256",
          "name": "",
          "type": "uint256"
        }
      ],
      "stateMutability": "view",
      "type": "function"
    },
    {
      "inputs": [],
      "name": "tradeSwapVolume",
      "outputs": [
        {
          "internalType": "uint256",
          "name": "",
          "type": "uint256"
        }
      ],
      "stateMutability": "view",
      "type": "function"
    },
    {
      "inputs": [],
      "name": "tradingEnabled",
      "outputs": [
        {
          "internalType": "bool",
          "name": "",
          "type": "bool"
        }
      ],
      "stateMutability": "view",
      "type": "function"
    },
    {
      "inputs": [
        {
          "internalType": "address",
          "name": "newOwner",
          "type": "address"
        }
      ],
      "name": "transferOwnership",
      "outputs": [],
      "stateMutability": "nonpayable",
      "type": "function"
    },
    {
      "stateMutability": "payable",
      "type": "receive"
    },
    {
      "inputs": [],
      "name": "totalSupply",
      "outputs": [
        {
          "internalType": "uint256",
          "name": "",
          "type": "uint256"
        }
      ],
      "stateMutability": "view",
      "type": "function"
    },
    {
      "inputs": [],
      "name": "decimals",
      "outputs": [
        {
          "internalType": "uint8",
          "name": "",
          "type": "uint8"
        }
      ],
      "stateMutability": "pure",
      "type": "function"
    },
    {
      "inputs": [],
      "name": "symbol",
      "outputs": [
        {
          "internalType": "string",
          "name": "",
          "type": "string"
        }
      ],
      "stateMutability": "pure",
      "type": "function"
    },
    {
      "inputs": [],
      "name": "name",
      "outputs": [
        {
          "internalType": "string",
          "name": "",
          "type": "string"
        }
      ],
      "stateMutability": "pure",
      "type": "function"
    },
    {
      "inputs": [],
      "name": "getOwner",
      "outputs": [
        {
          "internalType": "address",
          "name": "",
          "type": "address"
        }
      ],
      "stateMutability": "view",
      "type": "function"
    },
    {
      "inputs": [
        {
          "internalType": "address",
          "name": "account",
          "type": "address"
        }
      ],
      "name": "balanceOf",
      "outputs": [
        {
          "internalType": "uint256",
          "name": "",
          "type": "uint256"
        }
      ],
      "stateMutability": "view",
      "type": "function"
    },
    {
      "inputs": [
        {
          "internalType": "address",
          "name": "holder",
          "type": "address"
        },
        {
          "internalType": "address",
          "name": "spender",
          "type": "address"
        }
      ],
      "name": "allowance",
      "outputs": [
        {
          "internalType": "uint256",
          "name": "",
          "type": "uint256"
        }
      ],
      "stateMutability": "view",
      "type": "function"
    },
    {
      "inputs": [
        {
          "internalType": "address",
          "name": "spender",
          "type": "address"
        },
        {
          "internalType": "uint256",
          "name": "amount",
          "type": "uint256"
        }
      ],
      "name": "approve",
      "outputs": [
        {
          "internalType": "bool",
          "name": "",
          "type": "bool"
        }
      ],
      "stateMutability": "nonpayable",
      "type": "function"
    },
    {
      "inputs": [
        {
          "internalType": "address",
          "name": "spender",
          "type": "address"
        }
      ],
      "name": "approveMax",
      "outputs": [
        {
          "internalType": "bool",
          "name": "",
          "type": "bool"
        }
      ],
      "stateMutability": "nonpayable",
      "type": "function"
    },
    {
      "inputs": [
        {
          "internalType": "address",
          "name": "recipient",
          "type": "address"
        },
        {
          "internalType": "uint256",
          "name": "amount",
          "type": "uint256"
        }
      ],
      "name": "transfer",
      "outputs": [
        {
          "internalType": "bool",
          "name": "",
          "type": "bool"
        }
      ],
      "stateMutability": "nonpayable",
      "type": "function"
    },
    {
      "inputs": [
        {
          "internalType": "address",
          "name": "sender",
          "type": "address"
        },
        {
          "internalType": "address",
          "name": "recipient",
          "type": "address"
        },
        {
          "internalType": "uint256",
          "name": "amount",
          "type": "uint256"
        }
      ],
      "name": "transferFrom",
      "outputs": [
        {
          "internalType": "bool",
          "name": "",
          "type": "bool"
        }
      ],
      "stateMutability": "nonpayable",
      "type": "function"
    },
    {
      "inputs": [
        {
          "internalType": "bool",
          "name": "selling",
          "type": "bool"
        }
      ],
      "name": "getTotalFee",
      "outputs": [
        {
          "internalType": "uint256",
          "name": "",
          "type": "uint256"
        }
      ],
      "stateMutability": "view",
      "type": "function"
    },
    {
      "inputs": [],
      "name": "getMultipliedFee",
      "outputs": [
        {
          "internalType": "uint256",
          "name": "",
          "type": "uint256"
        }
      ],
      "stateMutability": "view",
      "type": "function"
    },
    {
      "inputs": [
        {
          "internalType": "uint256",
          "name": "amount",
          "type": "uint256"
        },
        {
          "internalType": "bool",
          "name": "triggerBuybackMultiplier",
          "type": "bool"
        }
      ],
      "name": "triggerManualBuyback",
      "outputs": [],
      "stateMutability": "nonpayable",
      "type": "function"
    },
    {
      "inputs": [],
      "name": "clearBuybackMultiplier",
      "outputs": [],
      "stateMutability": "nonpayable",
      "type": "function"
    },
    {
      "inputs": [
        {
          "internalType": "bool",
          "name": "_enabled",
          "type": "bool"
        },
        {
          "internalType": "uint256",
          "name": "_cap",
          "type": "uint256"
        },
        {
          "internalType": "uint256",
          "name": "_amount",
          "type": "uint256"
        },
        {
          "internalType": "uint256",
          "name": "_period",
          "type": "uint256"
        }
      ],
      "name": "setAutoBuybackSettings",
      "outputs": [],
      "stateMutability": "nonpayable",
      "type": "function"
    },
    {
      "inputs": [
        {
          "internalType": "uint256",
          "name": "numerator",
          "type": "uint256"
        },
        {
          "internalType": "uint256",
          "name": "denominator",
          "type": "uint256"
        },
        {
          "internalType": "uint256",
          "name": "length",
          "type": "uint256"
        }
      ],
      "name": "setBuybackMultiplierSettings",
      "outputs": [],
      "stateMutability": "nonpayable",
      "type": "function"
    },
    {
      "inputs": [
        {
          "internalType": "address",
          "name": "holder",
          "type": "address"
        },
        {
          "internalType": "bool",
          "name": "exempt",
          "type": "bool"
        }
      ],
      "name": "setIsAllExempt",
      "outputs": [],
      "stateMutability": "nonpayable",
      "type": "function"
    },
    {
      "inputs": [
        {
          "internalType": "address",
          "name": "holder",
          "type": "address"
        },
        {
          "internalType": "bool",
          "name": "exempt",
          "type": "bool"
        }
      ],
      "name": "setIsDividendExempt",
      "outputs": [],
      "stateMutability": "nonpayable",
      "type": "function"
    },
    {
      "inputs": [
        {
          "internalType": "address",
          "name": "holder",
          "type": "address"
        },
        {
          "internalType": "bool",
          "name": "exempt",
          "type": "bool"
        }
      ],
      "name": "setIsFeeExempt",
      "outputs": [],
      "stateMutability": "nonpayable",
      "type": "function"
    },
    {
      "inputs": [
        {
          "internalType": "address",
          "name": "holder",
          "type": "address"
        },
        {
          "internalType": "bool",
          "name": "exempt",
          "type": "bool"
        }
      ],
      "name": "setIsTxLimitExempt",
      "outputs": [],
      "stateMutability": "nonpayable",
      "type": "function"
    },
    {
      "inputs": [
        {
          "internalType": "uint256",
          "name": "_liquidityFee",
          "type": "uint256"
        },
        {
          "internalType": "uint256",
          "name": "_buybackFee",
          "type": "uint256"
        },
        {
          "internalType": "uint256",
          "name": "_burnFee",
          "type": "uint256"
        },
        {
          "internalType": "uint256",
          "name": "_marketingFee",
          "type": "uint256"
        },
        {
          "internalType": "uint256",
          "name": "_feeDenominator",
          "type": "uint256"
        }
      ],
      "name": "setFees",
      "outputs": [],
      "stateMutability": "nonpayable",
      "type": "function"
    },
    {
      "inputs": [
        {
          "internalType": "address",
          "name": "_autoLiquidityReceiver",
          "type": "address"
        },
        {
          "internalType": "address",
          "name": "_marketingFeeReceiver",
          "type": "address"
        }
      ],
      "name": "setFeeReceivers",
      "outputs": [],
      "stateMutability": "nonpayable",
      "type": "function"
    },
    {
      "inputs": [
        {
          "internalType": "bool",
          "name": "_enabled",
          "type": "bool"
        },
        {
          "internalType": "uint256",
          "name": "_amount",
          "type": "uint256"
        }
      ],
      "name": "setSwapBackSettings",
      "outputs": [],
      "stateMutability": "nonpayable",
      "type": "function"
    },
    {
      "inputs": [
        {
          "internalType": "uint256",
          "name": "_amount",
          "type": "uint256"
        }
      ],
      "name": "setTradeSwapVolume",
      "outputs": [],
      "stateMutability": "nonpayable",
      "type": "function"
    },
    {
      "inputs": [
        {
          "internalType": "uint256",
          "name": "_target",
          "type": "uint256"
        },
        {
          "internalType": "uint256",
          "name": "_denominator",
          "type": "uint256"
        }
      ],
      "name": "setTargetLiquidity",
      "outputs": [],
      "stateMutability": "nonpayable",
      "type": "function"
    },
    {
      "inputs": [
        {
          "internalType": "uint256",
          "name": "_minPeriod",
          "type": "uint256"
        },
        {
          "internalType": "uint256",
          "name": "_minDistribution",
          "type": "uint256"
        }
      ],
      "name": "setDistributionCriteria",
      "outputs": [],
      "stateMutability": "nonpayable",
      "type": "function"
    },
    {
      "inputs": [
        {
          "internalType": "uint256",
          "name": "_lottoShare",
          "type": "uint256"
        },
        {
          "internalType": "uint256",
          "name": "_marketingShare",
          "type": "uint256"
        }
      ],
      "name": "setFeeShares",
      "outputs": [],
      "stateMutability": "nonpayable",
      "type": "function"
    },
    {
      "inputs": [
        {
          "internalType": "uint256",
          "name": "gas",
          "type": "uint256"
        }
      ],
      "name": "setDistributorGasSettings",
      "outputs": [],
      "stateMutability": "nonpayable",
      "type": "function"
    },
    {
      "inputs": [
        {
          "internalType": "uint256",
          "name": "_minimumTokenBalanceForDividends",
          "type": "uint256"
        }
      ],
      "name": "setMinimumTokenBalanceForDividends",
      "outputs": [],
      "stateMutability": "nonpayable",
      "type": "function"
    },
    {
      "inputs": [
        {
          "internalType": "uint256",
          "name": "maxWalletToken",
          "type": "uint256"
        }
      ],
      "name": "setMaxWalletToken",
      "outputs": [],
      "stateMutability": "nonpayable",
      "type": "function"
    },
    {
      "inputs": [
        {
          "internalType": "uint256",
          "name": "maxTxAmount",
          "type": "uint256"
        }
      ],
      "name": "setMaxTxAmount",
      "outputs": [],
      "stateMutability": "nonpayable",
      "type": "function"
    },
    {
      "inputs": [],
      "name": "getCirculatingSupply",
      "outputs": [
        {
          "internalType": "uint256",
          "name": "",
          "type": "uint256"
        }
      ],
      "stateMutability": "view",
      "type": "function"
    },
    {
      "inputs": [
        {
          "internalType": "uint256",
          "name": "accuracy",
          "type": "uint256"
        }
      ],
      "name": "getLiquidityBacking",
      "outputs": [
        {
          "internalType": "uint256",
          "name": "",
          "type": "uint256"
        }
      ],
      "stateMutability": "view",
      "type": "function"
    },
    {
      "inputs": [
        {
          "internalType": "uint256",
          "name": "target",
          "type": "uint256"
        },
        {
          "internalType": "uint256",
          "name": "accuracy",
          "type": "uint256"
        }
      ],
      "name": "isOverLiquified",
      "outputs": [
        {
          "internalType": "bool",
          "name": "",
          "type": "bool"
        }
      ],
      "stateMutability": "view",
      "type": "function"
    },
    {
      "inputs": [],
      "name": "triggerRewards",
      "outputs": [],
      "stateMutability": "nonpayable",
      "type": "function"
    },
    {
      "inputs": [],
      "name": "enableTrading",
      "outputs": [],
      "stateMutability": "nonpayable",
      "type": "function"
    },
    {
      "inputs": [
        {
          "internalType": "address payable",
          "name": "recipient",
          "type": "address"
        },
        {
          "internalType": "uint256",
          "name": "amount",
          "type": "uint256"
        }
      ],
      "name": "transferETH",
      "outputs": [],
      "stateMutability": "nonpayable",
      "type": "function"
    },
    {
      "inputs": [
        {
          "internalType": "address",
          "name": "_tokenAddr",
          "type": "address"
        },
        {
          "internalType": "address",
          "name": "_to",
          "type": "address"
        },
        {
          "internalType": "uint256",
          "name": "_amount",
          "type": "uint256"
        }
      ],
      "name": "transferAnyERC20Tokens",
      "outputs": [],
      "stateMutability": "nonpayable",
      "type": "function"
    }
  ],
  "bytecode": "0x608060405273c02aaa39b223fe8d0a0e5c4f27ead9083c756cc2600160006101000a81548173ffffffffffffffffffffffffffffffffffffffff021916908373ffffffffffffffffffffffffffffffffffffffff16021790555073c778417e063141139fce010982780140aa0cd5ab600260006101000a81548173ffffffffffffffffffffffffffffffffffffffff021916908373ffffffffffffffffffffffffffffffffffffffff16021790555061dead600360006101000a81548173ffffffffffffffffffffffffffffffffffffffff021916908373ffffffffffffffffffffffffffffffffffffffff1602179055506000600460006101000a81548173ffffffffffffffffffffffffffffffffffffffff021916908373ffffffffffffffffffffffffffffffffffffffff160217905550737488d2d66bdaef675fbccc5266d44c6eb313a97b600560006101000a81548173ffffffffffffffffffffffffffffffffffffffff021916908373ffffffffffffffffffffffffffffffffffffffff1602179055506012600a62000198919062000e5f565b621e8480620001a8919062000f9c565b60065560646001600654620001be919062000f9c565b620001ca919062000dcc565b60075560646005600654620001e0919062000f9c565b620001ec919062000dcc565b6008556005600e556005600f556001601055600b6011556103e8601255601960155560646016556078601a556064601b55610708601d556000601e60006101000a81548160ff021916908315150217905550620493e06025556001602660006101000a81548160ff0219169083151502179055506005602660016101000a81548160ff021916908360ff1602179055506001602860006101000a81548160ff021916908315150217905550629896806032620002ad62000b5560201b60201c565b620002b9919062000f9c565b620002c5919062000dcc565b602955629896806064620002de62000b5560201b60201c565b620002ea919062000f9c565b620002f6919062000dcc565b602a556000602c60016101000a81548160ff0219169083151502179055506012600a62000324919062000e5f565b62030d4062000334919062000f9c565b602d553480156200034457600080fd5b50620003656200035962000bdd60201b60201c565b62000be560201b60201c565b737a250d5630b4cf539739df2c5dacb4c659f2488d601760006101000a81548173ffffffffffffffffffffffffffffffffffffffff021916908373ffffffffffffffffffffffffffffffffffffffff160217905550601760009054906101000a900473ffffffffffffffffffffffffffffffffffffffff1673ffffffffffffffffffffffffffffffffffffffff1663c45a01556040518163ffffffff1660e01b815260040160206040518083038186803b1580156200042357600080fd5b505afa15801562000438573d6000803e3d6000fd5b505050506040513d601f19601f820116820180604052508101906200045e919062000d17565b73ffffffffffffffffffffffffffffffffffffffff1663c9c65396600260009054906101000a900473ffffffffffffffffffffffffffffffffffffffff16306040518363ffffffff1660e01b8152600401620004bc92919062000d82565b602060405180830381600087803b158015620004d757600080fd5b505af1158015620004ec573d6000803e3d6000fd5b505050506040513d601f19601f8201168201806040525081019062000512919062000d17565b601860006101000a81548173ffffffffffffffffffffffffffffffffffffffff021916908373ffffffffffffffffffffffffffffffffffffffff1602179055506000600a60003073ffffffffffffffffffffffffffffffffffffffff1673ffffffffffffffffffffffffffffffffffffffff1681526020019081526020016000206000601760009054906101000a900473ffffffffffffffffffffffffffffffffffffffff1673ffffffffffffffffffffffffffffffffffffffff1673ffffffffffffffffffffffffffffffffffffffff16815260200190815260200160002081905550601760009054906101000a900473ffffffffffffffffffffffffffffffffffffffff16604051620006279062000cf2565b62000633919062000d65565b604051809103906000f08015801562000650573d6000803e3d6000fd5b50602460006101000a81548173ffffffffffffffffffffffffffffffffffffffff021916908373ffffffffffffffffffffffffffffffffffffffff1602179055506001600b60003373ffffffffffffffffffffffffffffffffffffffff1673ffffffffffffffffffffffffffffffffffffffff16815260200190815260200160002060006101000a81548160ff0219169083151502179055506001600c60003373ffffffffffffffffffffffffffffffffffffffff1673ffffffffffffffffffffffffffffffffffffffff16815260200190815260200160002060006101000a81548160ff0219169083151502179055506001600c6000601760009054906101000a900473ffffffffffffffffffffffffffffffffffffffff1673ffffffffffffffffffffffffffffffffffffffff1673ffffffffffffffffffffffffffffffffffffffff16815260200190815260200160002060006101000a81548160ff0219169083151502179055506001600c6000601860009054906101000a900473ffffffffffffffffffffffffffffffffffffffff1673ffffffffffffffffffffffffffffffffffffffff1673ffffffffffffffffffffffffffffffffffffffff16815260200190815260200160002060006101000a81548160ff0219169083151502179055506001600d6000601860009054906101000a900473ffffffffffffffffffffffffffffffffffffffff1673ffffffffffffffffffffffffffffffffffffffff1673ffffffffffffffffffffffffffffffffffffffff16815260200190815260200160002060006101000a81548160ff0219169083151502179055506001600d60003073ffffffffffffffffffffffffffffffffffffffff1673ffffffffffffffffffffffffffffffffffffffff16815260200190815260200160002060006101000a81548160ff0219169083151502179055506001600d6000600360009054906101000a900473ffffffffffffffffffffffffffffffffffffffff1673ffffffffffffffffffffffffffffffffffffffff1673ffffffffffffffffffffffffffffffffffffffff16815260200190815260200160002060006101000a81548160ff0219169083151502179055506001600d6000600460009054906101000a900473ffffffffffffffffffffffffffffffffffffffff1673ffffffffffffffffffffffffffffffffffffffff1673ffffffffffffffffffffffffffffffffffffffff16815260200190815260200160002060006101000a81548160ff02191690831515021790555033601360006101000a81548173ffffffffffffffffffffffffffffffffffffffff021916908373ffffffffffffffffffffffffffffffffffffffff160217905550600560009054906101000a900473ffffffffffffffffffffffffffffffffffffffff16601460006101000a81548173ffffffffffffffffffffffffffffffffffffffff021916908373ffffffffffffffffffffffffffffffffffffffff160217905550600654600960003373ffffffffffffffffffffffffffffffffffffffff1673ffffffffffffffffffffffffffffffffffffffff168152602001908152602001600020819055503373ffffffffffffffffffffffffffffffffffffffff16600073ffffffffffffffffffffffffffffffffffffffff167fddf252ad1be2c89b69c2b068fc378daa952ba7f163c4a11628f55a4df523b3ef60065460405162000b47919062000daf565b60405180910390a362001108565b600062000b8a600460009054906101000a900473ffffffffffffffffffffffffffffffffffffffff1662000ca960201b60201c565b62000bbd600360009054906101000a900473ffffffffffffffffffffffffffffffffffffffff1662000ca960201b60201c565b60065462000bcc919062000ffd565b62000bd8919062000ffd565b905090565b600033905090565b60008060009054906101000a900473ffffffffffffffffffffffffffffffffffffffff169050816000806101000a81548173ffffffffffffffffffffffffffffffffffffffff021916908373ffffffffffffffffffffffffffffffffffffffff1602179055508173ffffffffffffffffffffffffffffffffffffffff168173ffffffffffffffffffffffffffffffffffffffff167f8be0079c531659141344cd1fd0a4f28419497f9722a3daafe3b4186f6b6457e060405160405180910390a35050565b6000600960008373ffffffffffffffffffffffffffffffffffffffff1673ffffffffffffffffffffffffffffffffffffffff168152602001908152602001600020549050919050565b611da780620067e883390190565b60008151905062000d1181620010ee565b92915050565b60006020828403121562000d2a57600080fd5b600062000d3a8482850162000d00565b91505092915050565b62000d4e8162001038565b82525050565b62000d5f816200106c565b82525050565b600060208201905062000d7c600083018462000d43565b92915050565b600060408201905062000d99600083018562000d43565b62000da8602083018462000d43565b9392505050565b600060208201905062000dc6600083018462000d54565b92915050565b600062000dd9826200106c565b915062000de6836200106c565b92508262000df95762000df8620010b2565b5b828204905092915050565b6000808291508390505b600185111562000e565780860481111562000e2e5762000e2d62001083565b5b600185161562000e3e5780820291505b808102905062000e4e85620010e1565b945062000e0e565b94509492505050565b600062000e6c826200106c565b915062000e798362001076565b925062000ea87fffffffffffffffffffffffffffffffffffffffffffffffffffffffffffffffff848462000eb0565b905092915050565b60008262000ec2576001905062000f95565b8162000ed2576000905062000f95565b816001811462000eeb576002811462000ef65762000f2c565b600191505062000f95565b60ff84111562000f0b5762000f0a62001083565b5b8360020a91508482111562000f255762000f2462001083565b5b5062000f95565b5060208310610133831016604e8410600b841016171562000f665782820a90508381111562000f605762000f5f62001083565b5b62000f95565b62000f75848484600162000e04565b9250905081840481111562000f8f5762000f8e62001083565b5b81810290505b9392505050565b600062000fa9826200106c565b915062000fb6836200106c565b9250817fffffffffffffffffffffffffffffffffffffffffffffffffffffffffffffffff048311821515161562000ff25762000ff162001083565b5b828202905092915050565b60006200100a826200106c565b915062001017836200106c565b9250828210156200102d576200102c62001083565b5b828203905092915050565b600062001045826200104c565b9050919050565b600073ffffffffffffffffffffffffffffffffffffffff82169050919050565b6000819050919050565b600060ff82169050919050565b7f4e487b7100000000000000000000000000000000000000000000000000000000600052601160045260246000fd5b7f4e487b7100000000000000000000000000000000000000000000000000000000600052601260045260246000fd5b60008160011c9050919050565b620010f98162001038565b81146200110557600080fd5b50565b6156d080620011186000396000f3fe6080604052600436106103905760003560e01c8063722b62ad116101dc578063bf56b37111610102578063e96fada2116100a0578063f418e7761161006f578063f418e77614610d07578063f708a64f14610d30578063f84ba65d14610d59578063f887ea4014610d8257610397565b8063e96fada214610c4d578063ec28438a14610c78578063f1f3bca314610ca1578063f2fde38b14610cde57610397565b8063d51ed1c8116100dc578063d51ed1c814610b7f578063d806d12f14610bbc578063dd62ed3e14610be7578063df20fd4914610c2457610397565b8063bf56b37114610afe578063bfe1092814610b29578063ca33e64c14610b5457610397565b80638b122d381161017a578063a4b45c0011610149578063a4b45c0014610a56578063a8aa1b3114610a7f578063a9059cbb14610aaa578063b210b06d14610ae757610397565b80638b122d38146109ae5780638da5cb5b146109d757806391d55f4114610a0257806395d89b4114610a2b57610397565b80637d1db4a5116101b65780637d1db4a51461091857806382334b9414610943578063893d20e81461096c5780638a8c523c1461099757610397565b8063722b62ad1461089957806378109e54146108c45780637b1a4909146108ef57610397565b8063313ce567116102c15780635ebf4db91161025f5780636a395ccb1161022e5780636a395ccb146107f15780636ddd17131461081a57806370a0823114610845578063715018a61461088257610397565b80635ebf4db91461074b578063617fe0ed14610774578063658d4b7f1461079f57806366f13ae4146107c857610397565b80633f1653461161029b5780633f165346146106a35780634130d230146106cc5780634ada218b146106e3578063571ac8b01461070e57610397565b8063313ce5671461062257806335574b181461064d5780633bb8a8d41461067857610397565b80631ce991351161032e5780632375ce40116103085780632375ce401461056857806323b872dd146105915780632b112e49146105ce5780632d48e896146105f957610397565b80631ce99135146104e95780631df4ccfc14610514578063201e79911461053f57610397565b806306fdde031161036a57806306fdde0314610419578063095ea7b3146104445780631161ae391461048157806318160ddd146104be57610397565b80630445b6671461039c578063048c7baf146103c757806304a66b48146103f057610397565b3661039757005b600080fd5b3480156103a857600080fd5b506103b1610dad565b6040516103be91906152ad565b60405180910390f35b3480156103d357600080fd5b506103ee60048036038101906103e991906146e3565b610db3565b005b3480156103fc57600080fd5b5061041760048036038101906104129190614885565b610e7f565b005b34801561042557600080fd5b5061042e610f5b565b60405161043b91906150eb565b60405180910390f35b34801561045057600080fd5b5061046b60048036038101906104669190614619565b610f98565b604051610478919061504e565b60405180910390f35b34801561048d57600080fd5b506104a860048036038101906104a391906147ab565b61108a565b6040516104b5919061504e565b60405180910390f35b3480156104ca57600080fd5b506104d361109f565b6040516104e091906152ad565b60405180910390f35b3480156104f557600080fd5b506104fe6110a9565b60405161050b91906152ad565b60405180910390f35b34801561052057600080fd5b506105296110af565b60405161053691906152ad565b60405180910390f35b34801561054b57600080fd5b50610566600480360381019061056191906147ab565b6110b5565b005b34801561057457600080fd5b5061058f600480360381019061058a91906147e7565b611143565b005b34801561059d57600080fd5b506105b860048036038101906105b3919061458e565b6111fd565b6040516105c5919061504e565b60405180910390f35b3480156105da57600080fd5b506105e361139f565b6040516105f091906152ad565b60405180910390f35b34801561060557600080fd5b50610620600480360381019061061b91906147ab565b611413565b005b34801561062e57600080fd5b50610637611522565b604051610644919061534b565b60405180910390f35b34801561065957600080fd5b5061066261152b565b60405161066f91906152ad565b60405180910390f35b34801561068457600080fd5b5061068d611531565b60405161069a919061504e565b60405180910390f35b3480156106af57600080fd5b506106ca60048036038101906106c59190614746565b611544565b005b3480156106d857600080fd5b506106e1611664565b005b3480156106ef57600080fd5b506106f8611771565b604051610705919061504e565b60405180910390f35b34801561071a57600080fd5b50610735600480360381019061073091906144ed565b611784565b604051610742919061504e565b60405180910390f35b34801561075757600080fd5b50610772600480360381019061076d9190614746565b611798565b005b34801561078057600080fd5b5061078961181e565b604051610796919061504e565b60405180910390f35b3480156107ab57600080fd5b506107c660048036038101906107c191906145dd565b611831565b005b3480156107d457600080fd5b506107ef60048036038101906107ea91906147ab565b611908565b005b3480156107fd57600080fd5b506108186004803603810190610813919061458e565b611a66565b005b34801561082657600080fd5b5061082f611c22565b60405161083c919061504e565b60405180910390f35b34801561085157600080fd5b5061086c600480360381019061086791906144ed565b611c35565b60405161087991906152ad565b60405180910390f35b34801561088e57600080fd5b50610897611c7e565b005b3480156108a557600080fd5b506108ae611d06565b6040516108bb919061534b565b60405180910390f35b3480156108d057600080fd5b506108d9611d19565b6040516108e691906152ad565b60405180910390f35b3480156108fb57600080fd5b5061091660048036038101906109119190614516565b611d1f565b005b34801561092457600080fd5b5061092d611eda565b60405161093a91906152ad565b60405180910390f35b34801561094f57600080fd5b5061096a6004803603810190610965919061476f565b611ee0565b005b34801561097857600080fd5b50610981611fd3565b60405161098e9190614f80565b60405180910390f35b3480156109a357600080fd5b506109ac611fe2565b005b3480156109ba57600080fd5b506109d560048036038101906109d091906145dd565b6120bb565b005b3480156109e357600080fd5b506109ec6122d3565b6040516109f99190614f80565b60405180910390f35b348015610a0e57600080fd5b50610a296004803603810190610a249190614746565b6122fc565b005b348015610a3757600080fd5b50610a4061239b565b604051610a4d91906150eb565b60405180910390f35b348015610a6257600080fd5b50610a7d6004803603810190610a789190614552565b6123d8565b005b348015610a8b57600080fd5b50610a946124da565b604051610aa19190614f80565b60405180910390f35b348015610ab657600080fd5b50610ad16004803603810190610acc9190614619565b612500565b604051610ade919061504e565b60405180910390f35b348015610af357600080fd5b50610afc612515565b005b348015610b0a57600080fd5b50610b1361259b565b604051610b2091906152ad565b60405180910390f35b348015610b3557600080fd5b50610b3e6125a1565b604051610b4b9190615069565b60405180910390f35b348015610b6057600080fd5b50610b696125c7565b604051610b769190614f80565b60405180910390f35b348015610b8b57600080fd5b50610ba66004803603810190610ba19190614746565b6125ed565b604051610bb391906152ad565b60405180910390f35b348015610bc857600080fd5b50610bd161264a565b604051610bde91906152ad565b60405180910390f35b348015610bf357600080fd5b50610c0e6004803603810190610c099190614552565b6126c5565b604051610c1b91906152ad565b60405180910390f35b348015610c3057600080fd5b50610c4b6004803603810190610c4691906146a7565b61274c565b005b348015610c5957600080fd5b50610c6261280d565b604051610c6f9190614f80565b60405180910390f35b348015610c8457600080fd5b50610c9f6004803603810190610c9a9190614746565b612833565b005b348015610cad57600080fd5b50610cc86004803603810190610cc39190614655565b6128d2565b604051610cd591906152ad565b60405180910390f35b348015610cea57600080fd5b50610d056004803603810190610d0091906144ed565b612955565b005b348015610d1357600080fd5b50610d2e6004803603810190610d299190614746565b612a4d565b005b348015610d3c57600080fd5b50610d576004803603810190610d5291906145dd565b612af3565b005b348015610d6557600080fd5b50610d806004803603810190610d7b91906145dd565b612dc7565b005b348015610d8e57600080fd5b50610d97612e9e565b604051610da49190615084565b60405180910390f35b60295481565b610dbb612ec4565b73ffffffffffffffffffffffffffffffffffffffff16610dd96122d3565b73ffffffffffffffffffffffffffffffffffffffff1614610e2f576040517f08c379a0000000000000000000000000000000000000000000000000000000008152600401610e269061522d565b60405180910390fd5b83601e60006101000a81548160ff02191690831515021790555082601f819055506000602081905550606482610e65919061541c565b602181905550806022819055504360238190555050505050565b610e87612ec4565b73ffffffffffffffffffffffffffffffffffffffff16610ea56122d3565b73ffffffffffffffffffffffffffffffffffffffff1614610efb576040517f08c379a0000000000000000000000000000000000000000000000000000000008152600401610ef29061522d565b60405180910390fd5b84600e8190555082600f8190555081838587610f1791906153c6565b610f2191906153c6565b610f2b91906153c6565b601181905550806012819055506004601254610f47919061541c565b60115410610f5457600080fd5b5050505050565b60606040518060400160405280600a81526020017f4368656e67546f6b656e00000000000000000000000000000000000000000000815250905090565b600081600a60003373ffffffffffffffffffffffffffffffffffffffff1673ffffffffffffffffffffffffffffffffffffffff16815260200190815260200160002060008573ffffffffffffffffffffffffffffffffffffffff1673ffffffffffffffffffffffffffffffffffffffff168152602001908152602001600020819055508273ffffffffffffffffffffffffffffffffffffffff163373ffffffffffffffffffffffffffffffffffffffff167f8c5be1e5ebec7d5bd14f71427d1e84f3dd0314c0f7b2291e5b200ac8c7c3b9258460405161107891906152ad565b60405180910390a36001905092915050565b600082611096836125ed565b11905092915050565b6000600654905090565b602a5481565b60115481565b6110bd612ec4565b73ffffffffffffffffffffffffffffffffffffffff166110db6122d3565b73ffffffffffffffffffffffffffffffffffffffff1614611131576040517f08c379a00000000000000000000000000000000000000000000000000000000081526004016111289061522d565b60405180910390fd5b81601581905550806016819055505050565b61114b612ec4565b73ffffffffffffffffffffffffffffffffffffffff166111696122d3565b73ffffffffffffffffffffffffffffffffffffffff16146111bf576040517f08c379a00000000000000000000000000000000000000000000000000000000081526004016111b69061522d565b60405180910390fd5b600282846111cd919061541c565b111580156111da57508183115b6111e357600080fd5b82601a8190555081601b8190555080601d81905550505050565b600080600a60008673ffffffffffffffffffffffffffffffffffffffff1673ffffffffffffffffffffffffffffffffffffffff16815260200190815260200160002060003373ffffffffffffffffffffffffffffffffffffffff1673ffffffffffffffffffffffffffffffffffffffff168152602001908152602001600020541461138b5781600a60008673ffffffffffffffffffffffffffffffffffffffff1673ffffffffffffffffffffffffffffffffffffffff16815260200190815260200160002060003373ffffffffffffffffffffffffffffffffffffffff1673ffffffffffffffffffffffffffffffffffffffff1681526020019081526020016000205461130a91906154a7565b600a60008673ffffffffffffffffffffffffffffffffffffffff1673ffffffffffffffffffffffffffffffffffffffff16815260200190815260200160002060003373ffffffffffffffffffffffffffffffffffffffff1673ffffffffffffffffffffffffffffffffffffffff168152602001908152602001600020819055505b611396848484612ecc565b90509392505050565b60006113cc600460009054906101000a900473ffffffffffffffffffffffffffffffffffffffff16611c35565b6113f7600360009054906101000a900473ffffffffffffffffffffffffffffffffffffffff16611c35565b60065461140491906154a7565b61140e91906154a7565b905090565b61141b612ec4565b73ffffffffffffffffffffffffffffffffffffffff166114396122d3565b73ffffffffffffffffffffffffffffffffffffffff161461148f576040517f08c379a00000000000000000000000000000000000000000000000000000000081526004016114869061522d565b60405180910390fd5b602460009054906101000a900473ffffffffffffffffffffffffffffffffffffffff1673ffffffffffffffffffffffffffffffffffffffff16632d48e89683836040518363ffffffff1660e01b81526004016114ec929190615322565b600060405180830381600087803b15801561150657600080fd5b505af115801561151a573d6000803e3d6000fd5b505050505050565b60006012905090565b602b5481565b601e60009054906101000a900460ff1681565b61154c612ec4565b73ffffffffffffffffffffffffffffffffffffffff1661156a6122d3565b73ffffffffffffffffffffffffffffffffffffffff16146115c0576040517f08c379a00000000000000000000000000000000000000000000000000000000081526004016115b79061522d565b60405180910390fd5b62030d4081101580156115d657506207a1208111155b611615576040517f08c379a000000000000000000000000000000000000000000000000000000000815260040161160c9061514d565b60405180910390fd5b60255481141561165a576040517f08c379a00000000000000000000000000000000000000000000000000000000081526004016116519061526d565b60405180910390fd5b8060258190555050565b61166c612ec4565b73ffffffffffffffffffffffffffffffffffffffff1661168a6122d3565b73ffffffffffffffffffffffffffffffffffffffff16146116e0576040517f08c379a00000000000000000000000000000000000000000000000000000000081526004016116d79061522d565b60405180910390fd5b602460009054906101000a900473ffffffffffffffffffffffffffffffffffffffff1673ffffffffffffffffffffffffffffffffffffffff1663ffb2c4796025546040518263ffffffff1660e01b815260040161173d91906152ad565b600060405180830381600087803b15801561175757600080fd5b505af115801561176b573d6000803e3d6000fd5b50505050565b602c60019054906101000a900460ff1681565b6000611791826000610f98565b9050919050565b6117a0612ec4565b73ffffffffffffffffffffffffffffffffffffffff166117be6122d3565b73ffffffffffffffffffffffffffffffffffffffff1614611814576040517f08c379a000000000000000000000000000000000000000000000000000000000815260040161180b9061522d565b60405180910390fd5b80602d8190555050565b602660009054906101000a900460ff1681565b611839612ec4565b73ffffffffffffffffffffffffffffffffffffffff166118576122d3565b73ffffffffffffffffffffffffffffffffffffffff16146118ad576040517f08c379a00000000000000000000000000000000000000000000000000000000081526004016118a49061522d565b60405180910390fd5b80600b60008473ffffffffffffffffffffffffffffffffffffffff1673ffffffffffffffffffffffffffffffffffffffff16815260200190815260200160002060006101000a81548160ff0219169083151502179055505050565b611910612ec4565b73ffffffffffffffffffffffffffffffffffffffff1661192e6122d3565b73ffffffffffffffffffffffffffffffffffffffff1614611984576040517f08c379a000000000000000000000000000000000000000000000000000000000815260040161197b9061522d565b60405180910390fd5b6032821080156119945750603281105b6119d3576040517f08c379a00000000000000000000000000000000000000000000000000000000081526004016119ca9061516d565b60405180910390fd5b602460009054906101000a900473ffffffffffffffffffffffffffffffffffffffff1673ffffffffffffffffffffffffffffffffffffffff166366f13ae483836040518363ffffffff1660e01b8152600401611a30929190615322565b600060405180830381600087803b158015611a4a57600080fd5b505af1158015611a5e573d6000803e3d6000fd5b505050505050565b611a6e612ec4565b73ffffffffffffffffffffffffffffffffffffffff16611a8c6122d3565b73ffffffffffffffffffffffffffffffffffffffff1614611ae2576040517f08c379a0000000000000000000000000000000000000000000000000000000008152600401611ad99061522d565b60405180910390fd5b3073ffffffffffffffffffffffffffffffffffffffff168373ffffffffffffffffffffffffffffffffffffffff161415611b51576040517f08c379a0000000000000000000000000000000000000000000000000000000008152600401611b48906151ed565b60405180910390fd5b8273ffffffffffffffffffffffffffffffffffffffff1663a9059cbb83836040518363ffffffff1660e01b8152600401611b8c929190614fc4565b602060405180830381600087803b158015611ba657600080fd5b505af1158015611bba573d6000803e3d6000fd5b505050506040513d601f19601f82011682018060405250810190611bde919061467e565b611c1d576040517f08c379a0000000000000000000000000000000000000000000000000000000008152600401611c14906151ad565b60405180910390fd5b505050565b602860009054906101000a900460ff1681565b6000600960008373ffffffffffffffffffffffffffffffffffffffff1673ffffffffffffffffffffffffffffffffffffffff168152602001908152602001600020549050919050565b611c86612ec4565b73ffffffffffffffffffffffffffffffffffffffff16611ca46122d3565b73ffffffffffffffffffffffffffffffffffffffff1614611cfa576040517f08c379a0000000000000000000000000000000000000000000000000000000008152600401611cf19061522d565b60405180910390fd5b611d046000613714565b565b602660019054906101000a900460ff1681565b60085481565b611d27612ec4565b73ffffffffffffffffffffffffffffffffffffffff16611d456122d3565b73ffffffffffffffffffffffffffffffffffffffff1614611d9b576040517f08c379a0000000000000000000000000000000000000000000000000000000008152600401611d929061522d565b60405180910390fd5b678ac7230489e80000811115611de6576040517f08c379a0000000000000000000000000000000000000000000000000000000008152600401611ddd9061528d565b60405180910390fd5b80471015611e29576040517f08c379a0000000000000000000000000000000000000000000000000000000008152600401611e209061518d565b60405180910390fd5b60008273ffffffffffffffffffffffffffffffffffffffff1682604051611e4f90614f6b565b60006040518083038185875af1925050503d8060008114611e8c576040519150601f19603f3d011682016040523d82523d6000602084013e611e91565b606091505b5050905080611ed5576040517f08c379a0000000000000000000000000000000000000000000000000000000008152600401611ecc9061520d565b60405180910390fd5b505050565b60075481565b611ee8612ec4565b73ffffffffffffffffffffffffffffffffffffffff16611f066122d3565b73ffffffffffffffffffffffffffffffffffffffff1614611f5c576040517f08c379a0000000000000000000000000000000000000000000000000000000008152600401611f539061522d565b60405180910390fd5b611f8882600360009054906101000a900473ffffffffffffffffffffffffffffffffffffffff166137d8565b8015611fcf5742601c819055507f39d2389ec5c1fa77b2c0d374bc61b6d7bd97ccba280fcdeb4e9c7644898d7c3a601d54604051611fc691906152ad565b60405180910390a15b5050565b6000611fdd6122d3565b905090565b611fea612ec4565b73ffffffffffffffffffffffffffffffffffffffff166120086122d3565b73ffffffffffffffffffffffffffffffffffffffff161461205e576040517f08c379a00000000000000000000000000000000000000000000000000000000081526004016120559061522d565b60405180910390fd5b6001602c60016101000a81548160ff021916908315150217905550612081613a28565b7fbeda7dca7bc1b3e80b871f4818129ec73b771581f803d553aeb3484098e5f65a60016040516120b1919061504e565b60405180910390a1565b6120c3612ec4565b73ffffffffffffffffffffffffffffffffffffffff166120e16122d3565b73ffffffffffffffffffffffffffffffffffffffff1614612137576040517f08c379a000000000000000000000000000000000000000000000000000000000815260040161212e9061522d565b60405180910390fd5b3073ffffffffffffffffffffffffffffffffffffffff168273ffffffffffffffffffffffffffffffffffffffff16141580156121c15750601860009054906101000a900473ffffffffffffffffffffffffffffffffffffffff1673ffffffffffffffffffffffffffffffffffffffff168273ffffffffffffffffffffffffffffffffffffffff1614155b6121ca57600080fd5b80600b60008473ffffffffffffffffffffffffffffffffffffffff1673ffffffffffffffffffffffffffffffffffffffff16815260200190815260200160002060006101000a81548160ff02191690831515021790555080600c60008473ffffffffffffffffffffffffffffffffffffffff1673ffffffffffffffffffffffffffffffffffffffff16815260200190815260200160002060006101000a81548160ff02191690831515021790555080600d60008473ffffffffffffffffffffffffffffffffffffffff1673ffffffffffffffffffffffffffffffffffffffff16815260200190815260200160002060006101000a81548160ff0219169083151502179055505050565b60008060009054906101000a900473ffffffffffffffffffffffffffffffffffffffff16905090565b612304612ec4565b73ffffffffffffffffffffffffffffffffffffffff166123226122d3565b73ffffffffffffffffffffffffffffffffffffffff1614612378576040517f08c379a000000000000000000000000000000000000000000000000000000000815260040161236f9061522d565b60405180910390fd5b606481600654612388919061544d565b612392919061541c565b60088190555050565b60606040518060400160405280600381526020017f43544e0000000000000000000000000000000000000000000000000000000000815250905090565b6123e0612ec4565b73ffffffffffffffffffffffffffffffffffffffff166123fe6122d3565b73ffffffffffffffffffffffffffffffffffffffff1614612454576040517f08c379a000000000000000000000000000000000000000000000000000000000815260040161244b9061522d565b60405180910390fd5b81601360006101000a81548173ffffffffffffffffffffffffffffffffffffffff021916908373ffffffffffffffffffffffffffffffffffffffff16021790555080601460006101000a81548173ffffffffffffffffffffffffffffffffffffffff021916908373ffffffffffffffffffffffffffffffffffffffff1602179055505050565b601860009054906101000a900473ffffffffffffffffffffffffffffffffffffffff1681565b600061250d338484612ecc565b905092915050565b61251d612ec4565b73ffffffffffffffffffffffffffffffffffffffff1661253b6122d3565b73ffffffffffffffffffffffffffffffffffffffff1614612591576040517f08c379a00000000000000000000000000000000000000000000000000000000081526004016125889061522d565b60405180910390fd5b6000601c81905550565b60195481565b602460009054906101000a900473ffffffffffffffffffffffffffffffffffffffff1681565b601360009054906101000a900473ffffffffffffffffffffffffffffffffffffffff1681565b60006125f761139f565b6002612624601860009054906101000a900473ffffffffffffffffffffffffffffffffffffffff16611c35565b61262e919061544d565b83612639919061544d565b612643919061541c565b9050919050565b60008042601d54601c5461265e91906153c6565b61266891906154a7565b90506000601154601b54601a54601154612682919061544d565b61268c919061541c565b61269691906154a7565b9050601d5482826126a7919061544d565b6126b1919061541c565b6011546126be91906153c6565b9250505090565b6000600a60008473ffffffffffffffffffffffffffffffffffffffff1673ffffffffffffffffffffffffffffffffffffffff16815260200190815260200160002060008373ffffffffffffffffffffffffffffffffffffffff1673ffffffffffffffffffffffffffffffffffffffff16815260200190815260200160002054905092915050565b612754612ec4565b73ffffffffffffffffffffffffffffffffffffffff166127726122d3565b73ffffffffffffffffffffffffffffffffffffffff16146127c8576040517f08c379a00000000000000000000000000000000000000000000000000000000081526004016127bf9061522d565b60405180910390fd5b81602860006101000a81548160ff02191690831515021790555062989680816127ef61139f565b6127f9919061544d565b612803919061541c565b6029819055505050565b601460009054906101000a900473ffffffffffffffffffffffffffffffffffffffff1681565b61283b612ec4565b73ffffffffffffffffffffffffffffffffffffffff166128596122d3565b73ffffffffffffffffffffffffffffffffffffffff16146128af576040517f08c379a00000000000000000000000000000000000000000000000000000000081526004016128a69061522d565b60405180910390fd5b6064816006546128bf919061544d565b6128c9919061541c565b60078190555050565b60004360026019546128e491906153c6565b106128ff5760016012546128f891906154a7565b9050612950565b81801561291a575042601d54601c5461291891906153c6565b115b1561292e5761292761264a565b9050612950565b811561294a57600160115461294391906153c6565b9050612950565b60115490505b919050565b61295d612ec4565b73ffffffffffffffffffffffffffffffffffffffff1661297b6122d3565b73ffffffffffffffffffffffffffffffffffffffff16146129d1576040517f08c379a00000000000000000000000000000000000000000000000000000000081526004016129c89061522d565b60405180910390fd5b600073ffffffffffffffffffffffffffffffffffffffff168173ffffffffffffffffffffffffffffffffffffffff161415612a41576040517f08c379a0000000000000000000000000000000000000000000000000000000008152600401612a389061512d565b60405180910390fd5b612a4a81613714565b50565b612a55612ec4565b73ffffffffffffffffffffffffffffffffffffffff16612a736122d3565b73ffffffffffffffffffffffffffffffffffffffff1614612ac9576040517f08c379a0000000000000000000000000000000000000000000000000000000008152600401612ac09061522d565b60405180910390fd5b6298968081612ad661139f565b612ae0919061544d565b612aea919061541c565b602a8190555050565b612afb612ec4565b73ffffffffffffffffffffffffffffffffffffffff16612b196122d3565b73ffffffffffffffffffffffffffffffffffffffff1614612b6f576040517f08c379a0000000000000000000000000000000000000000000000000000000008152600401612b669061522d565b60405180910390fd5b3073ffffffffffffffffffffffffffffffffffffffff168273ffffffffffffffffffffffffffffffffffffffff1614158015612bf95750601860009054906101000a900473ffffffffffffffffffffffffffffffffffffffff1673ffffffffffffffffffffffffffffffffffffffff168273ffffffffffffffffffffffffffffffffffffffff1614155b612c0257600080fd5b80600d60008473ffffffffffffffffffffffffffffffffffffffff1673ffffffffffffffffffffffffffffffffffffffff16815260200190815260200160002060006101000a81548160ff0219169083151502179055508015612cf457602460009054906101000a900473ffffffffffffffffffffffffffffffffffffffff1673ffffffffffffffffffffffffffffffffffffffff166314b6ca968360006040518363ffffffff1660e01b8152600401612cbd929190614f9b565b600060405180830381600087803b158015612cd757600080fd5b505af1158015612ceb573d6000803e3d6000fd5b50505050612dc3565b602460009054906101000a900473ffffffffffffffffffffffffffffffffffffffff1673ffffffffffffffffffffffffffffffffffffffff166314b6ca9683600960008673ffffffffffffffffffffffffffffffffffffffff1673ffffffffffffffffffffffffffffffffffffffff168152602001908152602001600020546040518363ffffffff1660e01b8152600401612d90929190614fc4565b600060405180830381600087803b158015612daa57600080fd5b505af1158015612dbe573d6000803e3d6000fd5b505050505b5050565b612dcf612ec4565b73ffffffffffffffffffffffffffffffffffffffff16612ded6122d3565b73ffffffffffffffffffffffffffffffffffffffff1614612e43576040517f08c379a0000000000000000000000000000000000000000000000000000000008152600401612e3a9061522d565b60405180910390fd5b80600c60008473ffffffffffffffffffffffffffffffffffffffff1673ffffffffffffffffffffffffffffffffffffffff16815260200190815260200160002060006101000a81548160ff0219169083151502179055505050565b601760009054906101000a900473ffffffffffffffffffffffffffffffffffffffff1681565b600033905090565b6000602c60019054906101000a900460ff1680612f325750600b60008573ffffffffffffffffffffffffffffffffffffffff1673ffffffffffffffffffffffffffffffffffffffff16815260200190815260200160002060009054906101000a900460ff165b80612f865750600b60008473ffffffffffffffffffffffffffffffffffffffff1673ffffffffffffffffffffffffffffffffffffffff16815260200190815260200160002060009054906101000a900460ff165b612fc5576040517f08c379a0000000000000000000000000000000000000000000000000000000008152600401612fbc9061510d565b60405180910390fd5b600c60008573ffffffffffffffffffffffffffffffffffffffff1673ffffffffffffffffffffffffffffffffffffffff16815260200190815260200160002060009054906101000a900460ff16806130665750600c60008473ffffffffffffffffffffffffffffffffffffffff1673ffffffffffffffffffffffffffffffffffffffff16815260200190815260200160002060009054906101000a900460ff165b806130bd575060085482600960008673ffffffffffffffffffffffffffffffffffffffff1673ffffffffffffffffffffffffffffffffffffffff168152602001908152602001600020546130ba91906153c6565b11155b6130fc576040517f08c379a00000000000000000000000000000000000000000000000000000000081526004016130f39061524d565b60405180910390fd5b600c60008573ffffffffffffffffffffffffffffffffffffffff1673ffffffffffffffffffffffffffffffffffffffff16815260200190815260200160002060009054906101000a900460ff168061319d5750600c60008473ffffffffffffffffffffffffffffffffffffffff1673ffffffffffffffffffffffffffffffffffffffff16815260200190815260200160002060009054906101000a900460ff165b806131aa57506007548211155b6131e9576040517f08c379a00000000000000000000000000000000000000000000000000000000081526004016131e0906151cd565b60405180910390fd5b602c60009054906101000a900460ff161561321057613209848484613a31565b905061370d565b602c60019054906101000a900460ff16801561322f5750602a54602b54115b156132615761323c613bbf565b1561324a57613249613c96565b5b613252614171565b156132605761325f614224565b5b5b600d60008573ffffffffffffffffffffffffffffffffffffffff1673ffffffffffffffffffffffffffffffffffffffff16815260200190815260200160002060009054906101000a900460ff1661338457602460009054906101000a900473ffffffffffffffffffffffffffffffffffffffff1673ffffffffffffffffffffffffffffffffffffffff166314b6ca9685600960008873ffffffffffffffffffffffffffffffffffffffff1673ffffffffffffffffffffffffffffffffffffffff168152602001908152602001600020546040518363ffffffff1660e01b815260040161334e929190614fc4565b600060405180830381600087803b15801561336857600080fd5b505af1925050508015613379575060015b61338257613383565b5b5b600d60008473ffffffffffffffffffffffffffffffffffffffff1673ffffffffffffffffffffffffffffffffffffffff16815260200190815260200160002060009054906101000a900460ff166134a757602460009054906101000a900473ffffffffffffffffffffffffffffffffffffffff1673ffffffffffffffffffffffffffffffffffffffff166314b6ca9684600960008773ffffffffffffffffffffffffffffffffffffffff1673ffffffffffffffffffffffffffffffffffffffff168152602001908152602001600020546040518363ffffffff1660e01b8152600401613471929190614fc4565b600060405180830381600087803b15801561348b57600080fd5b505af192505050801561349c575060015b6134a5576134a6565b5b5b602c60019054906101000a900460ff161561356357602460009054906101000a900473ffffffffffffffffffffffffffffffffffffffff1673ffffffffffffffffffffffffffffffffffffffff1663ffb2c4796025546040518263ffffffff1660e01b815260040161351991906152ad565b600060405180830381600087803b15801561353357600080fd5b505af1925050508015613544575060015b61354d5761354e565b5b81602b5461355c91906153c6565b602b819055505b81600960008673ffffffffffffffffffffffffffffffffffffffff1673ffffffffffffffffffffffffffffffffffffffff168152602001908152602001600020546135ae91906154a7565b600960008673ffffffffffffffffffffffffffffffffffffffff1673ffffffffffffffffffffffffffffffffffffffff1681526020019081526020016000208190555060006135fc85614299565b6136065782613612565b6136118585856142f0565b5b905080600960008673ffffffffffffffffffffffffffffffffffffffff1673ffffffffffffffffffffffffffffffffffffffff1681526020019081526020016000205461365f91906153c6565b600960008673ffffffffffffffffffffffffffffffffffffffff1673ffffffffffffffffffffffffffffffffffffffff168152602001908152602001600020819055508373ffffffffffffffffffffffffffffffffffffffff168573ffffffffffffffffffffffffffffffffffffffff167fddf252ad1be2c89b69c2b068fc378daa952ba7f163c4a11628f55a4df523b3ef836040516136ff91906152ad565b60405180910390a360019150505b9392505050565b60008060009054906101000a900473ffffffffffffffffffffffffffffffffffffffff169050816000806101000a81548173ffffffffffffffffffffffffffffffffffffffff021916908373ffffffffffffffffffffffffffffffffffffffff1602179055508173ffffffffffffffffffffffffffffffffffffffff168173ffffffffffffffffffffffffffffffffffffffff167f8be0079c531659141344cd1fd0a4f28419497f9722a3daafe3b4186f6b6457e060405160405180910390a35050565b6001602c60006101000a81548160ff0219169083151502179055506000600267ffffffffffffffff811115613836577f4e487b7100000000000000000000000000000000000000000000000000000000600052604160045260246000fd5b6040519080825280602002602001820160405280156138645781602001602082028036833780820191505090505b509050600260009054906101000a900473ffffffffffffffffffffffffffffffffffffffff16816000815181106138c4577f4e487b7100000000000000000000000000000000000000000000000000000000600052603260045260246000fd5b602002602001019073ffffffffffffffffffffffffffffffffffffffff16908173ffffffffffffffffffffffffffffffffffffffff16815250503081600181518110613939577f4e487b7100000000000000000000000000000000000000000000000000000000600052603260045260246000fd5b602002602001019073ffffffffffffffffffffffffffffffffffffffff16908173ffffffffffffffffffffffffffffffffffffffff1681525050601760009054906101000a900473ffffffffffffffffffffffffffffffffffffffff1673ffffffffffffffffffffffffffffffffffffffff1663b6f9de958460008486426040518663ffffffff1660e01b81526004016139d6949392919061509f565b6000604051808303818588803b1580156139ef57600080fd5b505af1158015613a03573d6000803e3d6000fd5b5050505050506000602c60006101000a81548160ff0219169083151502179055505050565b43601981905550565b600081600960008673ffffffffffffffffffffffffffffffffffffffff1673ffffffffffffffffffffffffffffffffffffffff16815260200190815260200160002054613a7e91906154a7565b600960008673ffffffffffffffffffffffffffffffffffffffff1673ffffffffffffffffffffffffffffffffffffffff1681526020019081526020016000208190555081600960008573ffffffffffffffffffffffffffffffffffffffff1673ffffffffffffffffffffffffffffffffffffffff16815260200190815260200160002054613b0c91906153c6565b600960008573ffffffffffffffffffffffffffffffffffffffff1673ffffffffffffffffffffffffffffffffffffffff168152602001908152602001600020819055508273ffffffffffffffffffffffffffffffffffffffff168473ffffffffffffffffffffffffffffffffffffffff167fddf252ad1be2c89b69c2b068fc378daa952ba7f163c4a11628f55a4df523b3ef84604051613bac91906152ad565b60405180910390a3600190509392505050565b6000601860009054906101000a900473ffffffffffffffffffffffffffffffffffffffff1673ffffffffffffffffffffffffffffffffffffffff163373ffffffffffffffffffffffffffffffffffffffff1614158015613c2c5750602c60009054906101000a900460ff16155b8015613c445750602860009054906101000a900460ff165b8015613c915750602954600960003073ffffffffffffffffffffffffffffffffffffffff1673ffffffffffffffffffffffffffffffffffffffff1681526020019081526020016000205410155b905090565b6001602c60006101000a81548160ff0219169083151502179055506000613cc160155460165461108a565b613ccd57600e54613cd0565b60005b90506000600260115483602954613ce7919061544d565b613cf1919061541c565b613cfb919061541c565b9050600081602954613d0d91906154a7565b90506000600267ffffffffffffffff811115613d52577f4e487b7100000000000000000000000000000000000000000000000000000000600052604160045260246000fd5b604051908082528060200260200182016040528015613d805781602001602082028036833780820191505090505b5090503081600081518110613dbe577f4e487b7100000000000000000000000000000000000000000000000000000000600052603260045260246000fd5b602002602001019073ffffffffffffffffffffffffffffffffffffffff16908173ffffffffffffffffffffffffffffffffffffffff1681525050600260009054906101000a900473ffffffffffffffffffffffffffffffffffffffff1681600181518110613e55577f4e487b7100000000000000000000000000000000000000000000000000000000600052603260045260246000fd5b602002602001019073ffffffffffffffffffffffffffffffffffffffff16908173ffffffffffffffffffffffffffffffffffffffff16815250506000479050601760009054906101000a900473ffffffffffffffffffffffffffffffffffffffff1673ffffffffffffffffffffffffffffffffffffffff1663791ac9478460008530426040518663ffffffff1660e01b8152600401613ef89594939291906152c8565b600060405180830381600087803b158015613f1257600080fd5b505af1158015613f26573d6000803e3d6000fd5b5050505060008147613f3891906154a7565b90506000600287613f49919061541c565b601154613f5691906154a7565b905060006002828985613f69919061544d565b613f73919061541c565b613f7d919061541c565b9050600082600f5485613f90919061544d565b613f9a919061541c565b9050602460009054906101000a900473ffffffffffffffffffffffffffffffffffffffff1673ffffffffffffffffffffffffffffffffffffffff1663d0e30db0826040518263ffffffff1660e01b81526004016000604051808303818588803b15801561400657600080fd5b505af193505050508015614018575060015b61402157614022565b5b600088111561414357601760009054906101000a900473ffffffffffffffffffffffffffffffffffffffff1673ffffffffffffffffffffffffffffffffffffffff1663f305d71983308b600080601360009054906101000a900473ffffffffffffffffffffffffffffffffffffffff16426040518863ffffffff1660e01b81526004016140b496959493929190614fed565b6060604051808303818588803b1580156140cd57600080fd5b505af11580156140e1573d6000803e3d6000fd5b50505050506040513d601f19601f820116820180604052508101906141069190614836565b5050507f424db2872186fa7e7afa7a5e902ed3b49a2ef19c2f5431e672462495dd6b4506828960405161413a929190615322565b60405180910390a15b6000602b819055505050505050505050506000602c60006101000a81548160ff021916908315150217905550565b6000601860009054906101000a900473ffffffffffffffffffffffffffffffffffffffff1673ffffffffffffffffffffffffffffffffffffffff163373ffffffffffffffffffffffffffffffffffffffff16141580156141de5750602c60009054906101000a900460ff16155b80156141f65750601e60009054906101000a900460ff165b801561421157504360225460235461420e91906153c6565b11155b801561421f57506021544710155b905090565b614252602154600360009054906101000a900473ffffffffffffffffffffffffffffffffffffffff166137d8565b4360238190555060215460205461426991906153c6565b602081905550601f546020541115614297576000601e60006101000a81548160ff0219169083151502179055505b565b6000600b60008373ffffffffffffffffffffffffffffffffffffffff1673ffffffffffffffffffffffffffffffffffffffff16815260200190815260200160002060009054906101000a900460ff16159050919050565b60008060125461434f601860009054906101000a900473ffffffffffffffffffffffffffffffffffffffff1673ffffffffffffffffffffffffffffffffffffffff168673ffffffffffffffffffffffffffffffffffffffff16146128d2565b8461435a919061544d565b614364919061541c565b905080600960003073ffffffffffffffffffffffffffffffffffffffff1673ffffffffffffffffffffffffffffffffffffffff168152602001908152602001600020546143b191906153c6565b600960003073ffffffffffffffffffffffffffffffffffffffff1673ffffffffffffffffffffffffffffffffffffffff168152602001908152602001600020819055503073ffffffffffffffffffffffffffffffffffffffff168573ffffffffffffffffffffffffffffffffffffffff167fddf252ad1be2c89b69c2b068fc378daa952ba7f163c4a11628f55a4df523b3ef8360405161445191906152ad565b60405180910390a3808361446591906154a7565b9150509392505050565b60008135905061447e8161563e565b92915050565b60008135905061449381615655565b92915050565b6000813590506144a88161566c565b92915050565b6000815190506144bd8161566c565b92915050565b6000813590506144d281615683565b92915050565b6000815190506144e781615683565b92915050565b6000602082840312156144ff57600080fd5b600061450d8482850161446f565b91505092915050565b6000806040838503121561452957600080fd5b600061453785828601614484565b9250506020614548858286016144c3565b9150509250929050565b6000806040838503121561456557600080fd5b60006145738582860161446f565b92505060206145848582860161446f565b9150509250929050565b6000806000606084860312156145a357600080fd5b60006145b18682870161446f565b93505060206145c28682870161446f565b92505060406145d3868287016144c3565b9150509250925092565b600080604083850312156145f057600080fd5b60006145fe8582860161446f565b925050602061460f85828601614499565b9150509250929050565b6000806040838503121561462c57600080fd5b600061463a8582860161446f565b925050602061464b858286016144c3565b9150509250929050565b60006020828403121561466757600080fd5b600061467584828501614499565b91505092915050565b60006020828403121561469057600080fd5b600061469e848285016144ae565b91505092915050565b600080604083850312156146ba57600080fd5b60006146c885828601614499565b92505060206146d9858286016144c3565b9150509250929050565b600080600080608085870312156146f957600080fd5b600061470787828801614499565b9450506020614718878288016144c3565b9350506040614729878288016144c3565b925050606061473a878288016144c3565b91505092959194509250565b60006020828403121561475857600080fd5b6000614766848285016144c3565b91505092915050565b6000806040838503121561478257600080fd5b6000614790858286016144c3565b92505060206147a185828601614499565b9150509250929050565b600080604083850312156147be57600080fd5b60006147cc858286016144c3565b92505060206147dd858286016144c3565b9150509250929050565b6000806000606084860312156147fc57600080fd5b600061480a868287016144c3565b935050602061481b868287016144c3565b925050604061482c868287016144c3565b9150509250925092565b60008060006060848603121561484b57600080fd5b6000614859868287016144d8565b935050602061486a868287016144d8565b925050604061487b868287016144d8565b9150509250925092565b600080600080600060a0868803121561489d57600080fd5b60006148ab888289016144c3565b95505060206148bc888289016144c3565b94505060406148cd888289016144c3565b93505060606148de888289016144c3565b92505060806148ef888289016144c3565b9150509295509295909350565b60006149088383614914565b60208301905092915050565b61491d816154db565b82525050565b61492c816154db565b82525050565b600061493d82615376565b6149478185615399565b935061495283615366565b8060005b8381101561498357815161496a88826148fc565b97506149758361538c565b925050600181019050614956565b5085935050505092915050565b614999816154ff565b82525050565b6149a881615542565b82525050565b6149b781615566565b82525050565b6149c68161558a565b82525050565b60006149d782615381565b6149e181856153b5565b93506149f181856020860161559c565b6149fa8161562d565b840191505092915050565b6000614a126041836153b5565b91507f4368656e67546f6b656e3a3a2054726164696e6720697320726573747269637460008301527f656420756e74696c206c697175696469747920686173206265656e206164646560208301527f64000000000000000000000000000000000000000000000000000000000000006040830152606082019050919050565b6000614a9e6026836153b5565b91507f4f776e61626c653a206e6577206f776e657220697320746865207a65726f206160008301527f64647265737300000000000000000000000000000000000000000000000000006020830152604082019050919050565b6000614b046041836153b5565b91507f4368656e67546f6b656e3a3a20676173466f7250726f63657373696e67206d7560008301527f7374206265206265747765656e203230302c30303020616e64203530302c303060208301527f30000000000000000000000000000000000000000000000000000000000000006040830152606082019050919050565b6000614b906028836153b5565b91507f4368656e67546f6b656e3a3a2046656573206d7573742062652062656c6f772060008301527f35302520656163680000000000000000000000000000000000000000000000006020830152604082019050919050565b6000614bf6602a836153b5565b91507f4368656e67546f6b656e3a3a20416464726573733a20696e737566666963696560008301527f6e742062616c616e6365000000000000000000000000000000000000000000006020830152604082019050919050565b6000614c5c601c836153b5565b91507f4368656e67546f6b656e3a3a205472616e73666572206661696c6564000000006000830152602082019050919050565b6000614c9c6024836153b5565b91507f4368656e67546f6b656e3a3a207472616e73666572206c696d6974206578636560008301527f65646564000000000000000000000000000000000000000000000000000000006020830152604082019050919050565b6000614d026023836153b5565b91507f4368656e67546f6b656e3a3a2043616e742072656d6f7665204368656e67546f60008301527f6b656e00000000000000000000000000000000000000000000000000000000006020830152604082019050919050565b6000614d686047836153b5565b91507f4368656e67546f6b656e3a3a20416464726573733a20756e61626c6520746f2060008301527f73656e642076616c75652c20726563697069656e74206d61792068617665207260208301527f65766572746564000000000000000000000000000000000000000000000000006040830152606082019050919050565b6000614df46020836153b5565b91507f4f776e61626c653a2063616c6c6572206973206e6f7420746865206f776e65726000830152602082019050919050565b6000614e34602c836153b5565b91507f4368656e67546f6b656e3a3a20726563697069656e742077616c6c6574206c6960008301527f6d697420657863656564656400000000000000000000000000000000000000006020830152604082019050919050565b6000614e9a6000836153aa565b9150600082019050919050565b6000614eb46039836153b5565b91507f4368656e67546f6b656e3a3a2043616e6e6f742075706461746520676173466f60008301527f7250726f63657373696e6720746f2073616d652076616c7565000000000000006020830152604082019050919050565b6000614f1a6017836153b5565b91507f4368656e67546f6b656e3a3a20313020455448204d61780000000000000000006000830152602082019050919050565b614f568161552b565b82525050565b614f6581615535565b82525050565b6000614f7682614e8d565b9150819050919050565b6000602082019050614f956000830184614923565b92915050565b6000604082019050614fb06000830185614923565b614fbd60208301846149bd565b9392505050565b6000604082019050614fd96000830185614923565b614fe66020830184614f4d565b9392505050565b600060c0820190506150026000830189614923565b61500f6020830188614f4d565b61501c60408301876149bd565b61502960608301866149bd565b6150366080830185614923565b61504360a0830184614f4d565b979650505050505050565b60006020820190506150636000830184614990565b92915050565b600060208201905061507e600083018461499f565b92915050565b600060208201905061509960008301846149ae565b92915050565b60006080820190506150b460008301876149bd565b81810360208301526150c68186614932565b90506150d56040830185614923565b6150e26060830184614f4d565b95945050505050565b6000602082019050818103600083015261510581846149cc565b905092915050565b6000602082019050818103600083015261512681614a05565b9050919050565b6000602082019050818103600083015261514681614a91565b9050919050565b6000602082019050818103600083015261516681614af7565b9050919050565b6000602082019050818103600083015261518681614b83565b9050919050565b600060208201905081810360008301526151a681614be9565b9050919050565b600060208201905081810360008301526151c681614c4f565b9050919050565b600060208201905081810360008301526151e681614c8f565b9050919050565b6000602082019050818103600083015261520681614cf5565b9050919050565b6000602082019050818103600083015261522681614d5b565b9050919050565b6000602082019050818103600083015261524681614de7565b9050919050565b6000602082019050818103600083015261526681614e27565b9050919050565b6000602082019050818103600083015261528681614ea7565b9050919050565b600060208201905081810360008301526152a681614f0d565b9050919050565b60006020820190506152c26000830184614f4d565b92915050565b600060a0820190506152dd6000830188614f4d565b6152ea60208301876149bd565b81810360408301526152fc8186614932565b905061530b6060830185614923565b6153186080830184614f4d565b9695505050505050565b60006040820190506153376000830185614f4d565b6153446020830184614f4d565b9392505050565b60006020820190506153606000830184614f5c565b92915050565b6000819050602082019050919050565b600081519050919050565b600081519050919050565b6000602082019050919050565b600082825260208201905092915050565b600081905092915050565b600082825260208201905092915050565b60006153d18261552b565b91506153dc8361552b565b9250827fffffffffffffffffffffffffffffffffffffffffffffffffffffffffffffffff03821115615411576154106155cf565b5b828201905092915050565b60006154278261552b565b91506154328361552b565b925082615442576154416155fe565b5b828204905092915050565b60006154588261552b565b91506154638361552b565b9250817fffffffffffffffffffffffffffffffffffffffffffffffffffffffffffffffff048311821515161561549c5761549b6155cf565b5b828202905092915050565b60006154b28261552b565b91506154bd8361552b565b9250828210156154d0576154cf6155cf565b5b828203905092915050565b60006154e68261550b565b9050919050565b60006154f88261550b565b9050919050565b60008115159050919050565b600073ffffffffffffffffffffffffffffffffffffffff82169050919050565b6000819050919050565b600060ff82169050919050565b600061554d82615554565b9050919050565b600061555f8261550b565b9050919050565b600061557182615578565b9050919050565b60006155838261550b565b9050919050565b60006155958261552b565b9050919050565b60005b838110156155ba57808201518184015260208101905061559f565b838111156155c9576000848401525b50505050565b7f4e487b7100000000000000000000000000000000000000000000000000000000600052601160045260246000fd5b7f4e487b7100000000000000000000000000000000000000000000000000000000600052601260045260246000fd5b6000601f19601f8301169050919050565b615647816154db565b811461565257600080fd5b50565b61565e816154ed565b811461566957600080fd5b50565b615675816154ff565b811461568057600080fd5b50565b61568c8161552b565b811461569757600080fd5b5056fea2646970667358221220b651a3585746d03a13472577ac805284b1061168ffd5b0fd68c1ce84b45ee6e464736f6c63430008000033608060405273c778417e063141139fce010982780140aa0cd5ab600160006101000a81548173ffffffffffffffffffffffffffffffffffffffff021916908373ffffffffffffffffffffffffffffffffffffffff16021790555073c778417e063141139fce010982780140aa0cd5ab600260006101000a81548173ffffffffffffffffffffffffffffffffffffffff021916908373ffffffffffffffffffffffffffffffffffffffff1602179055506ec097ce7bc90715b34b9f1000000000600c55610e10600d55678ac7230489e80000600e556024600f55601c601055348015620000ea57600080fd5b5060405162001da738038062001da7833981810160405281019062000110919062000201565b600073ffffffffffffffffffffffffffffffffffffffff168173ffffffffffffffffffffffffffffffffffffffff1614156200016157737a250d5630b4cf539739df2c5dacb4c659f2488d62000163565b805b600360006101000a81548173ffffffffffffffffffffffffffffffffffffffff021916908373ffffffffffffffffffffffffffffffffffffffff160217905550336000806101000a81548173ffffffffffffffffffffffffffffffffffffffff021916908373ffffffffffffffffffffffffffffffffffffffff160217905550506200027b565b600081519050620001fb8162000261565b92915050565b6000602082840312156200021457600080fd5b60006200022484828501620001ea565b91505092915050565b60006200023a8262000241565b9050919050565b600073ffffffffffffffffffffffffffffffffffffffff82169050919050565b6200026c816200022d565b81146200027857600080fd5b50565b611b1c806200028b6000396000f3fe6080604052600436106101095760003560e01c806375f0a87411610095578063e2d2e21911610064578063e2d2e2191461033c578063efca2eed14610367578063f0fc6bca14610392578063ffb2c479146103a9578063ffd49c84146103d257610109565b806375f0a8741461029d578063997664d7146102c8578063ce7c2ac2146102f3578063d0e30db01461033257610109565b80632d48e896116100dc5780632d48e896146101ca5780633a98ef39146101f35780634fab0ae81461021e57806366f13ae41461024957806374e706561461027257610109565b806309218ee71461010e57806311ce023d1461013957806314b6ca961461016457806328fd31981461018d575b600080fd5b34801561011a57600080fd5b506101236103fd565b604051610130919061182f565b60405180910390f35b34801561014557600080fd5b5061014e610403565b60405161015b919061182f565b60405180910390f35b34801561017057600080fd5b5061018b600480360381019061018691906115c5565b610409565b005b34801561019957600080fd5b506101b460048036038101906101af919061159c565b6106ba565b6040516101c1919061182f565b60405180910390f35b3480156101d657600080fd5b506101f160048036038101906101ec919061167c565b6107cd565b005b3480156101ff57600080fd5b50610208610837565b604051610215919061182f565b60405180910390f35b34801561022a57600080fd5b5061023361083d565b604051610240919061182f565b60405180910390f35b34801561025557600080fd5b50610270600480360381019061026b919061167c565b610843565b005b34801561027e57600080fd5b506102876108ad565b604051610294919061182f565b60405180910390f35b3480156102a957600080fd5b506102b26108b3565b6040516102bf91906117ab565b60405180910390f35b3480156102d457600080fd5b506102dd6108cb565b6040516102ea919061182f565b60405180910390f35b3480156102ff57600080fd5b5061031a6004803603810190610315919061159c565b6108d1565b6040516103299392919061184a565b60405180910390f35b61033a6108fb565b005b34801561034857600080fd5b50610351610bed565b60405161035e919061182f565b60405180910390f35b34801561037357600080fd5b5061037c610bf3565b604051610389919061182f565b60405180910390f35b34801561039e57600080fd5b506103a7610bf9565b005b3480156103b557600080fd5b506103d060048036038101906103cb919061162a565b610c04565b005b3480156103de57600080fd5b506103e7610dd6565b6040516103f4919061182f565b60405180910390f35b60105481565b600c5481565b60008054906101000a900473ffffffffffffffffffffffffffffffffffffffff1673ffffffffffffffffffffffffffffffffffffffff163373ffffffffffffffffffffffffffffffffffffffff161461046157600080fd5b6000600760008473ffffffffffffffffffffffffffffffffffffffff1673ffffffffffffffffffffffffffffffffffffffff1681526020019081526020016000206000015411156104b6576104b582610ddc565b5b60008111801561050857506000600760008473ffffffffffffffffffffffffffffffffffffffff1673ffffffffffffffffffffffffffffffffffffffff16815260200190815260200160002060000154145b1561051b5761051682611075565b61057d565b60008114801561056d57506000600760008473ffffffffffffffffffffffffffffffffffffffff1673ffffffffffffffffffffffffffffffffffffffff16815260200190815260200160002060000154115b1561057c5761057b82611124565b5b5b80600760008473ffffffffffffffffffffffffffffffffffffffff1673ffffffffffffffffffffffffffffffffffffffff168152602001908152602001600020600001546008546105ce919061197e565b6105d8919061189d565b60088190555080600760008473ffffffffffffffffffffffffffffffffffffffff1673ffffffffffffffffffffffffffffffffffffffff16815260200190815260200160002060000181905550610670600760008473ffffffffffffffffffffffffffffffffffffffff1673ffffffffffffffffffffffffffffffffffffffff168152602001908152602001600020600001546113c3565b600760008473ffffffffffffffffffffffffffffffffffffffff1673ffffffffffffffffffffffffffffffffffffffff168152602001908152602001600020600101819055505050565b600080600760008473ffffffffffffffffffffffffffffffffffffffff1673ffffffffffffffffffffffffffffffffffffffff16815260200190815260200160002060000154141561070f57600090506107c8565b600061075c600760008573ffffffffffffffffffffffffffffffffffffffff1673ffffffffffffffffffffffffffffffffffffffff168152602001908152602001600020600001546113c3565b90506000600760008573ffffffffffffffffffffffffffffffffffffffff1673ffffffffffffffffffffffffffffffffffffffff1681526020019081526020016000206001015490508082116107b7576000925050506107c8565b80826107c3919061197e565b925050505b919050565b60008054906101000a900473ffffffffffffffffffffffffffffffffffffffff1673ffffffffffffffffffffffffffffffffffffffff163373ffffffffffffffffffffffffffffffffffffffff161461082557600080fd5b81600d8190555080600e819055505050565b60085481565b600e5481565b60008054906101000a900473ffffffffffffffffffffffffffffffffffffffff1673ffffffffffffffffffffffffffffffffffffffff163373ffffffffffffffffffffffffffffffffffffffff161461089b57600080fd5b81600f81905550806010819055505050565b600f5481565b737488d2d66bdaef675fbccc5266d44c6eb313a97b81565b60095481565b60076020528060005260406000206000915090508060000154908060010154908060020154905083565b60008054906101000a900473ffffffffffffffffffffffffffffffffffffffff1673ffffffffffffffffffffffffffffffffffffffff163373ffffffffffffffffffffffffffffffffffffffff161461095357600080fd5b6000349050600060105460648361096a91906118f3565b6109749190611924565b90506109b381737488d2d66bdaef675fbccc5266d44c6eb313a97b73ffffffffffffffffffffffffffffffffffffffff166113e790919063ffffffff16565b60004790506000600160009054906101000a900473ffffffffffffffffffffffffffffffffffffffff1673ffffffffffffffffffffffffffffffffffffffff166370a08231306040518263ffffffff1660e01b8152600401610a1591906117ab565b60206040518083038186803b158015610a2d57600080fd5b505afa158015610a41573d6000803e3d6000fd5b505050506040513d601f19601f82011682018060405250810190610a659190611653565b9050600260009054906101000a900473ffffffffffffffffffffffffffffffffffffffff1673ffffffffffffffffffffffffffffffffffffffff1663d0e30db0836040518263ffffffff1660e01b81526004016000604051808303818588803b158015610ad157600080fd5b505af1158015610ae5573d6000803e3d6000fd5b5050505050600081600160009054906101000a900473ffffffffffffffffffffffffffffffffffffffff1673ffffffffffffffffffffffffffffffffffffffff166370a08231306040518263ffffffff1660e01b8152600401610b4891906117ab565b60206040518083038186803b158015610b6057600080fd5b505afa158015610b74573d6000803e3d6000fd5b505050506040513d601f19601f82011682018060405250810190610b989190611653565b610ba2919061197e565b905080600954610bb2919061189d565b60098190555060085481600c54610bc99190611924565b610bd391906118f3565b600b54610be0919061189d565b600b819055505050505050565b600b5481565b600a5481565b610c0233610ddc565b565b60008054906101000a900473ffffffffffffffffffffffffffffffffffffffff1673ffffffffffffffffffffffffffffffffffffffff163373ffffffffffffffffffffffffffffffffffffffff1614610c5c57600080fd5b600060048054905090506000811415610c755750610dd3565b6000805a905060005b8483108015610c8c57508381105b15610dce578360115410610ca35760006011819055505b610d12600460115481548110610ce2577f4e487b7100000000000000000000000000000000000000000000000000000000600052603260045260246000fd5b9060005260206000200160009054906101000a900473ffffffffffffffffffffffffffffffffffffffff166114db565b15610d8757610d86600460115481548110610d56577f4e487b7100000000000000000000000000000000000000000000000000000000600052603260045260246000fd5b9060005260206000200160009054906101000a900473ffffffffffffffffffffffffffffffffffffffff16610ddc565b5b5a82610d93919061197e565b83610d9e919061189d565b92505a915060116000815480929190610db6906119fa565b91905055508080610dc6906119fa565b915050610c7e565b505050505b50565b600d5481565b6000600760008373ffffffffffffffffffffffffffffffffffffffff1673ffffffffffffffffffffffffffffffffffffffff168152602001908152602001600020600001541415610e2c57611072565b6000610e37826106ba565b905060008111156110705780600a54610e50919061189d565b600a81905550600160009054906101000a900473ffffffffffffffffffffffffffffffffffffffff1673ffffffffffffffffffffffffffffffffffffffff1663a9059cbb83836040518363ffffffff1660e01b8152600401610eb39291906117c6565b602060405180830381600087803b158015610ecd57600080fd5b505af1158015610ee1573d6000803e3d6000fd5b505050506040513d601f19601f82011682018060405250810190610f059190611601565b5042600660008473ffffffffffffffffffffffffffffffffffffffff1673ffffffffffffffffffffffffffffffffffffffff1681526020019081526020016000208190555080600760008473ffffffffffffffffffffffffffffffffffffffff1673ffffffffffffffffffffffffffffffffffffffff16815260200190815260200160002060020154610f98919061189d565b600760008473ffffffffffffffffffffffffffffffffffffffff1673ffffffffffffffffffffffffffffffffffffffff16815260200190815260200160002060020181905550611029600760008473ffffffffffffffffffffffffffffffffffffffff1673ffffffffffffffffffffffffffffffffffffffff168152602001908152602001600020600001546113c3565b600760008473ffffffffffffffffffffffffffffffffffffffff1673ffffffffffffffffffffffffffffffffffffffff168152602001908152602001600020600101819055505b505b50565b600480549050600560008373ffffffffffffffffffffffffffffffffffffffff1673ffffffffffffffffffffffffffffffffffffffff168152602001908152602001600020819055506004819080600181540180825580915050600190039060005260206000200160009091909190916101000a81548173ffffffffffffffffffffffffffffffffffffffff021916908373ffffffffffffffffffffffffffffffffffffffff16021790555050565b60046001600480549050611138919061197e565b8154811061116f577f4e487b7100000000000000000000000000000000000000000000000000000000600052603260045260246000fd5b9060005260206000200160009054906101000a900473ffffffffffffffffffffffffffffffffffffffff166004600560008473ffffffffffffffffffffffffffffffffffffffff1673ffffffffffffffffffffffffffffffffffffffff1681526020019081526020016000205481548110611213577f4e487b7100000000000000000000000000000000000000000000000000000000600052603260045260246000fd5b9060005260206000200160006101000a81548173ffffffffffffffffffffffffffffffffffffffff021916908373ffffffffffffffffffffffffffffffffffffffff160217905550600560008273ffffffffffffffffffffffffffffffffffffffff1673ffffffffffffffffffffffffffffffffffffffff1681526020019081526020016000205460056000600460016004805490506112b3919061197e565b815481106112ea577f4e487b7100000000000000000000000000000000000000000000000000000000600052603260045260246000fd5b9060005260206000200160009054906101000a900473ffffffffffffffffffffffffffffffffffffffff1673ffffffffffffffffffffffffffffffffffffffff1673ffffffffffffffffffffffffffffffffffffffff16815260200190815260200160002081905550600480548061138b577f4e487b7100000000000000000000000000000000000000000000000000000000600052603160045260246000fd5b6001900381819060005260206000200160006101000a81549073ffffffffffffffffffffffffffffffffffffffff0219169055905550565b6000600c54600b54836113d69190611924565b6113e091906118f3565b9050919050565b8047101561142a576040517f08c379a00000000000000000000000000000000000000000000000000000000081526004016114219061180f565b60405180910390fd5b60008273ffffffffffffffffffffffffffffffffffffffff168260405161145090611796565b60006040518083038185875af1925050503d806000811461148d576040519150601f19603f3d011682016040523d82523d6000602084013e611492565b606091505b50509050806114d6576040517f08c379a00000000000000000000000000000000000000000000000000000000081526004016114cd906117ef565b60405180910390fd5b505050565b600042600d54600660008573ffffffffffffffffffffffffffffffffffffffff1673ffffffffffffffffffffffffffffffffffffffff1681526020019081526020016000205461152b919061189d565b1080156115415750600e5461153f836106ba565b115b9050919050565b60008135905061155781611aa1565b92915050565b60008151905061156c81611ab8565b92915050565b60008135905061158181611acf565b92915050565b60008151905061159681611acf565b92915050565b6000602082840312156115ae57600080fd5b60006115bc84828501611548565b91505092915050565b600080604083850312156115d857600080fd5b60006115e685828601611548565b92505060206115f785828601611572565b9150509250929050565b60006020828403121561161357600080fd5b60006116218482850161155d565b91505092915050565b60006020828403121561163c57600080fd5b600061164a84828501611572565b91505092915050565b60006020828403121561166557600080fd5b600061167384828501611587565b91505092915050565b6000806040838503121561168f57600080fd5b600061169d85828601611572565b92505060206116ae85828601611572565b9150509250929050565b6116c1816119b2565b82525050565b60006116d4603a8361188c565b91507f416464726573733a20756e61626c6520746f2073656e642076616c75652c207260008301527f6563697069656e74206d617920686176652072657665727465640000000000006020830152604082019050919050565b600061173a601d8361188c565b91507f416464726573733a20696e73756666696369656e742062616c616e63650000006000830152602082019050919050565b600061177a600083611881565b9150600082019050919050565b611790816119f0565b82525050565b60006117a18261176d565b9150819050919050565b60006020820190506117c060008301846116b8565b92915050565b60006040820190506117db60008301856116b8565b6117e86020830184611787565b9392505050565b60006020820190508181036000830152611808816116c7565b9050919050565b600060208201905081810360008301526118288161172d565b9050919050565b60006020820190506118446000830184611787565b92915050565b600060608201905061185f6000830186611787565b61186c6020830185611787565b6118796040830184611787565b949350505050565b600081905092915050565b600082825260208201905092915050565b60006118a8826119f0565b91506118b3836119f0565b9250827fffffffffffffffffffffffffffffffffffffffffffffffffffffffffffffffff038211156118e8576118e7611a43565b5b828201905092915050565b60006118fe826119f0565b9150611909836119f0565b92508261191957611918611a72565b5b828204905092915050565b600061192f826119f0565b915061193a836119f0565b9250817fffffffffffffffffffffffffffffffffffffffffffffffffffffffffffffffff048311821515161561197357611972611a43565b5b828202905092915050565b6000611989826119f0565b9150611994836119f0565b9250828210156119a7576119a6611a43565b5b828203905092915050565b60006119bd826119d0565b9050919050565b60008115159050919050565b600073ffffffffffffffffffffffffffffffffffffffff82169050919050565b6000819050919050565b6000611a05826119f0565b91507fffffffffffffffffffffffffffffffffffffffffffffffffffffffffffffffff821415611a3857611a37611a43565b5b600182019050919050565b7f4e487b7100000000000000000000000000000000000000000000000000000000600052601160045260246000fd5b7f4e487b7100000000000000000000000000000000000000000000000000000000600052601260045260246000fd5b611aaa816119b2565b8114611ab557600080fd5b50565b611ac1816119c4565b8114611acc57600080fd5b50565b611ad8816119f0565b8114611ae357600080fd5b5056fea26469706673582212205ac77b1746df0ceca5ce532049cd29b5273c3d1d05140c91aaaf10fe72b3c1fc64736f6c63430008000033",
  "immutableReferences": {},
  "source": "// SPDX-License-Identifier: MIT\r\npragma solidity ^0.8.0;\r\n\r\nimport \"@openzeppelin/contracts/token/ERC20/IERC20.sol\";\r\nimport \"@openzeppelin/contracts/access/Ownable.sol\";\r\nimport \"./Address.sol\";\r\nimport \"./IChengFactory.sol\";\r\nimport \"./IChengRouter.sol\";\r\nimport \"./DividendDistributor.sol\";\r\n\r\n\r\n\r\ncontract ChengToken is IERC20, Ownable {\r\n    using Address for address;\r\n\r\n    address REWARD = 0xC02aaA39b223FE8D0A0e5C4F27eAD9083C756Cc2;\r\n    address WETH = 0xc778417E063141139Fce010982780140Aa0cD5Ab; \r\n    address DEAD = 0x000000000000000000000000000000000000dEaD;\r\n    address ZERO = 0x0000000000000000000000000000000000000000;\r\n    address MARKETING = 0x7488D2d66BdaEf675FBcCc5266d44C6EB313a97b; \r\n\r\n    string constant _name = \"ChengToken\";\r\n    string constant _symbol = \"CTN\";\r\n    uint8 constant _decimals = 18;\r\n\r\n    uint256 _totalSupply = 2000000 * (10 ** _decimals);\r\n    uint256 public _maxTxAmount = ( _totalSupply * 1 ) / 100;\r\n    uint256 public _maxWalletToken = ( _totalSupply * 5 ) / 100;\r\n\r\n    mapping (address => uint256) _balances;\r\n    mapping (address => mapping (address => uint256)) _allowances;\r\n\r\n    mapping (address => bool) isFeeExempt;\r\n    mapping (address => bool) isTxLimitExempt;\r\n    mapping (address => bool) isDividendExempt;\r\n\r\n    uint256 liquidityFee    = 5;\r\n    uint256 burnFee   = 5;\r\n    uint256 marketingFee    = 1;\r\n\r\n    uint256 public totalFee = 11;\r\n    uint256 feeDenominator  = 1000;\r\n\r\n    address public autoLiquidityReceiver;\r\n    address public marketingFeeReceiver; \r\n\r\n    uint256 targetLiquidity = 25;\r\n    uint256 targetLiquidityDenominator = 100;\r\n\r\n    IChengRouter public router;\r\n    address public pair;\r\n\r\n    uint256 public launchedAt;\r\n\r\n    uint256 buybackMultiplierNumerator = 120;\r\n    uint256 buybackMultiplierDenominator = 100;\r\n    uint256 buybackMultiplierTriggeredAt;\r\n    uint256 buybackMultiplierLength = 30 minutes;\r\n\r\n    bool public autoBuybackEnabled = false;\r\n    uint256 autoBuybackCap;\r\n    uint256 autoBuybackAccumulator;\r\n    uint256 autoBuybackAmount;\r\n    uint256 autoBuybackBlockPeriod;\r\n    uint256 autoBuybackBlockLast;\r\n\r\n    DividendDistributor public distributor;\r\n    uint256 distributorGas = 300000;\r\n    \r\n    bool public buyCooldownEnabled = true;\r\n    uint8 public cooldownTimerInterval = 5; \r\n    mapping (address => uint) private cooldownTimer;\r\n\r\n    bool public swapEnabled = true;\r\n    uint256 public swapThreshold = (getCirculatingSupply() * 50 ) / 10000000;\r\n    uint256 public tradeSwapVolume = (getCirculatingSupply() * 100 ) / 10000000;\r\n    uint256 public _tTradeCycle;\r\n    bool inSwap;\r\n\r\n    bool public tradingEnabled = false; //once enabled its final and cannot be changed\r\n\r\n    uint256 minimumTokenBalanceForDividends = 200000 * (10 ** _decimals); //must hold 200000+ tokens to receive shareholding in dividends\r\n\r\n    modifier swapping() { inSwap = true; _; inSwap = false; }\r\n\r\n    constructor () {\r\n        router = IChengRouter(0x7a250d5630B4cF539739dF2C5dAcb4c659F2488D); //uniswap\r\n        pair = IChengFactory(router.factory()).createPair(WETH, address(this));\r\n        _allowances[address(this)][address(router)] = uint256(0);\r\n\r\n        distributor = new DividendDistributor(address(router));\r\n\r\n        isFeeExempt[msg.sender] = true;\r\n        isTxLimitExempt[msg.sender] = true;\r\n        isTxLimitExempt[address(router)] = true;\r\n        isTxLimitExempt[pair] = true;\r\n        isDividendExempt[pair] = true;\r\n        isDividendExempt[address(this)] = true;\r\n        isDividendExempt[DEAD] = true;\r\n        isDividendExempt[ZERO] = true;\r\n        autoLiquidityReceiver = msg.sender;\r\n        marketingFeeReceiver = MARKETING;\r\n\r\n        _balances[msg.sender] = _totalSupply;\r\n        emit Transfer(address(0), msg.sender, _totalSupply);\r\n    }\r\n\r\n    receive() external payable { }\r\n\r\n    function totalSupply() external view override returns (uint256) { return _totalSupply; }\r\n    function decimals() external pure returns (uint8) { return _decimals; }\r\n    function symbol() external pure returns (string memory) { return _symbol; }\r\n    function name() external pure returns (string memory) { return _name; }\r\n    function getOwner() external view returns (address) { return owner(); }\r\n    function balanceOf(address account) public view override returns (uint256) { return _balances[account]; }\r\n    function allowance(address holder, address spender) external view override returns (uint256) { return _allowances[holder][spender]; }\r\n\r\n    function approve(address spender, uint256 amount) public override returns (bool) {\r\n        _allowances[msg.sender][spender] = amount;\r\n        emit Approval(msg.sender, spender, amount);\r\n        return true;\r\n    }\r\n\r\n    function approveMax(address spender) external returns (bool) {\r\n        return approve(spender, uint256(0));\r\n    }\r\n\r\n    function transfer(address recipient, uint256 amount) external override returns (bool) {\r\n        return _transferFrom(msg.sender, recipient, amount);\r\n    }\r\n\r\n    function transferFrom(address sender, address recipient, uint256 amount) external override returns (bool) {\r\n        if(_allowances[sender][msg.sender] != uint256(0)){\r\n            _allowances[sender][msg.sender] = _allowances[sender][msg.sender]-amount;\r\n        }\r\n\r\n        return _transferFrom(sender, recipient, amount);\r\n    }\r\n\r\n    function _transferFrom(address sender, address recipient, uint256 amount) internal returns (bool) {\r\n        require(tradingEnabled || isFeeExempt[sender] || isFeeExempt[recipient], \"ChengToken:: Trading is restricted until liquidity has been added\");\r\n        require(isTxLimitExempt[sender] || isTxLimitExempt[recipient] || _balances[recipient]+(amount) <= _maxWalletToken, \"ChengToken:: recipient wallet limit exceeded\");\r\n        require(isTxLimitExempt[sender] || isTxLimitExempt[recipient] || amount <= _maxTxAmount, \"ChengToken:: transfer limit exceeded\");\r\n\r\n        if(inSwap){ return _basicTransfer(sender, recipient, amount); }\r\n\r\n        //check tradeCycle is above the volume required\r\n        if(tradingEnabled && _tTradeCycle > tradeSwapVolume) {\r\n            if(shouldSwapBack()){ swapBack(); }\r\n            if(shouldAutoBuyback()){ triggerAutoBuyback(); }\r\n        }\r\n\r\n        if(!isDividendExempt[sender]){ try distributor.setShare(sender, _balances[sender]) {} catch {} }\r\n        if(!isDividendExempt[recipient]){ try distributor.setShare(recipient, _balances[recipient]) {} catch {} }\r\n\r\n        if(tradingEnabled) {\r\n            try distributor.process(distributorGas) {} catch {}\r\n            _tTradeCycle = _tTradeCycle+(amount);\r\n        }\r\n\r\n        _balances[sender] = _balances[sender]-amount;\r\n\r\n        uint256 amountReceived = shouldTakeFee(sender) ? takeFee(sender, recipient, amount) : amount;\r\n        _balances[recipient] = _balances[recipient]+(amountReceived); \r\n\r\n        emit Transfer(sender, recipient, amountReceived);\r\n        return true;\r\n    }\r\n\r\n    function _basicTransfer(address sender, address recipient, uint256 amount) internal returns (bool) {\r\n        _balances[sender] = _balances[sender]-amount;\r\n        _balances[recipient] = _balances[recipient]+(amount);\r\n        emit Transfer(sender, recipient, amount);\r\n        return true;\r\n    }\r\n\r\n    function shouldTakeFee(address sender) internal view returns (bool) {\r\n        return !isFeeExempt[sender];\r\n    }\r\n\r\n    function getTotalFee(bool selling) public view returns (uint256) {\r\n        if(launchedAt + 2 >= block.number){ return feeDenominator-(1); }\r\n        if(selling && buybackMultiplierTriggeredAt+(buybackMultiplierLength) > block.timestamp){ return getMultipliedFee(); }\r\n        if(selling) { return totalFee+(1); } //tax sellers 1% more than buyers\r\n        return totalFee;\r\n    }\r\n\r\n    function getMultipliedFee() public view returns (uint256) {\r\n        uint256 remainingTime = buybackMultiplierTriggeredAt+(buybackMultiplierLength)-(block.timestamp);\r\n        uint256 feeIncrease = totalFee*(buybackMultiplierNumerator)/(buybackMultiplierDenominator)-(totalFee);\r\n        return totalFee+(feeIncrease*(remainingTime)/(buybackMultiplierLength));\r\n    }\r\n\r\n    function takeFee(address sender, address receiver, uint256 amount) internal returns (uint256) {\r\n        uint256 feeAmount = amount*(getTotalFee(receiver == pair))/(feeDenominator);\r\n\r\n        _balances[address(this)] = _balances[address(this)]+(feeAmount);\r\n        emit Transfer(sender, address(this), feeAmount);\r\n\r\n        return amount-(feeAmount);\r\n    }\r\n\r\n    function shouldSwapBack() internal view returns (bool) {\r\n        return msg.sender != pair \r\n        && !inSwap\r\n        && swapEnabled\r\n        && _balances[address(this)] >= swapThreshold;\r\n    }\r\n\r\n    function swapBack() internal swapping {\r\n        uint256 dynamicLiquidityFee = isOverLiquified(targetLiquidity, targetLiquidityDenominator) ? 0 : liquidityFee;\r\n        uint256 amountToLiquify = swapThreshold*(dynamicLiquidityFee)/(totalFee)/(2);\r\n        uint256 amountToSwap = swapThreshold-(amountToLiquify);\r\n\r\n        address[] memory path = new address[](2);\r\n        path[0] = address(this);\r\n        path[1] = WETH;\r\n\r\n        uint256 balanceBefore = address(this).balance;\r\n\r\n        router.swapExactTokensForETHSupportingFeeOnTransferTokens(\r\n            amountToSwap,\r\n            0,\r\n            path,\r\n            address(this),\r\n            block.timestamp\r\n        );\r\n\r\n        uint256 amountREWARD = address(this).balance-(balanceBefore);\r\n\r\n        uint256 totalREWARDFee = totalFee-(dynamicLiquidityFee/(2));\r\n\r\n        uint256 amountREWARDLiquidity = amountREWARD*(dynamicLiquidityFee)/(totalREWARDFee)/(2);\r\n\r\n        uint256 amountREWARDReflection = amountREWARD*(burnFee)/(totalREWARDFee);\r\n    \r\n        try distributor.deposit{value: amountREWARDReflection}() {} catch {}\r\n    \r\n        if(amountToLiquify > 0){\r\n            router.addLiquidityETH{value: amountREWARDLiquidity}(\r\n                address(this),\r\n                amountToLiquify,\r\n                0,\r\n                0,\r\n                autoLiquidityReceiver,\r\n                block.timestamp\r\n            );\r\n            emit AutoLiquify(amountREWARDLiquidity, amountToLiquify);\r\n        }\r\n\r\n        _tTradeCycle = 0; //reset trade cycle as liquify has occurred\r\n    }\r\n\r\n    function shouldAutoBuyback() internal view returns (bool) {\r\n        return msg.sender != pair\r\n            && !inSwap\r\n            && autoBuybackEnabled\r\n            && autoBuybackBlockLast + autoBuybackBlockPeriod <= block.number\r\n            && address(this).balance >= autoBuybackAmount;\r\n    }\r\n\r\n    function triggerManualBuyback(uint256 amount, bool triggerBuybackMultiplier) external onlyOwner {\r\n        buyTokens(amount, DEAD);\r\n        if(triggerBuybackMultiplier){\r\n            buybackMultiplierTriggeredAt = block.timestamp;\r\n            emit BuybackMultiplierActive(buybackMultiplierLength);\r\n        }\r\n    }\r\n\r\n    function clearBuybackMultiplier() external onlyOwner {\r\n        buybackMultiplierTriggeredAt = 0;\r\n    }\r\n\r\n    function triggerAutoBuyback() internal {\r\n        buyTokens(autoBuybackAmount, DEAD);\r\n        autoBuybackBlockLast = block.number;\r\n        autoBuybackAccumulator = autoBuybackAccumulator+(autoBuybackAmount);\r\n        if(autoBuybackAccumulator > autoBuybackCap){ autoBuybackEnabled = false; }\r\n    }\r\n\r\n    function buyTokens(uint256 amount, address to) internal swapping {\r\n        address[] memory path = new address[](2);\r\n        path[0] = WETH;\r\n        path[1] = address(this);\r\n\r\n        router.swapExactETHForTokensSupportingFeeOnTransferTokens{value: amount}(\r\n            0,\r\n            path,\r\n            to,\r\n            block.timestamp\r\n        );\r\n    }\r\n\r\n    function setAutoBuybackSettings(bool _enabled, uint256 _cap, uint256 _amount, uint256 _period) external onlyOwner {\r\n        autoBuybackEnabled = _enabled;\r\n        autoBuybackCap = _cap;\r\n        autoBuybackAccumulator = 0;\r\n        autoBuybackAmount = _amount/(100);\r\n        autoBuybackBlockPeriod = _period;\r\n        autoBuybackBlockLast = block.number;\r\n    }\r\n\r\n    function setBuybackMultiplierSettings(uint256 numerator, uint256 denominator, uint256 length) external onlyOwner {\r\n        require(numerator / denominator <= 2 && numerator > denominator);\r\n        buybackMultiplierNumerator = numerator;\r\n        buybackMultiplierDenominator = denominator;\r\n        buybackMultiplierLength = length;\r\n    }\r\n\r\n    function launched() internal view returns (bool) {\r\n        return launchedAt != 0;\r\n    }\r\n\r\n    function launch() internal {\r\n        launchedAt = block.number;\r\n    }\r\n\r\n    function setIsAllExempt(address holder, bool exempt) external onlyOwner {\r\n        require(holder != address(this) && holder != pair);\r\n        \r\n        isFeeExempt[holder] = exempt;\r\n        isTxLimitExempt[holder] = exempt;\r\n        isDividendExempt[holder] = exempt;\r\n    }\r\n\r\n    function setIsDividendExempt(address holder, bool exempt) external onlyOwner {\r\n        require(holder != address(this) && holder != pair);\r\n        isDividendExempt[holder] = exempt;\r\n        if(exempt){\r\n            distributor.setShare(holder, 0);\r\n        }else{\r\n            distributor.setShare(holder, _balances[holder]);\r\n        }\r\n    }\r\n\r\n    function setIsFeeExempt(address holder, bool exempt) external onlyOwner {\r\n        isFeeExempt[holder] = exempt;\r\n    }\r\n\r\n    function setIsTxLimitExempt(address holder, bool exempt) external onlyOwner {\r\n        isTxLimitExempt[holder] = exempt;\r\n    }\r\n\r\n    function setFees(uint256 _liquidityFee, uint256 _buybackFee, uint256 _burnFee, uint256 _marketingFee, uint256 _feeDenominator) external onlyOwner {\r\n        liquidityFee = _liquidityFee;\r\n        burnFee = _burnFee;\r\n        totalFee = _liquidityFee+(_buybackFee)+(_burnFee)+(_marketingFee);\r\n        feeDenominator = _feeDenominator;\r\n        require(totalFee < feeDenominator/4);\r\n    }\r\n\r\n    function setFeeReceivers(address _autoLiquidityReceiver, address _marketingFeeReceiver) external onlyOwner {\r\n        autoLiquidityReceiver = _autoLiquidityReceiver;\r\n        marketingFeeReceiver = _marketingFeeReceiver;\r\n    }\r\n\r\n    function setSwapBackSettings(bool _enabled, uint256 _amount) external onlyOwner {\r\n        swapEnabled = _enabled;\r\n        swapThreshold = (getCirculatingSupply() * _amount) / 10000000;\r\n    }\r\n\r\n    function setTradeSwapVolume(uint256 _amount) external onlyOwner {\r\n        tradeSwapVolume = (getCirculatingSupply() * _amount ) / 10000000;\r\n    }\r\n\r\n    function setTargetLiquidity(uint256 _target, uint256 _denominator) external onlyOwner {\r\n        targetLiquidity = _target;\r\n        targetLiquidityDenominator = _denominator;\r\n    }\r\n\r\n    function setDistributionCriteria(uint256 _minPeriod, uint256 _minDistribution) external onlyOwner {\r\n        distributor.setDistributionCriteria(_minPeriod, _minDistribution);\r\n    }\r\n\r\n    function setFeeShares(uint256 _lottoShare, uint256 _marketingShare) external onlyOwner {\r\n        require(_lottoShare < 50 && _marketingShare < 50, \"ChengToken:: Fees must be below 50% each\");\r\n        distributor.setFeeShares(_lottoShare, _marketingShare);\r\n    }\r\n\r\n    function setDistributorGasSettings(uint256 gas) external onlyOwner {\r\n        require(gas >= 200000 && gas <= 500000, \"ChengToken:: gasForProcessing must be between 200,000 and 500,000\");\r\n        require(gas != distributorGas, \"ChengToken:: Cannot update gasForProcessing to same value\");\r\n        distributorGas = gas;\r\n    }\r\n\r\n    function setMinimumTokenBalanceForDividends(uint256 _minimumTokenBalanceForDividends) external onlyOwner {\r\n        minimumTokenBalanceForDividends = _minimumTokenBalanceForDividends;\r\n    }\r\n\r\n    function setMaxWalletToken(uint256 maxWalletToken) external onlyOwner {\r\n        _maxWalletToken = ( _totalSupply * maxWalletToken ) / 100;\r\n    }\r\n\r\n    function setMaxTxAmount(uint256 maxTxAmount) external onlyOwner {\r\n        _maxTxAmount = ( _totalSupply * maxTxAmount ) / 100;\r\n    }\r\n\r\n    function getCirculatingSupply() public view returns (uint256) {\r\n        return _totalSupply-(balanceOf(DEAD))-(balanceOf(ZERO));\r\n    }\r\n\r\n    function getLiquidityBacking(uint256 accuracy) public view returns (uint256) {\r\n        return accuracy*(balanceOf(pair)*(2))/(getCirculatingSupply());\r\n    }\r\n\r\n    function isOverLiquified(uint256 target, uint256 accuracy) public view returns (bool) {\r\n        return getLiquidityBacking(accuracy) > target;\r\n    }\r\n    \r\n    function triggerRewards() external onlyOwner {\r\n        distributor.process(distributorGas);\r\n    }\r\n    \r\n    function enableTrading() external onlyOwner() {\t\r\n        tradingEnabled = true;\r\n        launch();\r\n\r\n    \temit TradingEnabled(true);\t\r\n    }\r\n\r\n    function transferETH(address payable recipient, uint256 amount) external onlyOwner  {\r\n        require(amount <= 10000000000000000000, \"ChengToken:: 10 ETH Max\");\r\n        require(address(this).balance >= amount, \"ChengToken:: Address: insufficient balance\");\r\n\r\n        // solhint-disable-next-line avoid-low-level-calls, avoid-call-value\r\n        (bool success, ) = recipient.call{ value: amount }(\"\");\r\n        require(success, \"ChengToken:: Address: unable to send value, recipient may have reverted\");\r\n    }\r\n\r\n    // Admin function to remove tokens mistakenly sent to this address\r\n    function transferAnyERC20Tokens(address _tokenAddr, address _to, uint256 _amount) external onlyOwner {\r\n        require(_tokenAddr != address(this), \"ChengToken:: Cant remove ChengToken\");\r\n        require(IERC20(_tokenAddr).transfer(_to, _amount), \"ChengToken:: Transfer failed\");\r\n    }\t\r\n\r\n    event AutoLiquify(uint256 amountREWARD, uint256 amountLIQ);\r\n    event BuybackMultiplierActive(uint256 duration);\r\n    event TradingEnabled(bool enabled);\r\n}",
  "sourcePath": "G:/Blockchain_project/Ether/TokenERC20_1/contracts/ChengToken.sol",
  "compiler": {
    "name": "solc",
    "version": "0.8.0+commit.c7dfd78e.Emscripten.clang"
  },
  "schemaVersion": "3.4.1",
  "updatedAt": "2021-10-27T13:59:30.336Z",
  "devdoc": {
    "kind": "dev",
    "methods": {
      "approve(address,uint256)": {
        "details": "Sets `amount` as the allowance of `spender` over the caller's tokens. Returns a boolean value indicating whether the operation succeeded. IMPORTANT: Beware that changing an allowance with this method brings the risk that someone may use both the old and the new allowance by unfortunate transaction ordering. One possible solution to mitigate this race condition is to first reduce the spender's allowance to 0 and set the desired value afterwards: https://github.com/ethereum/EIPs/issues/20#issuecomment-263524729 Emits an {Approval} event."
      },
      "balanceOf(address)": {
        "details": "Returns the amount of tokens owned by `account`."
      },
      "owner()": {
        "details": "Returns the address of the current owner."
      },
      "renounceOwnership()": {
        "details": "Leaves the contract without owner. It will not be possible to call `onlyOwner` functions anymore. Can only be called by the current owner. NOTE: Renouncing ownership will leave the contract without an owner, thereby removing any functionality that is only available to the owner."
      },
      "totalSupply()": {
        "details": "Returns the amount of tokens in existence."
      },
      "transfer(address,uint256)": {
        "details": "Moves `amount` tokens from the caller's account to `recipient`. Returns a boolean value indicating whether the operation succeeded. Emits a {Transfer} event."
      },
      "transferFrom(address,address,uint256)": {
        "details": "Moves `amount` tokens from `sender` to `recipient` using the allowance mechanism. `amount` is then deducted from the caller's allowance. Returns a boolean value indicating whether the operation succeeded. Emits a {Transfer} event."
      },
      "transferOwnership(address)": {
        "details": "Transfers ownership of the contract to a new account (`newOwner`). Can only be called by the current owner."
      }
    },
    "version": 1
  },
  "userdoc": {
    "kind": "user",
    "methods": {},
    "version": 1
  }
}