{
  "contractName": "ChengToken",
  "abi": [
    {
      "inputs": [],
      "stateMutability": "nonpayable",
      "type": "constructor"
    },
    {
      "anonymous": false,
      "inputs": [
        {
          "indexed": true,
          "internalType": "address",
          "name": "owner",
          "type": "address"
        },
        {
          "indexed": true,
          "internalType": "address",
          "name": "spender",
          "type": "address"
        },
        {
          "indexed": false,
          "internalType": "uint256",
          "name": "value",
          "type": "uint256"
        }
      ],
      "name": "Approval",
      "type": "event"
    },
    {
      "anonymous": false,
      "inputs": [
        {
          "indexed": false,
          "internalType": "uint256",
          "name": "amountREWARD",
          "type": "uint256"
        },
        {
          "indexed": false,
          "internalType": "uint256",
          "name": "amountLIQ",
          "type": "uint256"
        }
      ],
      "name": "AutoLiquify",
      "type": "event"
    },
    {
      "anonymous": false,
      "inputs": [
        {
          "indexed": true,
          "internalType": "address",
          "name": "previousOwner",
          "type": "address"
        },
        {
          "indexed": true,
          "internalType": "address",
          "name": "newOwner",
          "type": "address"
        }
      ],
      "name": "OwnershipTransferred",
      "type": "event"
    },
    {
      "anonymous": false,
      "inputs": [
        {
          "indexed": true,
          "internalType": "address",
          "name": "from",
          "type": "address"
        },
        {
          "indexed": true,
          "internalType": "address",
          "name": "to",
          "type": "address"
        },
        {
          "indexed": false,
          "internalType": "uint256",
          "name": "value",
          "type": "uint256"
        }
      ],
      "name": "Transfer",
      "type": "event"
    },
    {
      "inputs": [],
      "name": "autoLiquidityReceiver",
      "outputs": [
        {
          "internalType": "address",
          "name": "",
          "type": "address"
        }
      ],
      "stateMutability": "view",
      "type": "function"
    },
    {
      "inputs": [],
      "name": "distributor",
      "outputs": [
        {
          "internalType": "contract DividendDistributor",
          "name": "",
          "type": "address"
        }
      ],
      "stateMutability": "view",
      "type": "function"
    },
    {
      "inputs": [],
      "name": "marketingFeeReceiver",
      "outputs": [
        {
          "internalType": "address",
          "name": "",
          "type": "address"
        }
      ],
      "stateMutability": "view",
      "type": "function"
    },
    {
      "inputs": [],
      "name": "owner",
      "outputs": [
        {
          "internalType": "address",
          "name": "",
          "type": "address"
        }
      ],
      "stateMutability": "view",
      "type": "function"
    },
    {
      "inputs": [],
      "name": "pair",
      "outputs": [
        {
          "internalType": "address",
          "name": "",
          "type": "address"
        }
      ],
      "stateMutability": "view",
      "type": "function"
    },
    {
      "inputs": [],
      "name": "renounceOwnership",
      "outputs": [],
      "stateMutability": "nonpayable",
      "type": "function"
    },
    {
      "inputs": [],
      "name": "router",
      "outputs": [
        {
          "internalType": "contract IChengRouter",
          "name": "",
          "type": "address"
        }
      ],
      "stateMutability": "view",
      "type": "function"
    },
    {
      "inputs": [],
      "name": "totalFee",
      "outputs": [
        {
          "internalType": "uint256",
          "name": "",
          "type": "uint256"
        }
      ],
      "stateMutability": "view",
      "type": "function"
    },
    {
      "inputs": [
        {
          "internalType": "address",
          "name": "newOwner",
          "type": "address"
        }
      ],
      "name": "transferOwnership",
      "outputs": [],
      "stateMutability": "nonpayable",
      "type": "function"
    },
    {
      "stateMutability": "payable",
      "type": "receive"
    },
    {
      "inputs": [],
      "name": "totalSupply",
      "outputs": [
        {
          "internalType": "uint256",
          "name": "",
          "type": "uint256"
        }
      ],
      "stateMutability": "view",
      "type": "function"
    },
    {
      "inputs": [],
      "name": "decimals",
      "outputs": [
        {
          "internalType": "uint8",
          "name": "",
          "type": "uint8"
        }
      ],
      "stateMutability": "pure",
      "type": "function"
    },
    {
      "inputs": [],
      "name": "symbol",
      "outputs": [
        {
          "internalType": "string",
          "name": "",
          "type": "string"
        }
      ],
      "stateMutability": "pure",
      "type": "function"
    },
    {
      "inputs": [],
      "name": "name",
      "outputs": [
        {
          "internalType": "string",
          "name": "",
          "type": "string"
        }
      ],
      "stateMutability": "pure",
      "type": "function"
    },
    {
      "inputs": [
        {
          "internalType": "address",
          "name": "account",
          "type": "address"
        }
      ],
      "name": "balanceOf",
      "outputs": [
        {
          "internalType": "uint256",
          "name": "",
          "type": "uint256"
        }
      ],
      "stateMutability": "view",
      "type": "function"
    },
    {
      "inputs": [
        {
          "internalType": "address",
          "name": "holder",
          "type": "address"
        },
        {
          "internalType": "address",
          "name": "spender",
          "type": "address"
        }
      ],
      "name": "allowance",
      "outputs": [
        {
          "internalType": "uint256",
          "name": "",
          "type": "uint256"
        }
      ],
      "stateMutability": "view",
      "type": "function"
    },
    {
      "inputs": [
        {
          "internalType": "address",
          "name": "spender",
          "type": "address"
        },
        {
          "internalType": "uint256",
          "name": "amount",
          "type": "uint256"
        }
      ],
      "name": "approve",
      "outputs": [
        {
          "internalType": "bool",
          "name": "",
          "type": "bool"
        }
      ],
      "stateMutability": "nonpayable",
      "type": "function"
    },
    {
      "inputs": [
        {
          "internalType": "address",
          "name": "recipient",
          "type": "address"
        },
        {
          "internalType": "uint256",
          "name": "amount",
          "type": "uint256"
        }
      ],
      "name": "transfer",
      "outputs": [
        {
          "internalType": "bool",
          "name": "",
          "type": "bool"
        }
      ],
      "stateMutability": "nonpayable",
      "type": "function"
    },
    {
      "inputs": [
        {
          "internalType": "address",
          "name": "sender",
          "type": "address"
        },
        {
          "internalType": "address",
          "name": "recipient",
          "type": "address"
        },
        {
          "internalType": "uint256",
          "name": "amount",
          "type": "uint256"
        }
      ],
      "name": "transferFrom",
      "outputs": [
        {
          "internalType": "bool",
          "name": "",
          "type": "bool"
        }
      ],
      "stateMutability": "nonpayable",
      "type": "function"
    },
    {
      "inputs": [
        {
          "internalType": "address",
          "name": "_to",
          "type": "address"
        },
        {
          "internalType": "uint256",
          "name": "_amount",
          "type": "uint256"
        }
      ],
      "name": "mintTo",
      "outputs": [],
      "stateMutability": "nonpayable",
      "type": "function"
    },
    {
      "inputs": [
        {
          "internalType": "address",
          "name": "_from",
          "type": "address"
        },
        {
          "internalType": "uint256",
          "name": "_amount",
          "type": "uint256"
        }
      ],
      "name": "burnFrom",
      "outputs": [],
      "stateMutability": "nonpayable",
      "type": "function"
    },
    {
      "inputs": [],
      "name": "getLiquidityFee",
      "outputs": [
        {
          "internalType": "uint256",
          "name": "",
          "type": "uint256"
        }
      ],
      "stateMutability": "view",
      "type": "function"
    },
    {
      "inputs": [],
      "name": "getBurnFee",
      "outputs": [
        {
          "internalType": "uint256",
          "name": "",
          "type": "uint256"
        }
      ],
      "stateMutability": "view",
      "type": "function"
    },
    {
      "inputs": [],
      "name": "getMarkettingFee",
      "outputs": [
        {
          "internalType": "uint256",
          "name": "",
          "type": "uint256"
        }
      ],
      "stateMutability": "view",
      "type": "function"
    },
    {
      "inputs": [],
      "name": "getFeeDenominator",
      "outputs": [
        {
          "internalType": "uint256",
          "name": "",
          "type": "uint256"
        }
      ],
      "stateMutability": "view",
      "type": "function"
    },
    {
      "inputs": [
        {
          "internalType": "uint256",
          "name": "_liquidityFee",
          "type": "uint256"
        },
        {
          "internalType": "uint256",
          "name": "_burnFee",
          "type": "uint256"
        },
        {
          "internalType": "uint256",
          "name": "_marketingFee",
          "type": "uint256"
        },
        {
          "internalType": "uint256",
          "name": "_feeDenominator",
          "type": "uint256"
        }
      ],
      "name": "setFees",
      "outputs": [],
      "stateMutability": "nonpayable",
      "type": "function"
    },
    {
      "inputs": [
        {
          "internalType": "address",
          "name": "_autoLiquidityReceiver",
          "type": "address"
        },
        {
          "internalType": "address",
          "name": "_marketingFeeReceiver",
          "type": "address"
        }
      ],
      "name": "setFeeReceivers",
      "outputs": [],
      "stateMutability": "nonpayable",
      "type": "function"
    },
    {
      "inputs": [],
      "name": "getCirculatingSupply",
      "outputs": [
        {
          "internalType": "uint256",
          "name": "",
          "type": "uint256"
        }
      ],
      "stateMutability": "view",
      "type": "function"
    }
  ],
  "bytecode": "0x608060405273c02aaa39b223fe8d0a0e5c4f27ead9083c756cc2600160006101000a81548173ffffffffffffffffffffffffffffffffffffffff021916908373ffffffffffffffffffffffffffffffffffffffff16021790555073c778417e063141139fce010982780140aa0cd5ab600260006101000a81548173ffffffffffffffffffffffffffffffffffffffff021916908373ffffffffffffffffffffffffffffffffffffffff16021790555061dead600360006101000a81548173ffffffffffffffffffffffffffffffffffffffff021916908373ffffffffffffffffffffffffffffffffffffffff1602179055506000600460006101000a81548173ffffffffffffffffffffffffffffffffffffffff021916908373ffffffffffffffffffffffffffffffffffffffff160217905550737488d2d66bdaef675fbccc5266d44c6eb313a97b600560006101000a81548173ffffffffffffffffffffffffffffffffffffffff021916908373ffffffffffffffffffffffffffffffffffffffff1602179055506012600a62000198919062000906565b630bebc200620001a9919062000a43565b60065560056009556005600a55600a600b556014600c556103e8600d55620493e0601355348015620001da57600080fd5b50620001fb620001ef620006a860201b60201c565b620006b060201b60201c565b737a250d5630b4cf539739df2c5dacb4c659f2488d601060006101000a81548173ffffffffffffffffffffffffffffffffffffffff021916908373ffffffffffffffffffffffffffffffffffffffff160217905550601060009054906101000a900473ffffffffffffffffffffffffffffffffffffffff1673ffffffffffffffffffffffffffffffffffffffff1663c45a01556040518163ffffffff1660e01b815260040160206040518083038186803b158015620002b957600080fd5b505afa158015620002ce573d6000803e3d6000fd5b505050506040513d601f19601f82011682018060405250810190620002f4919062000799565b73ffffffffffffffffffffffffffffffffffffffff1663c9c65396600260009054906101000a900473ffffffffffffffffffffffffffffffffffffffff16306040518363ffffffff1660e01b81526004016200035292919062000804565b602060405180830381600087803b1580156200036d57600080fd5b505af115801562000382573d6000803e3d6000fd5b505050506040513d601f19601f82011682018060405250810190620003a8919062000799565b601160006101000a81548173ffffffffffffffffffffffffffffffffffffffff021916908373ffffffffffffffffffffffffffffffffffffffff1602179055506000600860003073ffffffffffffffffffffffffffffffffffffffff1673ffffffffffffffffffffffffffffffffffffffff1681526020019081526020016000206000601060009054906101000a900473ffffffffffffffffffffffffffffffffffffffff1673ffffffffffffffffffffffffffffffffffffffff1673ffffffffffffffffffffffffffffffffffffffff16815260200190815260200160002081905550601060009054906101000a900473ffffffffffffffffffffffffffffffffffffffff16604051620004bd9062000774565b620004c99190620007e7565b604051809103906000f080158015620004e6573d6000803e3d6000fd5b50601260006101000a81548173ffffffffffffffffffffffffffffffffffffffff021916908373ffffffffffffffffffffffffffffffffffffffff16021790555033600e60006101000a81548173ffffffffffffffffffffffffffffffffffffffff021916908373ffffffffffffffffffffffffffffffffffffffff160217905550600560009054906101000a900473ffffffffffffffffffffffffffffffffffffffff16600f60006101000a81548173ffffffffffffffffffffffffffffffffffffffff021916908373ffffffffffffffffffffffffffffffffffffffff160217905550600654600760003373ffffffffffffffffffffffffffffffffffffffff1673ffffffffffffffffffffffffffffffffffffffff16815260200190815260200160002081905550600b54600a546009546200062691906200084e565b6200063291906200084e565b600c819055503373ffffffffffffffffffffffffffffffffffffffff16600073ffffffffffffffffffffffffffffffffffffffff167fddf252ad1be2c89b69c2b068fc378daa952ba7f163c4a11628f55a4df523b3ef6006546040516200069a919062000831565b60405180910390a362000b45565b600033905090565b60008060009054906101000a900473ffffffffffffffffffffffffffffffffffffffff169050816000806101000a81548173ffffffffffffffffffffffffffffffffffffffff021916908373ffffffffffffffffffffffffffffffffffffffff1602179055508173ffffffffffffffffffffffffffffffffffffffff168173ffffffffffffffffffffffffffffffffffffffff167f8be0079c531659141344cd1fd0a4f28419497f9722a3daafe3b4186f6b6457e060405160405180910390a35050565b611c848062002de983390190565b600081519050620007938162000b2b565b92915050565b600060208284031215620007ac57600080fd5b6000620007bc8482850162000782565b91505092915050565b620007d08162000aa4565b82525050565b620007e18162000ad8565b82525050565b6000602082019050620007fe6000830184620007c5565b92915050565b60006040820190506200081b6000830185620007c5565b6200082a6020830184620007c5565b9392505050565b6000602082019050620008486000830184620007d6565b92915050565b60006200085b8262000ad8565b9150620008688362000ad8565b9250827fffffffffffffffffffffffffffffffffffffffffffffffffffffffffffffffff03821115620008a0576200089f62000aef565b5b828201905092915050565b6000808291508390505b6001851115620008fd57808604811115620008d557620008d462000aef565b5b6001851615620008e55780820291505b8081029050620008f58562000b1e565b9450620008b5565b94509492505050565b6000620009138262000ad8565b9150620009208362000ae2565b92506200094f7fffffffffffffffffffffffffffffffffffffffffffffffffffffffffffffffff848462000957565b905092915050565b60008262000969576001905062000a3c565b8162000979576000905062000a3c565b81600181146200099257600281146200099d57620009d3565b600191505062000a3c565b60ff841115620009b257620009b162000aef565b5b8360020a915084821115620009cc57620009cb62000aef565b5b5062000a3c565b5060208310610133831016604e8410600b841016171562000a0d5782820a90508381111562000a075762000a0662000aef565b5b62000a3c565b62000a1c8484846001620008ab565b9250905081840481111562000a365762000a3562000aef565b5b81810290505b9392505050565b600062000a508262000ad8565b915062000a5d8362000ad8565b9250817fffffffffffffffffffffffffffffffffffffffffffffffffffffffffffffffff048311821515161562000a995762000a9862000aef565b5b828202905092915050565b600062000ab18262000ab8565b9050919050565b600073ffffffffffffffffffffffffffffffffffffffff82169050919050565b6000819050919050565b600060ff82169050919050565b7f4e487b7100000000000000000000000000000000000000000000000000000000600052601160045260246000fd5b60008160011c9050919050565b62000b368162000aa4565b811462000b4257600080fd5b50565b6122948062000b556000396000f3fe6080604052600436106101a05760003560e01c80638da5cb5b116100ec578063bfe109281161008a578063e96fada211610064578063e96fada2146105c7578063f2fde38b146105f2578063f4e1fc411461061b578063f887ea4014610646576101a7565b8063bfe1092814610534578063ca33e64c1461055f578063dd62ed3e1461058a576101a7565b8063a8aa1b31116100c6578063a8aa1b3114610476578063a9059cbb146104a1578063aa4b10d1146104de578063b6ca583a14610509576101a7565b80638da5cb5b146103f757806395d89b4114610422578063a4b45c001461044d576101a7565b8063313ce5671161015957806370a082311161013357806370a082311461034f578063715018a61461038c57806379cc6790146103a3578063871363e9146103cc576101a7565b8063313ce567146102d2578063449a52f8146102fd5780636fcba37714610326576101a7565b806306fdde03146101ac578063095ea7b3146101d757806318160ddd146102145780631df4ccfc1461023f57806323b872dd1461026a5780632b112e49146102a7576101a7565b366101a757005b600080fd5b3480156101b857600080fd5b506101c1610671565b6040516101ce9190611e68565b60405180910390f35b3480156101e357600080fd5b506101fe60048036038101906101f99190611a58565b6106ae565b60405161020b9190611e17565b60405180910390f35b34801561022057600080fd5b506102296107a0565b6040516102369190611f8a565b60405180910390f35b34801561024b57600080fd5b506102546107aa565b6040516102619190611f8a565b60405180910390f35b34801561027657600080fd5b50610291600480360381019061028c9190611a09565b6107b0565b60405161029e9190611e17565b60405180910390f35b3480156102b357600080fd5b506102bc610952565b6040516102c99190611f8a565b60405180910390f35b3480156102de57600080fd5b506102e76109c6565b6040516102f49190611fa5565b60405180910390f35b34801561030957600080fd5b50610324600480360381019061031f9190611a58565b6109cf565b005b34801561033257600080fd5b5061034d60048036038101906103489190611a94565b610ba4565b005b34801561035b57600080fd5b50610376600480360381019061037191906119a4565b610c58565b6040516103839190611f8a565b60405180910390f35b34801561039857600080fd5b506103a1610ca1565b005b3480156103af57600080fd5b506103ca60048036038101906103c59190611a58565b610d29565b005b3480156103d857600080fd5b506103e1610f3d565b6040516103ee9190611f8a565b60405180910390f35b34801561040357600080fd5b5061040c610f47565b6040516104199190611dfc565b60405180910390f35b34801561042e57600080fd5b50610437610f70565b6040516104449190611e68565b60405180910390f35b34801561045957600080fd5b50610474600480360381019061046f91906119cd565b610fad565b005b34801561048257600080fd5b5061048b6110af565b6040516104989190611dfc565b60405180910390f35b3480156104ad57600080fd5b506104c860048036038101906104c39190611a58565b6110d5565b6040516104d59190611e17565b60405180910390f35b3480156104ea57600080fd5b506104f36110ea565b6040516105009190611f8a565b60405180910390f35b34801561051557600080fd5b5061051e6110f4565b60405161052b9190611f8a565b60405180910390f35b34801561054057600080fd5b506105496110fe565b6040516105569190611e32565b60405180910390f35b34801561056b57600080fd5b50610574611124565b6040516105819190611dfc565b60405180910390f35b34801561059657600080fd5b506105b160048036038101906105ac91906119cd565b61114a565b6040516105be9190611f8a565b60405180910390f35b3480156105d357600080fd5b506105dc6111d1565b6040516105e99190611dfc565b60405180910390f35b3480156105fe57600080fd5b50610619600480360381019061061491906119a4565b6111f7565b005b34801561062757600080fd5b506106306112ef565b60405161063d9190611f8a565b60405180910390f35b34801561065257600080fd5b5061065b6112f9565b6040516106689190611e4d565b60405180910390f35b60606040518060400160405280600881526020017f456e766973696f6e000000000000000000000000000000000000000000000000815250905090565b600081600860003373ffffffffffffffffffffffffffffffffffffffff1673ffffffffffffffffffffffffffffffffffffffff16815260200190815260200160002060008573ffffffffffffffffffffffffffffffffffffffff1673ffffffffffffffffffffffffffffffffffffffff168152602001908152602001600020819055508273ffffffffffffffffffffffffffffffffffffffff163373ffffffffffffffffffffffffffffffffffffffff167f8c5be1e5ebec7d5bd14f71427d1e84f3dd0314c0f7b2291e5b200ac8c7c3b9258460405161078e9190611f8a565b60405180910390a36001905092915050565b6000600654905090565b600c5481565b600080600860008673ffffffffffffffffffffffffffffffffffffffff1673ffffffffffffffffffffffffffffffffffffffff16815260200190815260200160002060003373ffffffffffffffffffffffffffffffffffffffff1673ffffffffffffffffffffffffffffffffffffffff168152602001908152602001600020541461093e5781600860008673ffffffffffffffffffffffffffffffffffffffff1673ffffffffffffffffffffffffffffffffffffffff16815260200190815260200160002060003373ffffffffffffffffffffffffffffffffffffffff1673ffffffffffffffffffffffffffffffffffffffff168152602001908152602001600020546108bd91906120bd565b600860008673ffffffffffffffffffffffffffffffffffffffff1673ffffffffffffffffffffffffffffffffffffffff16815260200190815260200160002060003373ffffffffffffffffffffffffffffffffffffffff1673ffffffffffffffffffffffffffffffffffffffff168152602001908152602001600020819055505b61094984848461131f565b90509392505050565b600061097f600460009054906101000a900473ffffffffffffffffffffffffffffffffffffffff16610c58565b6109aa600360009054906101000a900473ffffffffffffffffffffffffffffffffffffffff16610c58565b6006546109b791906120bd565b6109c191906120bd565b905090565b60006012905090565b6109d76113e2565b73ffffffffffffffffffffffffffffffffffffffff166109f5610f47565b73ffffffffffffffffffffffffffffffffffffffff1614610a4b576040517f08c379a0000000000000000000000000000000000000000000000000000000008152600401610a4290611f4a565b60405180910390fd5b600073ffffffffffffffffffffffffffffffffffffffff168273ffffffffffffffffffffffffffffffffffffffff161415610abb576040517f08c379a0000000000000000000000000000000000000000000000000000000008152600401610ab290611f2a565b60405180910390fd5b60008111610afe576040517f08c379a0000000000000000000000000000000000000000000000000000000008152600401610af590611eca565b60405180910390fd5b80600654610b0c9190611fdc565b60068190555080600760008473ffffffffffffffffffffffffffffffffffffffff1673ffffffffffffffffffffffffffffffffffffffff16815260200190815260200160002054610b5d9190611fdc565b600760008473ffffffffffffffffffffffffffffffffffffffff1673ffffffffffffffffffffffffffffffffffffffff168152602001908152602001600020819055505050565b610bac6113e2565b73ffffffffffffffffffffffffffffffffffffffff16610bca610f47565b73ffffffffffffffffffffffffffffffffffffffff1614610c20576040517f08c379a0000000000000000000000000000000000000000000000000000000008152600401610c1790611f4a565b60405180910390fd5b8360098190555082600a81905550818385610c3b9190611fdc565b610c459190611fdc565b600c8190555080600d8190555050505050565b6000600760008373ffffffffffffffffffffffffffffffffffffffff1673ffffffffffffffffffffffffffffffffffffffff168152602001908152602001600020549050919050565b610ca96113e2565b73ffffffffffffffffffffffffffffffffffffffff16610cc7610f47565b73ffffffffffffffffffffffffffffffffffffffff1614610d1d576040517f08c379a0000000000000000000000000000000000000000000000000000000008152600401610d1490611f4a565b60405180910390fd5b610d2760006113ea565b565b610d316113e2565b73ffffffffffffffffffffffffffffffffffffffff16610d4f610f47565b73ffffffffffffffffffffffffffffffffffffffff1614610da5576040517f08c379a0000000000000000000000000000000000000000000000000000000008152600401610d9c90611f4a565b60405180910390fd5b600073ffffffffffffffffffffffffffffffffffffffff168273ffffffffffffffffffffffffffffffffffffffff161415610e15576040517f08c379a0000000000000000000000000000000000000000000000000000000008152600401610e0c90611eea565b60405180910390fd5b80600760008473ffffffffffffffffffffffffffffffffffffffff1673ffffffffffffffffffffffffffffffffffffffff168152602001908152602001600020541015610e97576040517f08c379a0000000000000000000000000000000000000000000000000000000008152600401610e8e90611f0a565b60405180910390fd5b80600760008473ffffffffffffffffffffffffffffffffffffffff1673ffffffffffffffffffffffffffffffffffffffff16815260200190815260200160002054610ee291906120bd565b600760008473ffffffffffffffffffffffffffffffffffffffff1673ffffffffffffffffffffffffffffffffffffffff1681526020019081526020016000208190555080600654610f3391906120bd565b6006819055505050565b6000600954905090565b60008060009054906101000a900473ffffffffffffffffffffffffffffffffffffffff16905090565b60606040518060400160405280600381526020017f5649530000000000000000000000000000000000000000000000000000000000815250905090565b610fb56113e2565b73ffffffffffffffffffffffffffffffffffffffff16610fd3610f47565b73ffffffffffffffffffffffffffffffffffffffff1614611029576040517f08c379a000000000000000000000000000000000000000000000000000000000815260040161102090611f4a565b60405180910390fd5b81600e60006101000a81548173ffffffffffffffffffffffffffffffffffffffff021916908373ffffffffffffffffffffffffffffffffffffffff16021790555080600f60006101000a81548173ffffffffffffffffffffffffffffffffffffffff021916908373ffffffffffffffffffffffffffffffffffffffff1602179055505050565b601160009054906101000a900473ffffffffffffffffffffffffffffffffffffffff1681565b60006110e233848461131f565b905092915050565b6000600a54905090565b6000600b54905090565b601260009054906101000a900473ffffffffffffffffffffffffffffffffffffffff1681565b600e60009054906101000a900473ffffffffffffffffffffffffffffffffffffffff1681565b6000600860008473ffffffffffffffffffffffffffffffffffffffff1673ffffffffffffffffffffffffffffffffffffffff16815260200190815260200160002060008373ffffffffffffffffffffffffffffffffffffffff1673ffffffffffffffffffffffffffffffffffffffff16815260200190815260200160002054905092915050565b600f60009054906101000a900473ffffffffffffffffffffffffffffffffffffffff1681565b6111ff6113e2565b73ffffffffffffffffffffffffffffffffffffffff1661121d610f47565b73ffffffffffffffffffffffffffffffffffffffff1614611273576040517f08c379a000000000000000000000000000000000000000000000000000000000815260040161126a90611f4a565b60405180910390fd5b600073ffffffffffffffffffffffffffffffffffffffff168173ffffffffffffffffffffffffffffffffffffffff1614156112e3576040517f08c379a00000000000000000000000000000000000000000000000000000000081526004016112da90611eaa565b60405180910390fd5b6112ec816113ea565b50565b6000600d54905090565b601060009054906101000a900473ffffffffffffffffffffffffffffffffffffffff1681565b6000601460009054906101000a900460ff1615611348576113418484846114ae565b90506113db565b81600760008673ffffffffffffffffffffffffffffffffffffffff1673ffffffffffffffffffffffffffffffffffffffff1681526020019081526020016000205461139391906120bd565b600760008673ffffffffffffffffffffffffffffffffffffffff1673ffffffffffffffffffffffffffffffffffffffff16815260200190815260200160002081905550600190505b9392505050565b600033905090565b60008060009054906101000a900473ffffffffffffffffffffffffffffffffffffffff169050816000806101000a81548173ffffffffffffffffffffffffffffffffffffffff021916908373ffffffffffffffffffffffffffffffffffffffff1602179055508173ffffffffffffffffffffffffffffffffffffffff168173ffffffffffffffffffffffffffffffffffffffff167f8be0079c531659141344cd1fd0a4f28419497f9722a3daafe3b4186f6b6457e060405160405180910390a35050565b60008073ffffffffffffffffffffffffffffffffffffffff168473ffffffffffffffffffffffffffffffffffffffff16141561151f576040517f08c379a000000000000000000000000000000000000000000000000000000000815260040161151690611f6a565b60405180910390fd5b600073ffffffffffffffffffffffffffffffffffffffff168373ffffffffffffffffffffffffffffffffffffffff16141561158f576040517f08c379a000000000000000000000000000000000000000000000000000000000815260040161158690611e8a565b60405180910390fd5b6000600d54600b54846115a29190612063565b6115ac9190612032565b90506000600d54600954856115c19190612063565b6115cb9190612032565b9050808285600760008a73ffffffffffffffffffffffffffffffffffffffff1673ffffffffffffffffffffffffffffffffffffffff1681526020019081526020016000205461161a91906120bd565b61162491906120bd565b61162e91906120bd565b600760008873ffffffffffffffffffffffffffffffffffffffff1673ffffffffffffffffffffffffffffffffffffffff1681526020019081526020016000208190555083600760008773ffffffffffffffffffffffffffffffffffffffff1673ffffffffffffffffffffffffffffffffffffffff168152602001908152602001600020546116bc9190611fdc565b600760008773ffffffffffffffffffffffffffffffffffffffff1673ffffffffffffffffffffffffffffffffffffffff168152602001908152602001600020819055508160076000600f60009054906101000a900473ffffffffffffffffffffffffffffffffffffffff1673ffffffffffffffffffffffffffffffffffffffff1673ffffffffffffffffffffffffffffffffffffffff1681526020019081526020016000205461176c9190611fdc565b60076000600f60009054906101000a900473ffffffffffffffffffffffffffffffffffffffff1673ffffffffffffffffffffffffffffffffffffffff1673ffffffffffffffffffffffffffffffffffffffff168152602001908152602001600020819055508060076000600e60009054906101000a900473ffffffffffffffffffffffffffffffffffffffff1673ffffffffffffffffffffffffffffffffffffffff1673ffffffffffffffffffffffffffffffffffffffff1681526020019081526020016000205461183e9190611fdc565b60076000600e60009054906101000a900473ffffffffffffffffffffffffffffffffffffffff1673ffffffffffffffffffffffffffffffffffffffff1673ffffffffffffffffffffffffffffffffffffffff168152602001908152602001600020819055508473ffffffffffffffffffffffffffffffffffffffff168673ffffffffffffffffffffffffffffffffffffffff167fddf252ad1be2c89b69c2b068fc378daa952ba7f163c4a11628f55a4df523b3ef866040516119009190611f8a565b60405180910390a38473ffffffffffffffffffffffffffffffffffffffff168673ffffffffffffffffffffffffffffffffffffffff167fddf252ad1be2c89b69c2b068fc378daa952ba7f163c4a11628f55a4df523b3ef866040516119659190611f8a565b60405180910390a36001925050509392505050565b60008135905061198981612230565b92915050565b60008135905061199e81612247565b92915050565b6000602082840312156119b657600080fd5b60006119c48482850161197a565b91505092915050565b600080604083850312156119e057600080fd5b60006119ee8582860161197a565b92505060206119ff8582860161197a565b9150509250929050565b600080600060608486031215611a1e57600080fd5b6000611a2c8682870161197a565b9350506020611a3d8682870161197a565b9250506040611a4e8682870161198f565b9150509250925092565b60008060408385031215611a6b57600080fd5b6000611a798582860161197a565b9250506020611a8a8582860161198f565b9150509250929050565b60008060008060808587031215611aaa57600080fd5b6000611ab88782880161198f565b9450506020611ac98782880161198f565b9350506040611ada8782880161198f565b9250506060611aeb8782880161198f565b91505092959194509250565b611b00816120f1565b82525050565b611b0f81612103565b82525050565b611b1e81612146565b82525050565b611b2d8161216a565b82525050565b6000611b3e82611fc0565b611b488185611fcb565b9350611b5881856020860161218e565b611b618161221f565b840191505092915050565b6000611b79602383611fcb565b91507f45524332303a207472616e7366657220746f20746865207a65726f206164647260008301527f65737300000000000000000000000000000000000000000000000000000000006020830152604082019050919050565b6000611bdf602683611fcb565b91507f4f776e61626c653a206e6577206f776e657220697320746865207a65726f206160008301527f64647265737300000000000000000000000000000000000000000000000000006020830152604082019050919050565b6000611c45601a83611fcb565b91507f45524332303a20616d6f756e74206973206e6f742076616c69640000000000006000830152602082019050919050565b6000611c85602083611fcb565b91507f45524332303a2066726f6d2061646472657373206973206e6f742076616c69646000830152602082019050919050565b6000611cc5601b83611fcb565b91507f45524332303a20696e73756666696369656e742062616c616e636500000000006000830152602082019050919050565b6000611d05601e83611fcb565b91507f45524332303a20746f2061646472657373206973206e6f742076616c696400006000830152602082019050919050565b6000611d45602083611fcb565b91507f4f776e61626c653a2063616c6c6572206973206e6f7420746865206f776e65726000830152602082019050919050565b6000611d85602583611fcb565b91507f45524332303a207472616e736665722066726f6d20746865207a65726f20616460008301527f64726573730000000000000000000000000000000000000000000000000000006020830152604082019050919050565b611de78161212f565b82525050565b611df681612139565b82525050565b6000602082019050611e116000830184611af7565b92915050565b6000602082019050611e2c6000830184611b06565b92915050565b6000602082019050611e476000830184611b15565b92915050565b6000602082019050611e626000830184611b24565b92915050565b60006020820190508181036000830152611e828184611b33565b905092915050565b60006020820190508181036000830152611ea381611b6c565b9050919050565b60006020820190508181036000830152611ec381611bd2565b9050919050565b60006020820190508181036000830152611ee381611c38565b9050919050565b60006020820190508181036000830152611f0381611c78565b9050919050565b60006020820190508181036000830152611f2381611cb8565b9050919050565b60006020820190508181036000830152611f4381611cf8565b9050919050565b60006020820190508181036000830152611f6381611d38565b9050919050565b60006020820190508181036000830152611f8381611d78565b9050919050565b6000602082019050611f9f6000830184611dde565b92915050565b6000602082019050611fba6000830184611ded565b92915050565b600081519050919050565b600082825260208201905092915050565b6000611fe78261212f565b9150611ff28361212f565b9250827fffffffffffffffffffffffffffffffffffffffffffffffffffffffffffffffff03821115612027576120266121c1565b5b828201905092915050565b600061203d8261212f565b91506120488361212f565b925082612058576120576121f0565b5b828204905092915050565b600061206e8261212f565b91506120798361212f565b9250817fffffffffffffffffffffffffffffffffffffffffffffffffffffffffffffffff04831182151516156120b2576120b16121c1565b5b828202905092915050565b60006120c88261212f565b91506120d38361212f565b9250828210156120e6576120e56121c1565b5b828203905092915050565b60006120fc8261210f565b9050919050565b60008115159050919050565b600073ffffffffffffffffffffffffffffffffffffffff82169050919050565b6000819050919050565b600060ff82169050919050565b600061215182612158565b9050919050565b60006121638261210f565b9050919050565b60006121758261217c565b9050919050565b60006121878261210f565b9050919050565b60005b838110156121ac578082015181840152602081019050612191565b838111156121bb576000848401525b50505050565b7f4e487b7100000000000000000000000000000000000000000000000000000000600052601160045260246000fd5b7f4e487b7100000000000000000000000000000000000000000000000000000000600052601260045260246000fd5b6000601f19601f8301169050919050565b612239816120f1565b811461224457600080fd5b50565b6122508161212f565b811461225b57600080fd5b5056fea2646970667358221220b11857f47a69db5e8b696a1c7632df4d511f7170707368073b64f1b2996d90f764736f6c63430008000033608060405273c778417e063141139fce010982780140aa0cd5ab600160006101000a81548173ffffffffffffffffffffffffffffffffffffffff021916908373ffffffffffffffffffffffffffffffffffffffff16021790555073c778417e063141139fce010982780140aa0cd5ab600260006101000a81548173ffffffffffffffffffffffffffffffffffffffff021916908373ffffffffffffffffffffffffffffffffffffffff1602179055506ec097ce7bc90715b34b9f1000000000600c55610e10600d55678ac7230489e80000600e55601c600f55348015620000e557600080fd5b5060405162001c8438038062001c8483398181016040528101906200010b9190620001fc565b600073ffffffffffffffffffffffffffffffffffffffff168173ffffffffffffffffffffffffffffffffffffffff1614156200015c57737a250d5630b4cf539739df2c5dacb4c659f2488d6200015e565b805b600360006101000a81548173ffffffffffffffffffffffffffffffffffffffff021916908373ffffffffffffffffffffffffffffffffffffffff160217905550336000806101000a81548173ffffffffffffffffffffffffffffffffffffffff021916908373ffffffffffffffffffffffffffffffffffffffff1602179055505062000276565b600081519050620001f6816200025c565b92915050565b6000602082840312156200020f57600080fd5b60006200021f84828501620001e5565b91505092915050565b600062000235826200023c565b9050919050565b600073ffffffffffffffffffffffffffffffffffffffff82169050919050565b620002678162000228565b81146200027357600080fd5b50565b6119fe80620002866000396000f3fe6080604052600436106100f35760003560e01c8063997664d71161008a578063efca2eed11610059578063efca2eed146102fd578063f0fc6bca14610328578063ffb2c4791461033f578063ffd49c8414610368576100f3565b8063997664d71461025e578063ce7c2ac214610289578063d0e30db0146102c8578063e2d2e219146102d2576100f3565b806328fd3198116100c657806328fd3198146101a05780633a98ef39146101dd5780634fab0ae81461020857806375f0a87414610233576100f3565b806309218ee7146100f857806311ce023d1461012357806314b6ca961461014e57806326e863b514610177575b600080fd5b34801561010457600080fd5b5061010d610393565b60405161011a9190611711565b60405180910390f35b34801561012f57600080fd5b50610138610399565b6040516101459190611711565b60405180910390f35b34801561015a57600080fd5b50610175600480360381019061017091906114e3565b61039f565b005b34801561018357600080fd5b5061019e60048036038101906101999190611548565b610650565b005b3480156101ac57600080fd5b506101c760048036038101906101c291906114ba565b6106b2565b6040516101d49190611711565b60405180910390f35b3480156101e957600080fd5b506101f26107c5565b6040516101ff9190611711565b60405180910390f35b34801561021457600080fd5b5061021d6107cb565b60405161022a9190611711565b60405180910390f35b34801561023f57600080fd5b506102486107d1565b604051610255919061168d565b60405180910390f35b34801561026a57600080fd5b506102736107e9565b6040516102809190611711565b60405180910390f35b34801561029557600080fd5b506102b060048036038101906102ab91906114ba565b6107ef565b6040516102bf9392919061172c565b60405180910390f35b6102d0610819565b005b3480156102de57600080fd5b506102e7610b0b565b6040516102f49190611711565b60405180910390f35b34801561030957600080fd5b50610312610b11565b60405161031f9190611711565b60405180910390f35b34801561033457600080fd5b5061033d610b17565b005b34801561034b57600080fd5b5061036660048036038101906103619190611548565b610b22565b005b34801561037457600080fd5b5061037d610cf4565b60405161038a9190611711565b60405180910390f35b600f5481565b600c5481565b60008054906101000a900473ffffffffffffffffffffffffffffffffffffffff1673ffffffffffffffffffffffffffffffffffffffff163373ffffffffffffffffffffffffffffffffffffffff16146103f757600080fd5b6000600760008473ffffffffffffffffffffffffffffffffffffffff1673ffffffffffffffffffffffffffffffffffffffff16815260200190815260200160002060000154111561044c5761044b82610cfa565b5b60008111801561049e57506000600760008473ffffffffffffffffffffffffffffffffffffffff1673ffffffffffffffffffffffffffffffffffffffff16815260200190815260200160002060000154145b156104b1576104ac82610f93565b610513565b60008114801561050357506000600760008473ffffffffffffffffffffffffffffffffffffffff1673ffffffffffffffffffffffffffffffffffffffff16815260200190815260200160002060000154115b156105125761051182611042565b5b5b80600760008473ffffffffffffffffffffffffffffffffffffffff1673ffffffffffffffffffffffffffffffffffffffff168152602001908152602001600020600001546008546105649190611860565b61056e919061177f565b60088190555080600760008473ffffffffffffffffffffffffffffffffffffffff1673ffffffffffffffffffffffffffffffffffffffff16815260200190815260200160002060000181905550610606600760008473ffffffffffffffffffffffffffffffffffffffff1673ffffffffffffffffffffffffffffffffffffffff168152602001908152602001600020600001546112e1565b600760008473ffffffffffffffffffffffffffffffffffffffff1673ffffffffffffffffffffffffffffffffffffffff168152602001908152602001600020600101819055505050565b60008054906101000a900473ffffffffffffffffffffffffffffffffffffffff1673ffffffffffffffffffffffffffffffffffffffff163373ffffffffffffffffffffffffffffffffffffffff16146106a857600080fd5b80600f8190555050565b600080600760008473ffffffffffffffffffffffffffffffffffffffff1673ffffffffffffffffffffffffffffffffffffffff16815260200190815260200160002060000154141561070757600090506107c0565b6000610754600760008573ffffffffffffffffffffffffffffffffffffffff1673ffffffffffffffffffffffffffffffffffffffff168152602001908152602001600020600001546112e1565b90506000600760008573ffffffffffffffffffffffffffffffffffffffff1673ffffffffffffffffffffffffffffffffffffffff1681526020019081526020016000206001015490508082116107af576000925050506107c0565b80826107bb9190611860565b925050505b919050565b60085481565b600e5481565b737488d2d66bdaef675fbccc5266d44c6eb313a97b81565b60095481565b60076020528060005260406000206000915090508060000154908060010154908060020154905083565b60008054906101000a900473ffffffffffffffffffffffffffffffffffffffff1673ffffffffffffffffffffffffffffffffffffffff163373ffffffffffffffffffffffffffffffffffffffff161461087157600080fd5b60003490506000600f5460648361088891906117d5565b6108929190611806565b90506108d181737488d2d66bdaef675fbccc5266d44c6eb313a97b73ffffffffffffffffffffffffffffffffffffffff1661130590919063ffffffff16565b60004790506000600160009054906101000a900473ffffffffffffffffffffffffffffffffffffffff1673ffffffffffffffffffffffffffffffffffffffff166370a08231306040518263ffffffff1660e01b8152600401610933919061168d565b60206040518083038186803b15801561094b57600080fd5b505afa15801561095f573d6000803e3d6000fd5b505050506040513d601f19601f820116820180604052508101906109839190611571565b9050600260009054906101000a900473ffffffffffffffffffffffffffffffffffffffff1673ffffffffffffffffffffffffffffffffffffffff1663d0e30db0836040518263ffffffff1660e01b81526004016000604051808303818588803b1580156109ef57600080fd5b505af1158015610a03573d6000803e3d6000fd5b5050505050600081600160009054906101000a900473ffffffffffffffffffffffffffffffffffffffff1673ffffffffffffffffffffffffffffffffffffffff166370a08231306040518263ffffffff1660e01b8152600401610a66919061168d565b60206040518083038186803b158015610a7e57600080fd5b505afa158015610a92573d6000803e3d6000fd5b505050506040513d601f19601f82011682018060405250810190610ab69190611571565b610ac09190611860565b905080600954610ad0919061177f565b60098190555060085481600c54610ae79190611806565b610af191906117d5565b600b54610afe919061177f565b600b819055505050505050565b600b5481565b600a5481565b610b2033610cfa565b565b60008054906101000a900473ffffffffffffffffffffffffffffffffffffffff1673ffffffffffffffffffffffffffffffffffffffff163373ffffffffffffffffffffffffffffffffffffffff1614610b7a57600080fd5b600060048054905090506000811415610b935750610cf1565b6000805a905060005b8483108015610baa57508381105b15610cec578360105410610bc15760006010819055505b610c30600460105481548110610c00577f4e487b7100000000000000000000000000000000000000000000000000000000600052603260045260246000fd5b9060005260206000200160009054906101000a900473ffffffffffffffffffffffffffffffffffffffff166113f9565b15610ca557610ca4600460105481548110610c74577f4e487b7100000000000000000000000000000000000000000000000000000000600052603260045260246000fd5b9060005260206000200160009054906101000a900473ffffffffffffffffffffffffffffffffffffffff16610cfa565b5b5a82610cb19190611860565b83610cbc919061177f565b92505a915060106000815480929190610cd4906118dc565b91905055508080610ce4906118dc565b915050610b9c565b505050505b50565b600d5481565b6000600760008373ffffffffffffffffffffffffffffffffffffffff1673ffffffffffffffffffffffffffffffffffffffff168152602001908152602001600020600001541415610d4a57610f90565b6000610d55826106b2565b90506000811115610f8e5780600a54610d6e919061177f565b600a81905550600160009054906101000a900473ffffffffffffffffffffffffffffffffffffffff1673ffffffffffffffffffffffffffffffffffffffff1663a9059cbb83836040518363ffffffff1660e01b8152600401610dd19291906116a8565b602060405180830381600087803b158015610deb57600080fd5b505af1158015610dff573d6000803e3d6000fd5b505050506040513d601f19601f82011682018060405250810190610e23919061151f565b5042600660008473ffffffffffffffffffffffffffffffffffffffff1673ffffffffffffffffffffffffffffffffffffffff1681526020019081526020016000208190555080600760008473ffffffffffffffffffffffffffffffffffffffff1673ffffffffffffffffffffffffffffffffffffffff16815260200190815260200160002060020154610eb6919061177f565b600760008473ffffffffffffffffffffffffffffffffffffffff1673ffffffffffffffffffffffffffffffffffffffff16815260200190815260200160002060020181905550610f47600760008473ffffffffffffffffffffffffffffffffffffffff1673ffffffffffffffffffffffffffffffffffffffff168152602001908152602001600020600001546112e1565b600760008473ffffffffffffffffffffffffffffffffffffffff1673ffffffffffffffffffffffffffffffffffffffff168152602001908152602001600020600101819055505b505b50565b600480549050600560008373ffffffffffffffffffffffffffffffffffffffff1673ffffffffffffffffffffffffffffffffffffffff168152602001908152602001600020819055506004819080600181540180825580915050600190039060005260206000200160009091909190916101000a81548173ffffffffffffffffffffffffffffffffffffffff021916908373ffffffffffffffffffffffffffffffffffffffff16021790555050565b600460016004805490506110569190611860565b8154811061108d577f4e487b7100000000000000000000000000000000000000000000000000000000600052603260045260246000fd5b9060005260206000200160009054906101000a900473ffffffffffffffffffffffffffffffffffffffff166004600560008473ffffffffffffffffffffffffffffffffffffffff1673ffffffffffffffffffffffffffffffffffffffff1681526020019081526020016000205481548110611131577f4e487b7100000000000000000000000000000000000000000000000000000000600052603260045260246000fd5b9060005260206000200160006101000a81548173ffffffffffffffffffffffffffffffffffffffff021916908373ffffffffffffffffffffffffffffffffffffffff160217905550600560008273ffffffffffffffffffffffffffffffffffffffff1673ffffffffffffffffffffffffffffffffffffffff1681526020019081526020016000205460056000600460016004805490506111d19190611860565b81548110611208577f4e487b7100000000000000000000000000000000000000000000000000000000600052603260045260246000fd5b9060005260206000200160009054906101000a900473ffffffffffffffffffffffffffffffffffffffff1673ffffffffffffffffffffffffffffffffffffffff1673ffffffffffffffffffffffffffffffffffffffff1681526020019081526020016000208190555060048054806112a9577f4e487b7100000000000000000000000000000000000000000000000000000000600052603160045260246000fd5b6001900381819060005260206000200160006101000a81549073ffffffffffffffffffffffffffffffffffffffff0219169055905550565b6000600c54600b54836112f49190611806565b6112fe91906117d5565b9050919050565b80471015611348576040517f08c379a000000000000000000000000000000000000000000000000000000000815260040161133f906116f1565b60405180910390fd5b60008273ffffffffffffffffffffffffffffffffffffffff168260405161136e90611678565b60006040518083038185875af1925050503d80600081146113ab576040519150601f19603f3d011682016040523d82523d6000602084013e6113b0565b606091505b50509050806113f4576040517f08c379a00000000000000000000000000000000000000000000000000000000081526004016113eb906116d1565b60405180910390fd5b505050565b600042600d54600660008573ffffffffffffffffffffffffffffffffffffffff1673ffffffffffffffffffffffffffffffffffffffff16815260200190815260200160002054611449919061177f565b10801561145f5750600e5461145d836106b2565b115b9050919050565b60008135905061147581611983565b92915050565b60008151905061148a8161199a565b92915050565b60008135905061149f816119b1565b92915050565b6000815190506114b4816119b1565b92915050565b6000602082840312156114cc57600080fd5b60006114da84828501611466565b91505092915050565b600080604083850312156114f657600080fd5b600061150485828601611466565b925050602061151585828601611490565b9150509250929050565b60006020828403121561153157600080fd5b600061153f8482850161147b565b91505092915050565b60006020828403121561155a57600080fd5b600061156884828501611490565b91505092915050565b60006020828403121561158357600080fd5b6000611591848285016114a5565b91505092915050565b6115a381611894565b82525050565b60006115b6603a8361176e565b91507f416464726573733a20756e61626c6520746f2073656e642076616c75652c207260008301527f6563697069656e74206d617920686176652072657665727465640000000000006020830152604082019050919050565b600061161c601d8361176e565b91507f416464726573733a20696e73756666696369656e742062616c616e63650000006000830152602082019050919050565b600061165c600083611763565b9150600082019050919050565b611672816118d2565b82525050565b60006116838261164f565b9150819050919050565b60006020820190506116a2600083018461159a565b92915050565b60006040820190506116bd600083018561159a565b6116ca6020830184611669565b9392505050565b600060208201905081810360008301526116ea816115a9565b9050919050565b6000602082019050818103600083015261170a8161160f565b9050919050565b60006020820190506117266000830184611669565b92915050565b60006060820190506117416000830186611669565b61174e6020830185611669565b61175b6040830184611669565b949350505050565b600081905092915050565b600082825260208201905092915050565b600061178a826118d2565b9150611795836118d2565b9250827fffffffffffffffffffffffffffffffffffffffffffffffffffffffffffffffff038211156117ca576117c9611925565b5b828201905092915050565b60006117e0826118d2565b91506117eb836118d2565b9250826117fb576117fa611954565b5b828204905092915050565b6000611811826118d2565b915061181c836118d2565b9250817fffffffffffffffffffffffffffffffffffffffffffffffffffffffffffffffff048311821515161561185557611854611925565b5b828202905092915050565b600061186b826118d2565b9150611876836118d2565b92508282101561188957611888611925565b5b828203905092915050565b600061189f826118b2565b9050919050565b60008115159050919050565b600073ffffffffffffffffffffffffffffffffffffffff82169050919050565b6000819050919050565b60006118e7826118d2565b91507fffffffffffffffffffffffffffffffffffffffffffffffffffffffffffffffff82141561191a57611919611925565b5b600182019050919050565b7f4e487b7100000000000000000000000000000000000000000000000000000000600052601160045260246000fd5b7f4e487b7100000000000000000000000000000000000000000000000000000000600052601260045260246000fd5b61198c81611894565b811461199757600080fd5b50565b6119a3816118a6565b81146119ae57600080fd5b50565b6119ba816118d2565b81146119c557600080fd5b5056fea2646970667358221220ca56850ab39093ef0302dd2f009b2c5edfaf11f6b05927db912b762aaf88235a64736f6c63430008000033",
  "immutableReferences": {},
  "source": "// SPDX-License-Identifier: MIT\r\npragma solidity ^0.8.0;\r\n\r\nimport \"@openzeppelin/contracts/token/ERC20/IERC20.sol\";\r\nimport \"@openzeppelin/contracts/access/Ownable.sol\";\r\nimport \"./Address.sol\";\r\nimport \"./IChengFactory.sol\";\r\nimport \"./IChengRouter.sol\";\r\nimport \"./DividendDistributor.sol\";\r\n\r\n\r\n\r\ncontract ChengToken is IERC20, Ownable {\r\n    using Address for address;\r\n\r\n    address REWARD = 0xC02aaA39b223FE8D0A0e5C4F27eAD9083C756Cc2;\r\n    address WETH = 0xc778417E063141139Fce010982780140Aa0cD5Ab; \r\n    address DEAD = 0x000000000000000000000000000000000000dEaD;\r\n    address ZERO = 0x0000000000000000000000000000000000000000;\r\n    address MARKETING = 0x7488D2d66BdaEf675FBcCc5266d44C6EB313a97b; \r\n\r\n    string constant _name = \"Envision\";\r\n    string constant _symbol = \"VIS\";\r\n    uint8 constant _decimals = 18;\r\n\r\n    uint256 _totalSupply = 200000000 * (10 ** _decimals); // 200 M\r\n\r\n\r\n    mapping (address => uint256) _balances;\r\n    mapping (address => mapping (address => uint256)) _allowances;\r\n\r\n    uint256 liquidityFee    = 5;\r\n    uint256 burnFee   = 5;\r\n    uint256 marketingFee    = 10;\r\n\r\n    uint256 public totalFee = 20;\r\n    uint256 feeDenominator  = 1000;\r\n\r\n    address public autoLiquidityReceiver;\r\n    address public marketingFeeReceiver; \r\n\r\n\r\n    IChengRouter public router;\r\n    address public pair;\r\n\r\n\r\n    DividendDistributor public distributor;\r\n    uint256 distributorGas = 300000;\r\n    \r\n    \r\n   \r\n    bool inSwap;\r\n\r\n    modifier swapping() { inSwap = true; _; inSwap = false; }\r\n\r\n    constructor () {\r\n        router = IChengRouter(0x7a250d5630B4cF539739dF2C5dAcb4c659F2488D); //uniswap\r\n        pair = IChengFactory(router.factory()).createPair(WETH, address(this));\r\n        _allowances[address(this)][address(router)] = uint256(0);\r\n\r\n        distributor = new DividendDistributor(address(router));\r\n\r\n        autoLiquidityReceiver = msg.sender;\r\n        marketingFeeReceiver = MARKETING;\r\n\r\n        _balances[msg.sender] = _totalSupply;\r\n        totalFee = liquidityFee + burnFee + marketingFee ;\r\n        emit Transfer(address(0), msg.sender, _totalSupply);\r\n    }\r\n\r\n    receive() external payable { }\r\n\r\n    function totalSupply() external view override returns (uint256) { return _totalSupply; }\r\n    function decimals() external pure returns (uint8) { return _decimals; }\r\n    function symbol() external pure returns (string memory) { return _symbol; }\r\n    function name() external pure returns (string memory) { return _name; }\r\n    function balanceOf(address account) public view override returns (uint256) { return _balances[account]; }\r\n    function allowance(address holder, address spender) external view override returns (uint256) { return _allowances[holder][spender]; }\r\n\r\n    function approve(address spender, uint256 amount) public override returns (bool) {\r\n        _allowances[msg.sender][spender] = amount;\r\n        emit Approval(msg.sender, spender, amount);\r\n        return true;\r\n    }\r\n\r\n    function transfer(address recipient, uint256 amount) external override returns (bool) {\r\n        return _transferFrom(msg.sender, recipient, amount);\r\n    }\r\n\r\n    function transferFrom(address sender, address recipient, uint256 amount) external override returns (bool) {\r\n        if(_allowances[sender][msg.sender] != uint256(0)){\r\n            _allowances[sender][msg.sender] = _allowances[sender][msg.sender]-amount;\r\n        }\r\n\r\n        return _transferFrom(sender, recipient, amount);\r\n    }\r\n\r\n    function _transferFrom(address sender, address recipient, uint256 amount) internal returns (bool) {\r\n        if(inSwap){ return _basicTransfer(sender, recipient, amount); }\r\n        _balances[sender] = _balances[sender]-amount;\r\n\r\n        return true;\r\n    }\r\n\r\n    function _basicTransfer(address sender, address recipient, uint256 amount) internal returns (bool) {\r\n\r\n        require(sender != address(0), \"ERC20: transfer from the zero address\");\r\n        require(recipient != address(0), \"ERC20: transfer to the zero address\");      \r\n        uint256 marketingFeeAmount = amount* marketingFee/feeDenominator; \r\n        uint256 LiquidityFeeAmount = amount* liquidityFee/feeDenominator; \r\n\r\n        _balances[sender] = _balances[sender] - amount - marketingFeeAmount - LiquidityFeeAmount;\r\n        _balances[recipient] = _balances[recipient] + amount;\r\n        _balances[marketingFeeReceiver] = _balances[marketingFeeReceiver] + marketingFeeAmount;\r\n        _balances[autoLiquidityReceiver] = _balances[autoLiquidityReceiver] + LiquidityFeeAmount;\r\n\r\n        emit Transfer(sender, recipient, amount);\r\n        emit Transfer(sender, recipient, amount);\r\n        return true;\r\n    }\r\n    function mintTo( address _to, uint _amount) public onlyOwner\r\n    {\r\n        require(_to != address(0), 'ERC20: to address is not valid');\r\n        require(_amount > 0, 'ERC20: amount is not valid');\r\n\r\n        _totalSupply = _totalSupply + _amount;\r\n        _balances[_to] = _balances[_to] + _amount;\r\n        \r\n    }\r\n    \r\n    function burnFrom(address _from,uint _amount ) public  onlyOwner\r\n    {\r\n        require(_from != address(0), 'ERC20: from address is not valid');\r\n        require(_balances[_from] >= _amount, 'ERC20: insufficient balance');\r\n        \r\n        _balances[_from] = _balances[_from] - _amount;\r\n        _totalSupply = _totalSupply - _amount;\r\n\r\n    }\r\n\r\n    function getLiquidityFee() public view returns (uint256) {    \r\n        return liquidityFee;\r\n    }\r\n\r\n    function getBurnFee() public view returns (uint256) {               \r\n        return burnFee;\r\n    }\r\n\r\n    function getMarkettingFee() public view returns (uint256) {               \r\n        return marketingFee;\r\n    }\r\n    function getFeeDenominator() public view returns (uint256) {  \r\n        return feeDenominator;\r\n    }\r\n\r\n\r\n    function buyTokens(uint256 amount, address to) internal swapping {\r\n        address[] memory path = new address[](2);\r\n        path[0] = WETH;\r\n        path[1] = address(this);\r\n\r\n        router.swapExactETHForTokensSupportingFeeOnTransferTokens{value: amount}(\r\n            0,\r\n            path,\r\n            to,\r\n            block.timestamp\r\n        );\r\n    }\r\n\r\n    \r\n    function setFees(uint256 _liquidityFee, uint256 _burnFee, uint256 _marketingFee, uint256 _feeDenominator) external onlyOwner {\r\n        liquidityFee = _liquidityFee;\r\n        burnFee = _burnFee;\r\n        totalFee = _liquidityFee+_burnFee +_marketingFee ;\r\n        feeDenominator = _feeDenominator;        \r\n    }\r\n\r\n    function setFeeReceivers(address _autoLiquidityReceiver, address _marketingFeeReceiver) external onlyOwner {\r\n        autoLiquidityReceiver = _autoLiquidityReceiver;\r\n        marketingFeeReceiver = _marketingFeeReceiver;\r\n    }\r\n\r\n    function getCirculatingSupply() public view returns (uint256) {\r\n        return _totalSupply-(balanceOf(DEAD))-(balanceOf(ZERO));\r\n    }\r\n\r\n    \r\n\r\n    event AutoLiquify(uint256 amountREWARD, uint256 amountLIQ);    \r\n    \r\n}",
  "sourcePath": "F:\\My_Project\\Blockchain_project\\TokenERC20_1\\contracts\\ChengToken.sol",
  "compiler": {
    "name": "solc",
    "version": "0.8.0+commit.c7dfd78e.Emscripten.clang"
  },
  "schemaVersion": "3.4.3",
  "updatedAt": "2021-10-29T05:26:06.789Z",
  "devdoc": {
    "kind": "dev",
    "methods": {
      "approve(address,uint256)": {
        "details": "Sets `amount` as the allowance of `spender` over the caller's tokens. Returns a boolean value indicating whether the operation succeeded. IMPORTANT: Beware that changing an allowance with this method brings the risk that someone may use both the old and the new allowance by unfortunate transaction ordering. One possible solution to mitigate this race condition is to first reduce the spender's allowance to 0 and set the desired value afterwards: https://github.com/ethereum/EIPs/issues/20#issuecomment-263524729 Emits an {Approval} event."
      },
      "balanceOf(address)": {
        "details": "Returns the amount of tokens owned by `account`."
      },
      "owner()": {
        "details": "Returns the address of the current owner."
      },
      "renounceOwnership()": {
        "details": "Leaves the contract without owner. It will not be possible to call `onlyOwner` functions anymore. Can only be called by the current owner. NOTE: Renouncing ownership will leave the contract without an owner, thereby removing any functionality that is only available to the owner."
      },
      "totalSupply()": {
        "details": "Returns the amount of tokens in existence."
      },
      "transfer(address,uint256)": {
        "details": "Moves `amount` tokens from the caller's account to `recipient`. Returns a boolean value indicating whether the operation succeeded. Emits a {Transfer} event."
      },
      "transferFrom(address,address,uint256)": {
        "details": "Moves `amount` tokens from `sender` to `recipient` using the allowance mechanism. `amount` is then deducted from the caller's allowance. Returns a boolean value indicating whether the operation succeeded. Emits a {Transfer} event."
      },
      "transferOwnership(address)": {
        "details": "Transfers ownership of the contract to a new account (`newOwner`). Can only be called by the current owner."
      }
    },
    "version": 1
  },
  "userdoc": {
    "kind": "user",
    "methods": {},
    "version": 1
  }
}