{
  "contractName": "DividendDistributor",
  "abi": [
    {
      "inputs": [
        {
          "internalType": "address",
          "name": "_router",
          "type": "address"
        }
      ],
      "stateMutability": "nonpayable",
      "type": "constructor"
    },
    {
      "inputs": [],
      "name": "dividendsPerShare",
      "outputs": [
        {
          "internalType": "uint256",
          "name": "",
          "type": "uint256"
        }
      ],
      "stateMutability": "view",
      "type": "function"
    },
    {
      "inputs": [],
      "name": "dividendsPerShareAccuracyFactor",
      "outputs": [
        {
          "internalType": "uint256",
          "name": "",
          "type": "uint256"
        }
      ],
      "stateMutability": "view",
      "type": "function"
    },
    {
      "inputs": [],
      "name": "lottoShare",
      "outputs": [
        {
          "internalType": "uint256",
          "name": "",
          "type": "uint256"
        }
      ],
      "stateMutability": "view",
      "type": "function"
    },
    {
      "inputs": [],
      "name": "marketingShare",
      "outputs": [
        {
          "internalType": "uint256",
          "name": "",
          "type": "uint256"
        }
      ],
      "stateMutability": "view",
      "type": "function"
    },
    {
      "inputs": [],
      "name": "marketingWallet",
      "outputs": [
        {
          "internalType": "address",
          "name": "",
          "type": "address"
        }
      ],
      "stateMutability": "view",
      "type": "function"
    },
    {
      "inputs": [],
      "name": "minDistribution",
      "outputs": [
        {
          "internalType": "uint256",
          "name": "",
          "type": "uint256"
        }
      ],
      "stateMutability": "view",
      "type": "function"
    },
    {
      "inputs": [],
      "name": "minPeriod",
      "outputs": [
        {
          "internalType": "uint256",
          "name": "",
          "type": "uint256"
        }
      ],
      "stateMutability": "view",
      "type": "function"
    },
    {
      "inputs": [
        {
          "internalType": "address",
          "name": "",
          "type": "address"
        }
      ],
      "name": "shares",
      "outputs": [
        {
          "internalType": "uint256",
          "name": "amount",
          "type": "uint256"
        },
        {
          "internalType": "uint256",
          "name": "totalExcluded",
          "type": "uint256"
        },
        {
          "internalType": "uint256",
          "name": "totalRealised",
          "type": "uint256"
        }
      ],
      "stateMutability": "view",
      "type": "function"
    },
    {
      "inputs": [],
      "name": "totalDistributed",
      "outputs": [
        {
          "internalType": "uint256",
          "name": "",
          "type": "uint256"
        }
      ],
      "stateMutability": "view",
      "type": "function"
    },
    {
      "inputs": [],
      "name": "totalDividends",
      "outputs": [
        {
          "internalType": "uint256",
          "name": "",
          "type": "uint256"
        }
      ],
      "stateMutability": "view",
      "type": "function"
    },
    {
      "inputs": [],
      "name": "totalShares",
      "outputs": [
        {
          "internalType": "uint256",
          "name": "",
          "type": "uint256"
        }
      ],
      "stateMutability": "view",
      "type": "function"
    },
    {
      "inputs": [
        {
          "internalType": "uint256",
          "name": "_minPeriod",
          "type": "uint256"
        },
        {
          "internalType": "uint256",
          "name": "_minDistribution",
          "type": "uint256"
        }
      ],
      "name": "setDistributionCriteria",
      "outputs": [],
      "stateMutability": "nonpayable",
      "type": "function"
    },
    {
      "inputs": [
        {
          "internalType": "uint256",
          "name": "_lottoShare",
          "type": "uint256"
        },
        {
          "internalType": "uint256",
          "name": "_marketingShare",
          "type": "uint256"
        }
      ],
      "name": "setFeeShares",
      "outputs": [],
      "stateMutability": "nonpayable",
      "type": "function"
    },
    {
      "inputs": [
        {
          "internalType": "address",
          "name": "shareholder",
          "type": "address"
        },
        {
          "internalType": "uint256",
          "name": "amount",
          "type": "uint256"
        }
      ],
      "name": "setShare",
      "outputs": [],
      "stateMutability": "nonpayable",
      "type": "function"
    },
    {
      "inputs": [],
      "name": "deposit",
      "outputs": [],
      "stateMutability": "payable",
      "type": "function"
    },
    {
      "inputs": [
        {
          "internalType": "uint256",
          "name": "gas",
          "type": "uint256"
        }
      ],
      "name": "process",
      "outputs": [],
      "stateMutability": "nonpayable",
      "type": "function"
    },
    {
      "inputs": [],
      "name": "claimDividend",
      "outputs": [],
      "stateMutability": "nonpayable",
      "type": "function"
    },
    {
      "inputs": [
        {
          "internalType": "address",
          "name": "shareholder",
          "type": "address"
        }
      ],
      "name": "getUnpaidEarnings",
      "outputs": [
        {
          "internalType": "uint256",
          "name": "",
          "type": "uint256"
        }
      ],
      "stateMutability": "view",
      "type": "function"
    }
  ],
  "bytecode": "0x608060405273c778417e063141139fce010982780140aa0cd5ab600160006101000a81548173ffffffffffffffffffffffffffffffffffffffff021916908373ffffffffffffffffffffffffffffffffffffffff16021790555073c778417e063141139fce010982780140aa0cd5ab600260006101000a81548173ffffffffffffffffffffffffffffffffffffffff021916908373ffffffffffffffffffffffffffffffffffffffff1602179055506ec097ce7bc90715b34b9f1000000000600c55610e10600d55678ac7230489e80000600e556024600f55601c601055348015620000ea57600080fd5b5060405162001da738038062001da7833981810160405281019062000110919062000201565b600073ffffffffffffffffffffffffffffffffffffffff168173ffffffffffffffffffffffffffffffffffffffff1614156200016157737a250d5630b4cf539739df2c5dacb4c659f2488d62000163565b805b600360006101000a81548173ffffffffffffffffffffffffffffffffffffffff021916908373ffffffffffffffffffffffffffffffffffffffff160217905550336000806101000a81548173ffffffffffffffffffffffffffffffffffffffff021916908373ffffffffffffffffffffffffffffffffffffffff160217905550506200027b565b600081519050620001fb8162000261565b92915050565b6000602082840312156200021457600080fd5b60006200022484828501620001ea565b91505092915050565b60006200023a8262000241565b9050919050565b600073ffffffffffffffffffffffffffffffffffffffff82169050919050565b6200026c816200022d565b81146200027857600080fd5b50565b611b1c806200028b6000396000f3fe6080604052600436106101095760003560e01c806375f0a87411610095578063e2d2e21911610064578063e2d2e2191461033c578063efca2eed14610367578063f0fc6bca14610392578063ffb2c479146103a9578063ffd49c84146103d257610109565b806375f0a8741461029d578063997664d7146102c8578063ce7c2ac2146102f3578063d0e30db01461033257610109565b80632d48e896116100dc5780632d48e896146101ca5780633a98ef39146101f35780634fab0ae81461021e57806366f13ae41461024957806374e706561461027257610109565b806309218ee71461010e57806311ce023d1461013957806314b6ca961461016457806328fd31981461018d575b600080fd5b34801561011a57600080fd5b506101236103fd565b604051610130919061182f565b60405180910390f35b34801561014557600080fd5b5061014e610403565b60405161015b919061182f565b60405180910390f35b34801561017057600080fd5b5061018b600480360381019061018691906115c5565b610409565b005b34801561019957600080fd5b506101b460048036038101906101af919061159c565b6106ba565b6040516101c1919061182f565b60405180910390f35b3480156101d657600080fd5b506101f160048036038101906101ec919061167c565b6107cd565b005b3480156101ff57600080fd5b50610208610837565b604051610215919061182f565b60405180910390f35b34801561022a57600080fd5b5061023361083d565b604051610240919061182f565b60405180910390f35b34801561025557600080fd5b50610270600480360381019061026b919061167c565b610843565b005b34801561027e57600080fd5b506102876108ad565b604051610294919061182f565b60405180910390f35b3480156102a957600080fd5b506102b26108b3565b6040516102bf91906117ab565b60405180910390f35b3480156102d457600080fd5b506102dd6108cb565b6040516102ea919061182f565b60405180910390f35b3480156102ff57600080fd5b5061031a6004803603810190610315919061159c565b6108d1565b6040516103299392919061184a565b60405180910390f35b61033a6108fb565b005b34801561034857600080fd5b50610351610bed565b60405161035e919061182f565b60405180910390f35b34801561037357600080fd5b5061037c610bf3565b604051610389919061182f565b60405180910390f35b34801561039e57600080fd5b506103a7610bf9565b005b3480156103b557600080fd5b506103d060048036038101906103cb919061162a565b610c04565b005b3480156103de57600080fd5b506103e7610dd6565b6040516103f4919061182f565b60405180910390f35b60105481565b600c5481565b60008054906101000a900473ffffffffffffffffffffffffffffffffffffffff1673ffffffffffffffffffffffffffffffffffffffff163373ffffffffffffffffffffffffffffffffffffffff161461046157600080fd5b6000600760008473ffffffffffffffffffffffffffffffffffffffff1673ffffffffffffffffffffffffffffffffffffffff1681526020019081526020016000206000015411156104b6576104b582610ddc565b5b60008111801561050857506000600760008473ffffffffffffffffffffffffffffffffffffffff1673ffffffffffffffffffffffffffffffffffffffff16815260200190815260200160002060000154145b1561051b5761051682611075565b61057d565b60008114801561056d57506000600760008473ffffffffffffffffffffffffffffffffffffffff1673ffffffffffffffffffffffffffffffffffffffff16815260200190815260200160002060000154115b1561057c5761057b82611124565b5b5b80600760008473ffffffffffffffffffffffffffffffffffffffff1673ffffffffffffffffffffffffffffffffffffffff168152602001908152602001600020600001546008546105ce919061197e565b6105d8919061189d565b60088190555080600760008473ffffffffffffffffffffffffffffffffffffffff1673ffffffffffffffffffffffffffffffffffffffff16815260200190815260200160002060000181905550610670600760008473ffffffffffffffffffffffffffffffffffffffff1673ffffffffffffffffffffffffffffffffffffffff168152602001908152602001600020600001546113c3565b600760008473ffffffffffffffffffffffffffffffffffffffff1673ffffffffffffffffffffffffffffffffffffffff168152602001908152602001600020600101819055505050565b600080600760008473ffffffffffffffffffffffffffffffffffffffff1673ffffffffffffffffffffffffffffffffffffffff16815260200190815260200160002060000154141561070f57600090506107c8565b600061075c600760008573ffffffffffffffffffffffffffffffffffffffff1673ffffffffffffffffffffffffffffffffffffffff168152602001908152602001600020600001546113c3565b90506000600760008573ffffffffffffffffffffffffffffffffffffffff1673ffffffffffffffffffffffffffffffffffffffff1681526020019081526020016000206001015490508082116107b7576000925050506107c8565b80826107c3919061197e565b925050505b919050565b60008054906101000a900473ffffffffffffffffffffffffffffffffffffffff1673ffffffffffffffffffffffffffffffffffffffff163373ffffffffffffffffffffffffffffffffffffffff161461082557600080fd5b81600d8190555080600e819055505050565b60085481565b600e5481565b60008054906101000a900473ffffffffffffffffffffffffffffffffffffffff1673ffffffffffffffffffffffffffffffffffffffff163373ffffffffffffffffffffffffffffffffffffffff161461089b57600080fd5b81600f81905550806010819055505050565b600f5481565b737488d2d66bdaef675fbccc5266d44c6eb313a97b81565b60095481565b60076020528060005260406000206000915090508060000154908060010154908060020154905083565b60008054906101000a900473ffffffffffffffffffffffffffffffffffffffff1673ffffffffffffffffffffffffffffffffffffffff163373ffffffffffffffffffffffffffffffffffffffff161461095357600080fd5b6000349050600060105460648361096a91906118f3565b6109749190611924565b90506109b381737488d2d66bdaef675fbccc5266d44c6eb313a97b73ffffffffffffffffffffffffffffffffffffffff166113e790919063ffffffff16565b60004790506000600160009054906101000a900473ffffffffffffffffffffffffffffffffffffffff1673ffffffffffffffffffffffffffffffffffffffff166370a08231306040518263ffffffff1660e01b8152600401610a1591906117ab565b60206040518083038186803b158015610a2d57600080fd5b505afa158015610a41573d6000803e3d6000fd5b505050506040513d601f19601f82011682018060405250810190610a659190611653565b9050600260009054906101000a900473ffffffffffffffffffffffffffffffffffffffff1673ffffffffffffffffffffffffffffffffffffffff1663d0e30db0836040518263ffffffff1660e01b81526004016000604051808303818588803b158015610ad157600080fd5b505af1158015610ae5573d6000803e3d6000fd5b5050505050600081600160009054906101000a900473ffffffffffffffffffffffffffffffffffffffff1673ffffffffffffffffffffffffffffffffffffffff166370a08231306040518263ffffffff1660e01b8152600401610b4891906117ab565b60206040518083038186803b158015610b6057600080fd5b505afa158015610b74573d6000803e3d6000fd5b505050506040513d601f19601f82011682018060405250810190610b989190611653565b610ba2919061197e565b905080600954610bb2919061189d565b60098190555060085481600c54610bc99190611924565b610bd391906118f3565b600b54610be0919061189d565b600b819055505050505050565b600b5481565b600a5481565b610c0233610ddc565b565b60008054906101000a900473ffffffffffffffffffffffffffffffffffffffff1673ffffffffffffffffffffffffffffffffffffffff163373ffffffffffffffffffffffffffffffffffffffff1614610c5c57600080fd5b600060048054905090506000811415610c755750610dd3565b6000805a905060005b8483108015610c8c57508381105b15610dce578360115410610ca35760006011819055505b610d12600460115481548110610ce2577f4e487b7100000000000000000000000000000000000000000000000000000000600052603260045260246000fd5b9060005260206000200160009054906101000a900473ffffffffffffffffffffffffffffffffffffffff166114db565b15610d8757610d86600460115481548110610d56577f4e487b7100000000000000000000000000000000000000000000000000000000600052603260045260246000fd5b9060005260206000200160009054906101000a900473ffffffffffffffffffffffffffffffffffffffff16610ddc565b5b5a82610d93919061197e565b83610d9e919061189d565b92505a915060116000815480929190610db6906119fa565b91905055508080610dc6906119fa565b915050610c7e565b505050505b50565b600d5481565b6000600760008373ffffffffffffffffffffffffffffffffffffffff1673ffffffffffffffffffffffffffffffffffffffff168152602001908152602001600020600001541415610e2c57611072565b6000610e37826106ba565b905060008111156110705780600a54610e50919061189d565b600a81905550600160009054906101000a900473ffffffffffffffffffffffffffffffffffffffff1673ffffffffffffffffffffffffffffffffffffffff1663a9059cbb83836040518363ffffffff1660e01b8152600401610eb39291906117c6565b602060405180830381600087803b158015610ecd57600080fd5b505af1158015610ee1573d6000803e3d6000fd5b505050506040513d601f19601f82011682018060405250810190610f059190611601565b5042600660008473ffffffffffffffffffffffffffffffffffffffff1673ffffffffffffffffffffffffffffffffffffffff1681526020019081526020016000208190555080600760008473ffffffffffffffffffffffffffffffffffffffff1673ffffffffffffffffffffffffffffffffffffffff16815260200190815260200160002060020154610f98919061189d565b600760008473ffffffffffffffffffffffffffffffffffffffff1673ffffffffffffffffffffffffffffffffffffffff16815260200190815260200160002060020181905550611029600760008473ffffffffffffffffffffffffffffffffffffffff1673ffffffffffffffffffffffffffffffffffffffff168152602001908152602001600020600001546113c3565b600760008473ffffffffffffffffffffffffffffffffffffffff1673ffffffffffffffffffffffffffffffffffffffff168152602001908152602001600020600101819055505b505b50565b600480549050600560008373ffffffffffffffffffffffffffffffffffffffff1673ffffffffffffffffffffffffffffffffffffffff168152602001908152602001600020819055506004819080600181540180825580915050600190039060005260206000200160009091909190916101000a81548173ffffffffffffffffffffffffffffffffffffffff021916908373ffffffffffffffffffffffffffffffffffffffff16021790555050565b60046001600480549050611138919061197e565b8154811061116f577f4e487b7100000000000000000000000000000000000000000000000000000000600052603260045260246000fd5b9060005260206000200160009054906101000a900473ffffffffffffffffffffffffffffffffffffffff166004600560008473ffffffffffffffffffffffffffffffffffffffff1673ffffffffffffffffffffffffffffffffffffffff1681526020019081526020016000205481548110611213577f4e487b7100000000000000000000000000000000000000000000000000000000600052603260045260246000fd5b9060005260206000200160006101000a81548173ffffffffffffffffffffffffffffffffffffffff021916908373ffffffffffffffffffffffffffffffffffffffff160217905550600560008273ffffffffffffffffffffffffffffffffffffffff1673ffffffffffffffffffffffffffffffffffffffff1681526020019081526020016000205460056000600460016004805490506112b3919061197e565b815481106112ea577f4e487b7100000000000000000000000000000000000000000000000000000000600052603260045260246000fd5b9060005260206000200160009054906101000a900473ffffffffffffffffffffffffffffffffffffffff1673ffffffffffffffffffffffffffffffffffffffff1673ffffffffffffffffffffffffffffffffffffffff16815260200190815260200160002081905550600480548061138b577f4e487b7100000000000000000000000000000000000000000000000000000000600052603160045260246000fd5b6001900381819060005260206000200160006101000a81549073ffffffffffffffffffffffffffffffffffffffff0219169055905550565b6000600c54600b54836113d69190611924565b6113e091906118f3565b9050919050565b8047101561142a576040517f08c379a00000000000000000000000000000000000000000000000000000000081526004016114219061180f565b60405180910390fd5b60008273ffffffffffffffffffffffffffffffffffffffff168260405161145090611796565b60006040518083038185875af1925050503d806000811461148d576040519150601f19603f3d011682016040523d82523d6000602084013e611492565b606091505b50509050806114d6576040517f08c379a00000000000000000000000000000000000000000000000000000000081526004016114cd906117ef565b60405180910390fd5b505050565b600042600d54600660008573ffffffffffffffffffffffffffffffffffffffff1673ffffffffffffffffffffffffffffffffffffffff1681526020019081526020016000205461152b919061189d565b1080156115415750600e5461153f836106ba565b115b9050919050565b60008135905061155781611aa1565b92915050565b60008151905061156c81611ab8565b92915050565b60008135905061158181611acf565b92915050565b60008151905061159681611acf565b92915050565b6000602082840312156115ae57600080fd5b60006115bc84828501611548565b91505092915050565b600080604083850312156115d857600080fd5b60006115e685828601611548565b92505060206115f785828601611572565b9150509250929050565b60006020828403121561161357600080fd5b60006116218482850161155d565b91505092915050565b60006020828403121561163c57600080fd5b600061164a84828501611572565b91505092915050565b60006020828403121561166557600080fd5b600061167384828501611587565b91505092915050565b6000806040838503121561168f57600080fd5b600061169d85828601611572565b92505060206116ae85828601611572565b9150509250929050565b6116c1816119b2565b82525050565b60006116d4603a8361188c565b91507f416464726573733a20756e61626c6520746f2073656e642076616c75652c207260008301527f6563697069656e74206d617920686176652072657665727465640000000000006020830152604082019050919050565b600061173a601d8361188c565b91507f416464726573733a20696e73756666696369656e742062616c616e63650000006000830152602082019050919050565b600061177a600083611881565b9150600082019050919050565b611790816119f0565b82525050565b60006117a18261176d565b9150819050919050565b60006020820190506117c060008301846116b8565b92915050565b60006040820190506117db60008301856116b8565b6117e86020830184611787565b9392505050565b60006020820190508181036000830152611808816116c7565b9050919050565b600060208201905081810360008301526118288161172d565b9050919050565b60006020820190506118446000830184611787565b92915050565b600060608201905061185f6000830186611787565b61186c6020830185611787565b6118796040830184611787565b949350505050565b600081905092915050565b600082825260208201905092915050565b60006118a8826119f0565b91506118b3836119f0565b9250827fffffffffffffffffffffffffffffffffffffffffffffffffffffffffffffffff038211156118e8576118e7611a43565b5b828201905092915050565b60006118fe826119f0565b9150611909836119f0565b92508261191957611918611a72565b5b828204905092915050565b600061192f826119f0565b915061193a836119f0565b9250817fffffffffffffffffffffffffffffffffffffffffffffffffffffffffffffffff048311821515161561197357611972611a43565b5b828202905092915050565b6000611989826119f0565b9150611994836119f0565b9250828210156119a7576119a6611a43565b5b828203905092915050565b60006119bd826119d0565b9050919050565b60008115159050919050565b600073ffffffffffffffffffffffffffffffffffffffff82169050919050565b6000819050919050565b6000611a05826119f0565b91507fffffffffffffffffffffffffffffffffffffffffffffffffffffffffffffffff821415611a3857611a37611a43565b5b600182019050919050565b7f4e487b7100000000000000000000000000000000000000000000000000000000600052601160045260246000fd5b7f4e487b7100000000000000000000000000000000000000000000000000000000600052601260045260246000fd5b611aaa816119b2565b8114611ab557600080fd5b50565b611ac1816119c4565b8114611acc57600080fd5b50565b611ad8816119f0565b8114611ae357600080fd5b5056fea26469706673582212205ac77b1746df0ceca5ce532049cd29b5273c3d1d05140c91aaaf10fe72b3c1fc64736f6c63430008000033",
  "immutableReferences": {},
  "source": "\r\n// SPDX-License-Identifier: MIT\r\npragma solidity ^0.8.0;\r\nimport \"./Address.sol\";\r\nimport \"./IDividendDistributor.sol\";\r\nimport \"./IChengRouter.sol\";\r\nimport \"./IWETH.sol\";\r\nimport \"@openzeppelin/contracts/token/ERC20/IERC20.sol\";\r\n\r\ncontract DividendDistributor is IDividendDistributor {\r\n    using Address for address payable;   \r\n\r\n    address _token;\r\n\r\n    struct Share {\r\n        uint256 amount;\r\n        uint256 totalExcluded;\r\n        uint256 totalRealised;\r\n    }\r\n\r\n    IERC20 REWARD = IERC20(0xc778417E063141139Fce010982780140Aa0cD5Ab);\r\n    address WETH = 0xc778417E063141139Fce010982780140Aa0cD5Ab; \r\n    \r\n    IChengRouter router;\r\n\r\n    // address public constant lottoWallet = address(0xf34A67167fdF2168C54Ce5F1CA557609151A76A9);\r\n    address public constant marketingWallet = address(0x7488D2d66BdaEf675FBcCc5266d44C6EB313a97b);\r\n    \r\n    address[] shareholders;\r\n    mapping (address => uint256) shareholderIndexes;\r\n    mapping (address => uint256) shareholderClaims;\r\n\r\n    mapping (address => Share) public shares;\r\n\r\n    uint256 public totalShares;\r\n    uint256 public totalDividends;\r\n    uint256 public totalDistributed;\r\n    uint256 public dividendsPerShare;\r\n    uint256 public dividendsPerShareAccuracyFactor = 10 ** 36;\r\n\r\n    uint256 public minPeriod = 60 minutes;\r\n    uint256 public minDistribution = 10 * (10 ** 18);\r\n\r\n    uint256 public lottoShare = 36;\r\n    uint256 public marketingShare = 28;\r\n\r\n    uint256 currentIndex;\r\n\r\n    bool initialized;\r\n    modifier initialization() {\r\n        require(!initialized);\r\n        _;\r\n        initialized = true;\r\n    }\r\n\r\n    modifier onlyToken() {\r\n        require(msg.sender == _token); _;\r\n    }\r\n\r\n    constructor (address _router) {\r\n        router = _router != address(0)\r\n            ? IChengRouter(_router)\r\n            : IChengRouter(0x7a250d5630B4cF539739dF2C5dAcb4c659F2488D);\r\n        _token = msg.sender;\r\n    }\r\n\r\n    function setDistributionCriteria(uint256 _minPeriod, uint256 _minDistribution) external override onlyToken {\r\n        minPeriod = _minPeriod;\r\n        minDistribution = _minDistribution;\r\n    }\r\n\r\n    function setFeeShares(uint256 _lottoShare, uint256 _marketingShare) external override onlyToken {\r\n        lottoShare = _lottoShare;\r\n        marketingShare = _marketingShare;\r\n    }\r\n\r\n    function setShare(address shareholder, uint256 amount) external override onlyToken {\r\n        if(shares[shareholder].amount > 0){\r\n            distributeDividend(shareholder);\r\n        }\r\n\r\n        if(amount > 0 && shares[shareholder].amount == 0){\r\n            addShareholder(shareholder);\r\n        } else if(amount == 0 && shares[shareholder].amount > 0){\r\n            removeShareholder(shareholder);\r\n        }\r\n\r\n        totalShares = totalShares- (shares[shareholder].amount) + (amount);\r\n        shares[shareholder].amount = amount;\r\n        shares[shareholder].totalExcluded = getCumulativeDividends(shares[shareholder].amount);\r\n    }\r\n\r\n    function deposit() external payable override onlyToken {\r\n        uint256 _available = msg.value;\r\n\r\n        // uint256 lottoAllocation = _available/(100)*(lottoShare);\r\n        uint256 marketingAllocation = _available/(100)*(marketingShare); \r\n\r\n        // payable(lottoWallet).sendValue(lottoAllocation);\r\n        payable(marketingWallet).sendValue(marketingAllocation);\r\n\r\n        uint256 _totalAvailable = address(this).balance;\r\n\r\n        uint256 balanceBefore = REWARD.balanceOf(address(this));\r\n\r\n        IWETH(WETH).deposit{value: _totalAvailable}();\r\n\r\n        uint256 amount = REWARD.balanceOf(address(this)) - (balanceBefore);\r\n\r\n        totalDividends = totalDividends+ (amount);\r\n        dividendsPerShare = dividendsPerShare + (dividendsPerShareAccuracyFactor*(amount)/(totalShares));\r\n        \r\n    }\r\n\r\n    function process(uint256 gas) external override onlyToken {\r\n        uint256 shareholderCount = shareholders.length;\r\n\r\n        if(shareholderCount == 0) { return; }\r\n\r\n        uint256 gasUsed = 0;\r\n        uint256 gasLeft = gasleft();\r\n\r\n        uint256 iterations = 0;\r\n\r\n        while(gasUsed < gas && iterations < shareholderCount) {\r\n            if(currentIndex >= shareholderCount){\r\n                currentIndex = 0;\r\n            }\r\n\r\n            if(shouldDistribute(shareholders[currentIndex])){\r\n                distributeDividend(shareholders[currentIndex]);\r\n            }\r\n\r\n            gasUsed = gasUsed+(gasLeft-(gasleft()));\r\n            gasLeft = gasleft();\r\n            currentIndex++;\r\n            iterations++;\r\n        }\r\n    }\r\n\r\n    function shouldDistribute(address shareholder) internal view returns (bool) {\r\n        return shareholderClaims[shareholder] + minPeriod < block.timestamp\r\n                && getUnpaidEarnings(shareholder) > minDistribution;\r\n    }\r\n\r\n    function distributeDividend(address shareholder) internal {\r\n        if(shares[shareholder].amount == 0){ return; }\r\n\r\n        uint256 amount = getUnpaidEarnings(shareholder);\r\n        if(amount > 0){\r\n            totalDistributed = totalDistributed+(amount);\r\n            REWARD.transfer(shareholder, amount);\r\n            shareholderClaims[shareholder] = block.timestamp;\r\n            shares[shareholder].totalRealised = shares[shareholder].totalRealised+(amount);\r\n            shares[shareholder].totalExcluded = getCumulativeDividends(shares[shareholder].amount);\r\n        }\r\n    }\r\n\r\n    function claimDividend() external {\r\n        distributeDividend(msg.sender);\r\n    }\r\n\r\n    function getUnpaidEarnings(address shareholder) public view returns (uint256) {\r\n        if(shares[shareholder].amount == 0){ return 0; }\r\n\r\n        uint256 shareholderTotalDividends = getCumulativeDividends(shares[shareholder].amount);\r\n        uint256 shareholderTotalExcluded = shares[shareholder].totalExcluded;\r\n\r\n        if(shareholderTotalDividends <= shareholderTotalExcluded){ return 0; }\r\n\r\n        return shareholderTotalDividends-(shareholderTotalExcluded);\r\n    }\r\n\r\n    function getCumulativeDividends(uint256 share) internal view returns (uint256) {\r\n        return share*(dividendsPerShare)/(dividendsPerShareAccuracyFactor);\r\n    }\r\n\r\n    function addShareholder(address shareholder) internal {\r\n        shareholderIndexes[shareholder] = shareholders.length;\r\n        shareholders.push(shareholder);\r\n    }\r\n\r\n    function removeShareholder(address shareholder) internal {\r\n        shareholders[shareholderIndexes[shareholder]] = shareholders[shareholders.length-1];\r\n        shareholderIndexes[shareholders[shareholders.length-1]] = shareholderIndexes[shareholder];\r\n        shareholders.pop();\r\n    }\r\n}",
  "sourcePath": "G:/Blockchain_project/Ether/TokenERC20_1/contracts/DividendDistributor.sol",
  "compiler": {
    "name": "solc",
    "version": "0.8.0+commit.c7dfd78e.Emscripten.clang"
  },
  "schemaVersion": "3.4.1",
  "updatedAt": "2021-10-27T14:10:16.020Z",
  "devdoc": {
    "kind": "dev",
    "methods": {},
    "version": 1
  },
  "userdoc": {
    "kind": "user",
    "methods": {},
    "version": 1
  }
}