{
  "contractName": "DividendDistributor",
  "abi": [
    {
      "inputs": [
        {
          "internalType": "address",
          "name": "_router",
          "type": "address"
        }
      ],
      "stateMutability": "nonpayable",
      "type": "constructor"
    },
    {
      "inputs": [],
      "name": "dividendsPerShare",
      "outputs": [
        {
          "internalType": "uint256",
          "name": "",
          "type": "uint256"
        }
      ],
      "stateMutability": "view",
      "type": "function"
    },
    {
      "inputs": [],
      "name": "dividendsPerShareAccuracyFactor",
      "outputs": [
        {
          "internalType": "uint256",
          "name": "",
          "type": "uint256"
        }
      ],
      "stateMutability": "view",
      "type": "function"
    },
    {
      "inputs": [],
      "name": "marketingShare",
      "outputs": [
        {
          "internalType": "uint256",
          "name": "",
          "type": "uint256"
        }
      ],
      "stateMutability": "view",
      "type": "function"
    },
    {
      "inputs": [],
      "name": "marketingWallet",
      "outputs": [
        {
          "internalType": "address",
          "name": "",
          "type": "address"
        }
      ],
      "stateMutability": "view",
      "type": "function"
    },
    {
      "inputs": [],
      "name": "minDistribution",
      "outputs": [
        {
          "internalType": "uint256",
          "name": "",
          "type": "uint256"
        }
      ],
      "stateMutability": "view",
      "type": "function"
    },
    {
      "inputs": [],
      "name": "minPeriod",
      "outputs": [
        {
          "internalType": "uint256",
          "name": "",
          "type": "uint256"
        }
      ],
      "stateMutability": "view",
      "type": "function"
    },
    {
      "inputs": [
        {
          "internalType": "address",
          "name": "",
          "type": "address"
        }
      ],
      "name": "shares",
      "outputs": [
        {
          "internalType": "uint256",
          "name": "amount",
          "type": "uint256"
        },
        {
          "internalType": "uint256",
          "name": "totalExcluded",
          "type": "uint256"
        },
        {
          "internalType": "uint256",
          "name": "totalRealised",
          "type": "uint256"
        }
      ],
      "stateMutability": "view",
      "type": "function"
    },
    {
      "inputs": [],
      "name": "totalDistributed",
      "outputs": [
        {
          "internalType": "uint256",
          "name": "",
          "type": "uint256"
        }
      ],
      "stateMutability": "view",
      "type": "function"
    },
    {
      "inputs": [],
      "name": "totalDividends",
      "outputs": [
        {
          "internalType": "uint256",
          "name": "",
          "type": "uint256"
        }
      ],
      "stateMutability": "view",
      "type": "function"
    },
    {
      "inputs": [],
      "name": "totalShares",
      "outputs": [
        {
          "internalType": "uint256",
          "name": "",
          "type": "uint256"
        }
      ],
      "stateMutability": "view",
      "type": "function"
    },
    {
      "inputs": [
        {
          "internalType": "uint256",
          "name": "_marketingShare",
          "type": "uint256"
        }
      ],
      "name": "setFeeShares",
      "outputs": [],
      "stateMutability": "nonpayable",
      "type": "function"
    },
    {
      "inputs": [
        {
          "internalType": "address",
          "name": "shareholder",
          "type": "address"
        },
        {
          "internalType": "uint256",
          "name": "amount",
          "type": "uint256"
        }
      ],
      "name": "setShare",
      "outputs": [],
      "stateMutability": "nonpayable",
      "type": "function"
    },
    {
      "inputs": [],
      "name": "deposit",
      "outputs": [],
      "stateMutability": "payable",
      "type": "function"
    },
    {
      "inputs": [
        {
          "internalType": "uint256",
          "name": "gas",
          "type": "uint256"
        }
      ],
      "name": "process",
      "outputs": [],
      "stateMutability": "nonpayable",
      "type": "function"
    },
    {
      "inputs": [],
      "name": "claimDividend",
      "outputs": [],
      "stateMutability": "nonpayable",
      "type": "function"
    },
    {
      "inputs": [
        {
          "internalType": "address",
          "name": "shareholder",
          "type": "address"
        }
      ],
      "name": "getUnpaidEarnings",
      "outputs": [
        {
          "internalType": "uint256",
          "name": "",
          "type": "uint256"
        }
      ],
      "stateMutability": "view",
      "type": "function"
    }
  ],
  "bytecode": "0x608060405273c778417e063141139fce010982780140aa0cd5ab600160006101000a81548173ffffffffffffffffffffffffffffffffffffffff021916908373ffffffffffffffffffffffffffffffffffffffff16021790555073c778417e063141139fce010982780140aa0cd5ab600260006101000a81548173ffffffffffffffffffffffffffffffffffffffff021916908373ffffffffffffffffffffffffffffffffffffffff1602179055506ec097ce7bc90715b34b9f1000000000600c55610e10600d55678ac7230489e80000600e55601c600f55348015620000e557600080fd5b5060405162001c8438038062001c8483398181016040528101906200010b9190620001fc565b600073ffffffffffffffffffffffffffffffffffffffff168173ffffffffffffffffffffffffffffffffffffffff1614156200015c57737a250d5630b4cf539739df2c5dacb4c659f2488d6200015e565b805b600360006101000a81548173ffffffffffffffffffffffffffffffffffffffff021916908373ffffffffffffffffffffffffffffffffffffffff160217905550336000806101000a81548173ffffffffffffffffffffffffffffffffffffffff021916908373ffffffffffffffffffffffffffffffffffffffff1602179055505062000276565b600081519050620001f6816200025c565b92915050565b6000602082840312156200020f57600080fd5b60006200021f84828501620001e5565b91505092915050565b600062000235826200023c565b9050919050565b600073ffffffffffffffffffffffffffffffffffffffff82169050919050565b620002678162000228565b81146200027357600080fd5b50565b6119fe80620002866000396000f3fe6080604052600436106100f35760003560e01c8063997664d71161008a578063efca2eed11610059578063efca2eed146102fd578063f0fc6bca14610328578063ffb2c4791461033f578063ffd49c8414610368576100f3565b8063997664d71461025e578063ce7c2ac214610289578063d0e30db0146102c8578063e2d2e219146102d2576100f3565b806328fd3198116100c657806328fd3198146101a05780633a98ef39146101dd5780634fab0ae81461020857806375f0a87414610233576100f3565b806309218ee7146100f857806311ce023d1461012357806314b6ca961461014e57806326e863b514610177575b600080fd5b34801561010457600080fd5b5061010d610393565b60405161011a9190611711565b60405180910390f35b34801561012f57600080fd5b50610138610399565b6040516101459190611711565b60405180910390f35b34801561015a57600080fd5b50610175600480360381019061017091906114e3565b61039f565b005b34801561018357600080fd5b5061019e60048036038101906101999190611548565b610650565b005b3480156101ac57600080fd5b506101c760048036038101906101c291906114ba565b6106b2565b6040516101d49190611711565b60405180910390f35b3480156101e957600080fd5b506101f26107c5565b6040516101ff9190611711565b60405180910390f35b34801561021457600080fd5b5061021d6107cb565b60405161022a9190611711565b60405180910390f35b34801561023f57600080fd5b506102486107d1565b604051610255919061168d565b60405180910390f35b34801561026a57600080fd5b506102736107e9565b6040516102809190611711565b60405180910390f35b34801561029557600080fd5b506102b060048036038101906102ab91906114ba565b6107ef565b6040516102bf9392919061172c565b60405180910390f35b6102d0610819565b005b3480156102de57600080fd5b506102e7610b0b565b6040516102f49190611711565b60405180910390f35b34801561030957600080fd5b50610312610b11565b60405161031f9190611711565b60405180910390f35b34801561033457600080fd5b5061033d610b17565b005b34801561034b57600080fd5b5061036660048036038101906103619190611548565b610b22565b005b34801561037457600080fd5b5061037d610cf4565b60405161038a9190611711565b60405180910390f35b600f5481565b600c5481565b60008054906101000a900473ffffffffffffffffffffffffffffffffffffffff1673ffffffffffffffffffffffffffffffffffffffff163373ffffffffffffffffffffffffffffffffffffffff16146103f757600080fd5b6000600760008473ffffffffffffffffffffffffffffffffffffffff1673ffffffffffffffffffffffffffffffffffffffff16815260200190815260200160002060000154111561044c5761044b82610cfa565b5b60008111801561049e57506000600760008473ffffffffffffffffffffffffffffffffffffffff1673ffffffffffffffffffffffffffffffffffffffff16815260200190815260200160002060000154145b156104b1576104ac82610f93565b610513565b60008114801561050357506000600760008473ffffffffffffffffffffffffffffffffffffffff1673ffffffffffffffffffffffffffffffffffffffff16815260200190815260200160002060000154115b156105125761051182611042565b5b5b80600760008473ffffffffffffffffffffffffffffffffffffffff1673ffffffffffffffffffffffffffffffffffffffff168152602001908152602001600020600001546008546105649190611860565b61056e919061177f565b60088190555080600760008473ffffffffffffffffffffffffffffffffffffffff1673ffffffffffffffffffffffffffffffffffffffff16815260200190815260200160002060000181905550610606600760008473ffffffffffffffffffffffffffffffffffffffff1673ffffffffffffffffffffffffffffffffffffffff168152602001908152602001600020600001546112e1565b600760008473ffffffffffffffffffffffffffffffffffffffff1673ffffffffffffffffffffffffffffffffffffffff168152602001908152602001600020600101819055505050565b60008054906101000a900473ffffffffffffffffffffffffffffffffffffffff1673ffffffffffffffffffffffffffffffffffffffff163373ffffffffffffffffffffffffffffffffffffffff16146106a857600080fd5b80600f8190555050565b600080600760008473ffffffffffffffffffffffffffffffffffffffff1673ffffffffffffffffffffffffffffffffffffffff16815260200190815260200160002060000154141561070757600090506107c0565b6000610754600760008573ffffffffffffffffffffffffffffffffffffffff1673ffffffffffffffffffffffffffffffffffffffff168152602001908152602001600020600001546112e1565b90506000600760008573ffffffffffffffffffffffffffffffffffffffff1673ffffffffffffffffffffffffffffffffffffffff1681526020019081526020016000206001015490508082116107af576000925050506107c0565b80826107bb9190611860565b925050505b919050565b60085481565b600e5481565b737488d2d66bdaef675fbccc5266d44c6eb313a97b81565b60095481565b60076020528060005260406000206000915090508060000154908060010154908060020154905083565b60008054906101000a900473ffffffffffffffffffffffffffffffffffffffff1673ffffffffffffffffffffffffffffffffffffffff163373ffffffffffffffffffffffffffffffffffffffff161461087157600080fd5b60003490506000600f5460648361088891906117d5565b6108929190611806565b90506108d181737488d2d66bdaef675fbccc5266d44c6eb313a97b73ffffffffffffffffffffffffffffffffffffffff1661130590919063ffffffff16565b60004790506000600160009054906101000a900473ffffffffffffffffffffffffffffffffffffffff1673ffffffffffffffffffffffffffffffffffffffff166370a08231306040518263ffffffff1660e01b8152600401610933919061168d565b60206040518083038186803b15801561094b57600080fd5b505afa15801561095f573d6000803e3d6000fd5b505050506040513d601f19601f820116820180604052508101906109839190611571565b9050600260009054906101000a900473ffffffffffffffffffffffffffffffffffffffff1673ffffffffffffffffffffffffffffffffffffffff1663d0e30db0836040518263ffffffff1660e01b81526004016000604051808303818588803b1580156109ef57600080fd5b505af1158015610a03573d6000803e3d6000fd5b5050505050600081600160009054906101000a900473ffffffffffffffffffffffffffffffffffffffff1673ffffffffffffffffffffffffffffffffffffffff166370a08231306040518263ffffffff1660e01b8152600401610a66919061168d565b60206040518083038186803b158015610a7e57600080fd5b505afa158015610a92573d6000803e3d6000fd5b505050506040513d601f19601f82011682018060405250810190610ab69190611571565b610ac09190611860565b905080600954610ad0919061177f565b60098190555060085481600c54610ae79190611806565b610af191906117d5565b600b54610afe919061177f565b600b819055505050505050565b600b5481565b600a5481565b610b2033610cfa565b565b60008054906101000a900473ffffffffffffffffffffffffffffffffffffffff1673ffffffffffffffffffffffffffffffffffffffff163373ffffffffffffffffffffffffffffffffffffffff1614610b7a57600080fd5b600060048054905090506000811415610b935750610cf1565b6000805a905060005b8483108015610baa57508381105b15610cec578360105410610bc15760006010819055505b610c30600460105481548110610c00577f4e487b7100000000000000000000000000000000000000000000000000000000600052603260045260246000fd5b9060005260206000200160009054906101000a900473ffffffffffffffffffffffffffffffffffffffff166113f9565b15610ca557610ca4600460105481548110610c74577f4e487b7100000000000000000000000000000000000000000000000000000000600052603260045260246000fd5b9060005260206000200160009054906101000a900473ffffffffffffffffffffffffffffffffffffffff16610cfa565b5b5a82610cb19190611860565b83610cbc919061177f565b92505a915060106000815480929190610cd4906118dc565b91905055508080610ce4906118dc565b915050610b9c565b505050505b50565b600d5481565b6000600760008373ffffffffffffffffffffffffffffffffffffffff1673ffffffffffffffffffffffffffffffffffffffff168152602001908152602001600020600001541415610d4a57610f90565b6000610d55826106b2565b90506000811115610f8e5780600a54610d6e919061177f565b600a81905550600160009054906101000a900473ffffffffffffffffffffffffffffffffffffffff1673ffffffffffffffffffffffffffffffffffffffff1663a9059cbb83836040518363ffffffff1660e01b8152600401610dd19291906116a8565b602060405180830381600087803b158015610deb57600080fd5b505af1158015610dff573d6000803e3d6000fd5b505050506040513d601f19601f82011682018060405250810190610e23919061151f565b5042600660008473ffffffffffffffffffffffffffffffffffffffff1673ffffffffffffffffffffffffffffffffffffffff1681526020019081526020016000208190555080600760008473ffffffffffffffffffffffffffffffffffffffff1673ffffffffffffffffffffffffffffffffffffffff16815260200190815260200160002060020154610eb6919061177f565b600760008473ffffffffffffffffffffffffffffffffffffffff1673ffffffffffffffffffffffffffffffffffffffff16815260200190815260200160002060020181905550610f47600760008473ffffffffffffffffffffffffffffffffffffffff1673ffffffffffffffffffffffffffffffffffffffff168152602001908152602001600020600001546112e1565b600760008473ffffffffffffffffffffffffffffffffffffffff1673ffffffffffffffffffffffffffffffffffffffff168152602001908152602001600020600101819055505b505b50565b600480549050600560008373ffffffffffffffffffffffffffffffffffffffff1673ffffffffffffffffffffffffffffffffffffffff168152602001908152602001600020819055506004819080600181540180825580915050600190039060005260206000200160009091909190916101000a81548173ffffffffffffffffffffffffffffffffffffffff021916908373ffffffffffffffffffffffffffffffffffffffff16021790555050565b600460016004805490506110569190611860565b8154811061108d577f4e487b7100000000000000000000000000000000000000000000000000000000600052603260045260246000fd5b9060005260206000200160009054906101000a900473ffffffffffffffffffffffffffffffffffffffff166004600560008473ffffffffffffffffffffffffffffffffffffffff1673ffffffffffffffffffffffffffffffffffffffff1681526020019081526020016000205481548110611131577f4e487b7100000000000000000000000000000000000000000000000000000000600052603260045260246000fd5b9060005260206000200160006101000a81548173ffffffffffffffffffffffffffffffffffffffff021916908373ffffffffffffffffffffffffffffffffffffffff160217905550600560008273ffffffffffffffffffffffffffffffffffffffff1673ffffffffffffffffffffffffffffffffffffffff1681526020019081526020016000205460056000600460016004805490506111d19190611860565b81548110611208577f4e487b7100000000000000000000000000000000000000000000000000000000600052603260045260246000fd5b9060005260206000200160009054906101000a900473ffffffffffffffffffffffffffffffffffffffff1673ffffffffffffffffffffffffffffffffffffffff1673ffffffffffffffffffffffffffffffffffffffff1681526020019081526020016000208190555060048054806112a9577f4e487b7100000000000000000000000000000000000000000000000000000000600052603160045260246000fd5b6001900381819060005260206000200160006101000a81549073ffffffffffffffffffffffffffffffffffffffff0219169055905550565b6000600c54600b54836112f49190611806565b6112fe91906117d5565b9050919050565b80471015611348576040517f08c379a000000000000000000000000000000000000000000000000000000000815260040161133f906116f1565b60405180910390fd5b60008273ffffffffffffffffffffffffffffffffffffffff168260405161136e90611678565b60006040518083038185875af1925050503d80600081146113ab576040519150601f19603f3d011682016040523d82523d6000602084013e6113b0565b606091505b50509050806113f4576040517f08c379a00000000000000000000000000000000000000000000000000000000081526004016113eb906116d1565b60405180910390fd5b505050565b600042600d54600660008573ffffffffffffffffffffffffffffffffffffffff1673ffffffffffffffffffffffffffffffffffffffff16815260200190815260200160002054611449919061177f565b10801561145f5750600e5461145d836106b2565b115b9050919050565b60008135905061147581611983565b92915050565b60008151905061148a8161199a565b92915050565b60008135905061149f816119b1565b92915050565b6000815190506114b4816119b1565b92915050565b6000602082840312156114cc57600080fd5b60006114da84828501611466565b91505092915050565b600080604083850312156114f657600080fd5b600061150485828601611466565b925050602061151585828601611490565b9150509250929050565b60006020828403121561153157600080fd5b600061153f8482850161147b565b91505092915050565b60006020828403121561155a57600080fd5b600061156884828501611490565b91505092915050565b60006020828403121561158357600080fd5b6000611591848285016114a5565b91505092915050565b6115a381611894565b82525050565b60006115b6603a8361176e565b91507f416464726573733a20756e61626c6520746f2073656e642076616c75652c207260008301527f6563697069656e74206d617920686176652072657665727465640000000000006020830152604082019050919050565b600061161c601d8361176e565b91507f416464726573733a20696e73756666696369656e742062616c616e63650000006000830152602082019050919050565b600061165c600083611763565b9150600082019050919050565b611672816118d2565b82525050565b60006116838261164f565b9150819050919050565b60006020820190506116a2600083018461159a565b92915050565b60006040820190506116bd600083018561159a565b6116ca6020830184611669565b9392505050565b600060208201905081810360008301526116ea816115a9565b9050919050565b6000602082019050818103600083015261170a8161160f565b9050919050565b60006020820190506117266000830184611669565b92915050565b60006060820190506117416000830186611669565b61174e6020830185611669565b61175b6040830184611669565b949350505050565b600081905092915050565b600082825260208201905092915050565b600061178a826118d2565b9150611795836118d2565b9250827fffffffffffffffffffffffffffffffffffffffffffffffffffffffffffffffff038211156117ca576117c9611925565b5b828201905092915050565b60006117e0826118d2565b91506117eb836118d2565b9250826117fb576117fa611954565b5b828204905092915050565b6000611811826118d2565b915061181c836118d2565b9250817fffffffffffffffffffffffffffffffffffffffffffffffffffffffffffffffff048311821515161561185557611854611925565b5b828202905092915050565b600061186b826118d2565b9150611876836118d2565b92508282101561188957611888611925565b5b828203905092915050565b600061189f826118b2565b9050919050565b60008115159050919050565b600073ffffffffffffffffffffffffffffffffffffffff82169050919050565b6000819050919050565b60006118e7826118d2565b91507fffffffffffffffffffffffffffffffffffffffffffffffffffffffffffffffff82141561191a57611919611925565b5b600182019050919050565b7f4e487b7100000000000000000000000000000000000000000000000000000000600052601160045260246000fd5b7f4e487b7100000000000000000000000000000000000000000000000000000000600052601260045260246000fd5b61198c81611894565b811461199757600080fd5b50565b6119a3816118a6565b81146119ae57600080fd5b50565b6119ba816118d2565b81146119c557600080fd5b5056fea2646970667358221220ca56850ab39093ef0302dd2f009b2c5edfaf11f6b05927db912b762aaf88235a64736f6c63430008000033",
  "immutableReferences": {},
  "source": "\r\n// SPDX-License-Identifier: MIT\r\npragma solidity ^0.8.0;\r\nimport \"./Address.sol\";\r\nimport \"./IDividendDistributor.sol\";\r\nimport \"./IChengRouter.sol\";\r\nimport \"./IWETH.sol\";\r\nimport \"@openzeppelin/contracts/token/ERC20/IERC20.sol\";\r\n\r\ncontract DividendDistributor is IDividendDistributor {\r\n    using Address for address payable;   \r\n\r\n    address _token;\r\n\r\n    struct Share {\r\n        uint256 amount;\r\n        uint256 totalExcluded;\r\n        uint256 totalRealised;\r\n    }\r\n\r\n    IERC20 REWARD = IERC20(0xc778417E063141139Fce010982780140Aa0cD5Ab);\r\n    address WETH = 0xc778417E063141139Fce010982780140Aa0cD5Ab; \r\n    \r\n    IChengRouter router;\r\n\r\n    address public constant marketingWallet = address(0x7488D2d66BdaEf675FBcCc5266d44C6EB313a97b);\r\n    \r\n    address[] shareholders;\r\n    mapping (address => uint256) shareholderIndexes;\r\n    mapping (address => uint256) shareholderClaims;\r\n\r\n    mapping (address => Share) public shares;\r\n\r\n    uint256 public totalShares;\r\n    uint256 public totalDividends;\r\n    uint256 public totalDistributed;\r\n    uint256 public dividendsPerShare;\r\n    uint256 public dividendsPerShareAccuracyFactor = 10 ** 36;\r\n\r\n    uint256 public minPeriod = 60 minutes;\r\n    uint256 public minDistribution = 10 * (10 ** 18);\r\n\r\n    uint256 public marketingShare = 28;\r\n\r\n    uint256 currentIndex;\r\n\r\n    bool initialized;\r\n    modifier initialization() {\r\n        require(!initialized);\r\n        _;\r\n        initialized = true;\r\n    }\r\n\r\n    modifier onlyToken() {\r\n        require(msg.sender == _token); _;\r\n    }\r\n\r\n    constructor (address _router) {\r\n        router = _router != address(0)\r\n            ? IChengRouter(_router)\r\n            : IChengRouter(0x7a250d5630B4cF539739dF2C5dAcb4c659F2488D);\r\n        _token = msg.sender;\r\n    }\r\n\r\n\r\n    function setFeeShares(uint256 _marketingShare) external onlyToken {\r\n        marketingShare = _marketingShare;\r\n    }\r\n\r\n    function setShare(address shareholder, uint256 amount) external override onlyToken {\r\n        if(shares[shareholder].amount > 0){\r\n            distributeDividend(shareholder);\r\n        }\r\n\r\n        if(amount > 0 && shares[shareholder].amount == 0){\r\n            addShareholder(shareholder);\r\n        } else if(amount == 0 && shares[shareholder].amount > 0){\r\n            removeShareholder(shareholder);\r\n        }\r\n\r\n        totalShares = totalShares- (shares[shareholder].amount) + (amount);\r\n        shares[shareholder].amount = amount;\r\n        shares[shareholder].totalExcluded = getCumulativeDividends(shares[shareholder].amount);\r\n    }\r\n\r\n    function deposit() external payable override onlyToken {\r\n        uint256 _available = msg.value;\r\n\r\n        uint256 marketingAllocation = _available/(100)*(marketingShare); \r\n\r\n        payable(marketingWallet).sendValue(marketingAllocation);\r\n\r\n        uint256 _totalAvailable = address(this).balance;\r\n\r\n        uint256 balanceBefore = REWARD.balanceOf(address(this));\r\n\r\n        IWETH(WETH).deposit{value: _totalAvailable}();\r\n\r\n        uint256 amount = REWARD.balanceOf(address(this)) - (balanceBefore);\r\n\r\n        totalDividends = totalDividends+ (amount);\r\n        dividendsPerShare = dividendsPerShare + (dividendsPerShareAccuracyFactor*(amount)/(totalShares));\r\n        \r\n    }\r\n\r\n    function process(uint256 gas) external override onlyToken {\r\n        uint256 shareholderCount = shareholders.length;\r\n\r\n        if(shareholderCount == 0) { return; }\r\n\r\n        uint256 gasUsed = 0;\r\n        uint256 gasLeft = gasleft();\r\n\r\n        uint256 iterations = 0;\r\n\r\n        while(gasUsed < gas && iterations < shareholderCount) {\r\n            if(currentIndex >= shareholderCount){\r\n                currentIndex = 0;\r\n            }\r\n\r\n            if(shouldDistribute(shareholders[currentIndex])){\r\n                distributeDividend(shareholders[currentIndex]);\r\n            }\r\n\r\n            gasUsed = gasUsed+(gasLeft-(gasleft()));\r\n            gasLeft = gasleft();\r\n            currentIndex++;\r\n            iterations++;\r\n        }\r\n    }\r\n\r\n    function shouldDistribute(address shareholder) internal view returns (bool) {\r\n        return shareholderClaims[shareholder] + minPeriod < block.timestamp\r\n                && getUnpaidEarnings(shareholder) > minDistribution;\r\n    }\r\n\r\n    function distributeDividend(address shareholder) internal {\r\n        if(shares[shareholder].amount == 0){ return; }\r\n\r\n        uint256 amount = getUnpaidEarnings(shareholder);\r\n        if(amount > 0){\r\n            totalDistributed = totalDistributed+(amount);\r\n            REWARD.transfer(shareholder, amount);\r\n            shareholderClaims[shareholder] = block.timestamp;\r\n            shares[shareholder].totalRealised = shares[shareholder].totalRealised+(amount);\r\n            shares[shareholder].totalExcluded = getCumulativeDividends(shares[shareholder].amount);\r\n        }\r\n    }\r\n\r\n    function claimDividend() external {\r\n        distributeDividend(msg.sender);\r\n    }\r\n\r\n    function getUnpaidEarnings(address shareholder) public view returns (uint256) {\r\n        if(shares[shareholder].amount == 0){ return 0; }\r\n\r\n        uint256 shareholderTotalDividends = getCumulativeDividends(shares[shareholder].amount);\r\n        uint256 shareholderTotalExcluded = shares[shareholder].totalExcluded;\r\n\r\n        if(shareholderTotalDividends <= shareholderTotalExcluded){ return 0; }\r\n\r\n        return shareholderTotalDividends-(shareholderTotalExcluded);\r\n    }\r\n\r\n    function getCumulativeDividends(uint256 share) internal view returns (uint256) {\r\n        return share*(dividendsPerShare)/(dividendsPerShareAccuracyFactor);\r\n    }\r\n\r\n    function addShareholder(address shareholder) internal {\r\n        shareholderIndexes[shareholder] = shareholders.length;\r\n        shareholders.push(shareholder);\r\n    }\r\n\r\n    function removeShareholder(address shareholder) internal {\r\n        shareholders[shareholderIndexes[shareholder]] = shareholders[shareholders.length-1];\r\n        shareholderIndexes[shareholders[shareholders.length-1]] = shareholderIndexes[shareholder];\r\n        shareholders.pop();\r\n    }\r\n}",
  "sourcePath": "F:\\My_Project\\Blockchain_project\\TokenERC20_1\\contracts\\DividendDistributor.sol",
  "compiler": {
    "name": "solc",
    "version": "0.8.0+commit.c7dfd78e.Emscripten.clang"
  },
  "schemaVersion": "3.4.3",
  "updatedAt": "2021-10-29T05:26:06.797Z",
  "devdoc": {
    "kind": "dev",
    "methods": {},
    "version": 1
  },
  "userdoc": {
    "kind": "user",
    "methods": {},
    "version": 1
  }
}